:020000040800F2
:1000000000000120710B0008AF060008750600080B
:1000100093070008B7070008CB070008000000009E
:10002000000000000000000000000000730800084D
:100030008309000800000000D309000851060008E9
:10004000130A0008030B0008050B0008070B000843
:10005000090B00080B0B00080D0B00080F0B000824
:10006000110B0008130B0008150B0008170B0008F4
:10007000190B00081B0B00081D0B00081F0B0008C4
:10008000210B0008230B0008250B000800000000CE
:10009000000000000000000000000000270B000826
:1000A000290B00082B0B00082D0B00082F0B000854
:1000B000310B0008330B0008350B0008370B000824
:1000C000390B00083B0B00083D0B00083F0B0008F4
:1000D000410B0008430B0008450B0008000000001E
:1000E000470B0008490B00084B0B000800000000FC
:1000F0000000000000000000000000004D0B0008A0
:10010000000000004F0B0008510B0008530B0008C3
:1001100000000000000000000000000000000000DF
:10012000550B0008570B0008590B00085B0B000823
:100130005D0B00080000000000000000000000004F
:100140000000000000000000000000005F0B00083D
:10015000610B0008630B0008650B0008670B0008C3
:10016000690B00086B0B0008000000000000000095
:10017000000000000000000000000000000000007F
:10018000000000006D0B00080000000000000000EF
:040190006F0B0008E9
:1001940086B0002105910491022003900291019000
:1001A40043F60800C4F20200006800F00C00059059
:1001B4000598009030B1009804280DD000980828C4
:1001C40014D057E040F21801C2F2000142F200409C
:1001D400C0F2F400086056E040F21801C2F20001D7
:1001E40047F64000C0F27D1008604CE043F604007E
:1001F400C4F202000168C1F380510291006800F06A
:100204003F000190029880B1019947F64000C0F286
:100214007D10B0FBF1F043F60401C4F20201096859
:10022400C1F38811484304900FE0019942F2004061
:10023400C0F2F400B0FBF1F043F60401C4F2020191
:100244000968C1F388114843049043F60400C4F2DA
:100254000200006800F44031022000EBD13003902A
:1002640004980399B0FBF1F040F21801C2F20001C6
:10027400086008E040F21801C2F2000142F20040B6
:10028400C0F2F400086043F60800C4F202000068FB
:10029400C0B2010940F68C30C0F60000405C059005
:1002A400059A40F21801C2F200010868D0400860C3
:0402B40006B07047D9
:1002B80040F20000C2F2000000880B28C0F28B80D8
:1002C80041F21000C4F202000068C00600281BD4E6
:1002D80040F21000C2F20000007809280DDC40F25C
:1002E8000F01C2F200010020087040F21001C2F2B2
:1002F800000108780130087005E040F20F01C2F2F1
:100308000001012008700AE040F20F01C2F200016A
:100318000020087040F21001C2F20001087041F29A
:100328001000C4F202000068000700281BD440F245
:100338000E00C2F20000007809280DDC40F20D0121
:10034800C2F200010020087040F20E01C2F2000162
:1003580008780130087005E040F20D01C2F2000192
:10036800012008700AE040F20D01C2F200010020ED
:10037800087040F20E01C2F2000108701020C4F2A9
:1003880002000068C007D8B140F20C00C2F20000B9
:10039800007809280DDC40F20B01C2F200010020B0
:1003A800087040F20C01C2F20001087801300870B0
:1003B80005E040F20B01C2F20001012008700AE0DA
:1003C80040F20B01C2F200010020087040F20C015B
:0803D800C2F200010870704739
:1003E00043F63001C4F20201086840F001000860E1
:1003F000086840F01000086041F20001C4F20201F8
:10040000086820F400700860086820F08000086028
:100410000021C4F20201086820F00200086041F2E5
:100420000C02C4F20202106840F480701060106880
:1004300040F0400010600C22C4F20202106840F04C
:1004400002001060086840F480500860086840F4BA
:10045000804008601821C4F20201086840F04000A2
:0C0460000860086840F0800008607047E9
:10046C0081B08DF803008DF802109DF803009DF803
:10047C000210084345F61001C4F20001086045F66D
:10048C001400C4F2000000688007002800D4F6E7CE
:10049C0045F61400C4F20000006845F61800C4F2DA
:0804AC000000006801B0704778
:1004B40080B584B08DF80F000291ADF8062045F6A2
:1004C4000001C4F20001086840F48060086045F649
:1004D4001800C4F2000000688007002800D5F6E781
:1004E40000F056F9A0200021FFF7BEFF9DF80F0091
:1004F40045F61001C4F20001086045F61400C4F288
:10050400000000680006002800D4F6E700F040F977
:10051400A0200121FFF7A8FF0020ADF80400BDF8DA
:100524000400BDF806100139884217DA45F61400B4
:10053400C4F2000000684006002800D4F6E745F63F
:100544001000C4F2000000680299BDF80420885429
:10055400BDF804000130ADF80400E0E745F6000101
:10056400C4F20001086820F48060086045F61400B5
:10057400C4F2000000684006002800D4F6E745F6FF
:100584001000C4F200000068029ABDF8061011447D
:0C05940001F8010C00F00EF904B080BD6D
:1005A00040F20F00C2F20000007830B940F21101B1
:1005B000C2F20001002008700FE040F20F00C2F20A
:1005C0000000007840F21101C2F20001097888436E
:1005D00040F21201C2F20001087040F20D00C2F2B6
:1005E0000000007830B940F21301C2F2000100208F
:1005F00008700FE040F20D00C2F20000007840F2F7
:100600001301C2F200010978884340F21401C2F2DA
:100610000001087040F20B00C2F20000007830B90F
:1006200040F21501C2F20001002008700FE040F214
:100630000B00C2F20000007840F21501C2F2000186
:100640000978884340F21601C2F200010870704731
:1006500040F20001C2F200010888013008807047B2
:10066000034C206804348047FBE700F003F9FEE701
:04067000C00B0008B3
:1006740008490A68002AFED41EF0040F0CBFEFF3E9
:100684000880EFF3098042F000420A608169023178
:08069400816170472CED00E0CC
:10069C004EF68851CEF20001086840F470000860F4
:0206AC00704795
:0206AE00FEE765
:1006B00043F63001C4F20201086840F0020008600D
:1006C00043F64001C4F20201086840F4800008606B
:1006D00040F20041C4F20201086840F400100860D2
:1006E000086840F40000086040F22441C4F20201AE
:1006F000086840F480600860086840F48040086042
:1007000040F20C41C4F20201086820F44010086075
:10071000086820F44000086040F20441C4F202017D
:10072000086840F480600860086840F40060086071
:1007300045F60401C4F20001086840F02A00086090
:1007400045F61C01C4F20001086840F0D2000860C0
:10075000086820F40040086045F62001C4F200015A
:10076000086840F02B00086045F60801C4F200015B
:10077000086820F40040086045F60001C4F200015A
:10078000086840F001000860086840F48060086074
:020790007047B0
:02079200FEE780
:1007940045F60001C4F20001086840F48070086066
:1007A40045F61400C4F200000068C00700B9F7E77A
:0207B40070478C
:0207B600FEE75C
:1007B80045F60001C4F20001086840F400700860C2
:0207C800704778
:0207CA00FEE748
:1007CC0080B584B08DF80F000291ADF8062045F687
:1007DC000001C4F20001086840F48060086045F62E
:1007EC001800C4F2000000688007002800D5F6E766
:1007FC00FFF7CAFFA0200021FFF732FE9DF80F0083
:10080C0045F61001C4F20001086045F61400C4F26C
:10081C00000000680006002800D4F6E70020ADF8C0
:10082C000400BDF80400BDF80610884217DA0298DF
:10083C00BDF80410405C45F61001C4F200010860DC
:10084C0045F61400C4F2000000680006002800D42D
:10085C00F6E7BDF804000130ADF80400E1E7FFF75E
:06086C00A5FF04B080BDF1
:02087200FEE79F
:1008740080B584B0002003908DF80B008DF80A0039
:100884008DF8090000F0C4F8FFF7A8FDFFF70EFF8C
:1008940049F24000C0F2020000F072F8FFF70AFDCE
:1008A400FFF77CFE40F21200C2F20000007818B19B
:1008B40001208DF80B0016E040F21400C2F2000093
:1008C400007818B102208DF80B000CE040F21600FD
:1008D400C2F20000007818B103208DF80B0002E08A
:1008E40000208DF80B009DF80B00014601910328B0
:1008F40038D80199DFE801F00203132332E09DF8B0
:100904000A0040F21C01C2F200010822FFF75CFF5A
:1009140040F21101C2F200010120087022E09DF8AA
:100924000A0040F20201C2F200010822FFF7C0FDF2
:1009340040F21301C2F200010120087012E09DF898
:100944000900072805DC9DF8090001308DF809002D
:1009540002E000208DF8090040F21501C2F2000106
:10096400012008709DF8090008308DF80A009DF8F0
:0E097400090040F20A01C2F2000108708EE78D
:02098200FEE78E
:1009840080B582B0009000980138B0F1807F02D326
:100994000120019018E0009801384EF21401CEF2C3
:1009A400000108604FF0FF300F2100F011F84EF203
:1009B4001801CEF20001002008604EF21002CEF2BF
:0E09C4000002072111600190019802B080BD71
:0209D200FEE73E
:1009D40082B08DF8070000919DF90700002809D422
:1009E400009800019DF907104EF20042CEF2000279
:1009F40088540AE0009800019DF8071001F00F01E7
:0E0A04004EF61452CEF20002885402B0704733
:020A1200FEE7FD
:100A140080B582B043F60001C4F20201086840F4D4
:100A24008030086043F60000C4F2020000688003CE
:100A3400002800D4F6E743F60001C4F20201086876
:100A440020F08070086043F60402C4F202020192AE
:100A5400106840F480001060106820F03F001060BF
:100A6400106840F004001060106847F6C0739843A3
:100A74001060106840F428501060106820F4403072
:100A8400106043F60802C4F2020210681060106895
:100A940040F4A0501060106840F4004010600868F2
:100AA40040F08070086043F60000C4F20200006861
:100AB4008001002800D4F6E743F60041C4F20201A5
:100AC400086840F203721043086043F60801C4F258
:100AD4000201086820F003000860086840F0020082
:100AE400086043F60800C4F20200006800F00C003D
:0E0AF400082800D0F5E7FFF74BFB02B080BDED
:020B0200FEE70C
:020B0400FEE70A
:020B0600FEE708
:020B0800FEE706
:020B0A00FEE704
:020B0C00FEE702
:020B0E00FEE700
:020B1000FEE7FE
:020B1200FEE7FC
:020B1400FEE7FA
:020B1600FEE7F8
:020B1800FEE7F6
:020B1A00FEE7F4
:020B1C00FEE7F2
:020B1E00FEE7F0
:020B2000FEE7EE
:020B2200FEE7EC
:020B2400FEE7EA
:020B2600FEE7E8
:020B2800FEE7E6
:020B2A00FEE7E4
:020B2C00FEE7E2
:020B2E00FEE7E0
:020B3000FEE7DE
:020B3200FEE7DC
:020B3400FEE7DA
:020B3600FEE7D8
:020B3800FEE7D6
:020B3A00FEE7D4
:020B3C00FEE7D2
:020B3E00FEE7D0
:020B4000FEE7CE
:020B4200FEE7CC
:020B4400FEE7CA
:020B4600FEE7C8
:020B4800FEE7C6
:020B4A00FEE7C4
:020B4C00FEE7C2
:020B4E00FEE7C0
:020B5000FEE7BE
:020B5200FEE7BC
:020B5400FEE7BA
:020B5600FEE7B8
:020B5800FEE7B6
:020B5A00FEE7B4
:020B5C00FEE7B2
:020B5E00FEE7B0
:020B6000FEE7AE
:020B6200FEE7AC
:020B6400FEE7AA
:020B6600FEE7A8
:020B6800FEE7A6
:020B6A00FEE7A4
:020B6C00FEE7A2
:020B6E00FEE7A0
:100B7000FFF794FD4EF68850CEF20000016851F464
:080B800070010160FFF76CFD3C
:040B880095010008CB
:100B8C000000000000000000010203040607080931
:100B9C0000B506480649884205D00268043003B403
:100BAC00904703BCF7E708BC18470000880B000807
:040BBC008C0B000896
:100BC000F10B00080000002017000000030C0008D3
:100BD00018000020E40B00080C0000009D0B00082A
:040BE0006B06000898
:0C0BE4000024F4000102030405060703CE
:100BF000206861680834002200E042540139FCD5C5
:020C000070473B
:100C020020686168A2680C3401E08B5C8354013A6D
:040C1200FBD5704757
:0400000508000B7173
:00000001FF
