:020000040800F2
:10000000000002205D0800081B050008E10400084C
:10001000EF0500083F0600087F060008000000000A
:100020000000000000000000000000006F07000852
:10003000B707000800000000B907000839030008EE
:10004000BB070008BD070008BF070008C10700087C
:10005000C3070008C5070008C7070008C90700084C
:10006000CB070008CD070008CF070008D10700081C
:10007000D3070008D5070008D7070008D9070008EC
:10008000DB070008DD070008DF070008E1070008BC
:10009000E3070008E5070008E7070008E90700088C
:1000A000EB070008ED070008EF070008F10700085C
:1000B000F3070008F5070008F7070008F90700082C
:1000C000FB070008FD070008FF07000801080008FB
:1000D00003080008050800080708000809080008C8
:1000E0000B0800080D0800080F0800081108000898
:1000F0001308000815080008170800081908000868
:100100001B0800081D0800081F0800082108000837
:100110002308000825080008270800082908000807
:100120002B0800082D0800082F08000831080008D7
:1001300033080008350800083708000839080008A7
:100140003B0800083D0800083F0800084108000877
:100150004308000845080008470800084908000847
:100160004B0800084D0800084F0800085108000817
:100170005308000855080008570800080000000050
:08018000590800085B080008A3
:1001880086B000210591049102200390029101900C
:1001980043F60800C4F20200006800F00C00059065
:1001A8000598009030B1009804280DD000980828D0
:1001B80014D057E040F20401C1F2000142F20040BD
:1001C800C0F2F400086056E040F20401C1F20001F8
:1001D80047F64000C0F27D1008604CE043F604008A
:1001E800C4F202000168C1F380510291006800F076
:1001F8003F000190029880B1019947F64000C0F293
:100208007D10B0FBF1F043F60401C4F20201096865
:10021800C1F38811484304900FE0019942F200406D
:10022800C0F2F400B0FBF1F043F60401C4F202019D
:100238000968C1F388114843049043F60400C4F2E6
:100248000200006800F44031022000EBD130039036
:1002580004980399B0FBF1F040F20401C1F20001E7
:10026800086008E040F20401C1F2000142F20040D7
:10027800C0F2F400086043F60800C4F20200006807
:10028800C0B2010940F67800C0F60000405C059055
:10029800059A40F20401C1F200010868D0400860E4
:0402A80006B07047E5
:1002AC0043F63001C4F20201086840F00100086016
:1002BC00086840F01000086041F20001C4F202012D
:1002CC00086820F400700860086820F0800008605E
:1002DC000021C4F20201086820F00200086041F21B
:1002EC000C02C4F20202106840F4807010601068B6
:1002FC0040F0400010600C22C4F20202106840F082
:10030C0002001060086840F480500860086840F4EF
:10031C00804008601821C4F20201086840F04000D7
:0C032C000860086840F08000086070471E
:1003380040F20001C1F200010888013008807047CE
:1003480080B584B043F63001C4F20201086840F079
:100358000200086040F20042C4F20202106840F451
:100368002860106040F22041C4F20201086840F49D
:10037800A0400860086840F4A0200860086840F4BD
:10038800A000086040F20C41C4F20201086840F481
:1003980028600860106840F00100106040F20442D4
:1003A800C4F20202106820F001001060086840F0F2
:1003B8000200086040F21841C4F202010391086883
:1003C80040F00100086043F64402C4F202021068DB
:1003D80040F48050106043F20002C4F2010201921E
:1003E800106840F038001060106840F00400106099
:1003F800106840F440701060106820F400601060CD
:10040800106840F040001060086840F480300860D0
:10041800662000F0A9F90399086840F00100086017
:10042800086840F480300860992000F09DF903992D
:10043800086840F001000860086840F480300860EF
:10044800062000F091F90399086840F0010008605F
:10045800086840F4803008602020029000F084F999
:10046800029800F081F9FF2000F07EF9002000F0EA
:100478007BF90399086840F001000860086840F4B7
:1004880080300860052000F06FF9002000F06CF95A
:10049800C00700B1F9E740F21841C4F20201009127
:1004A800086840F001000860086840F4803008607F
:1004B800062000F059F90099086840F0010008602A
:0404C80004B080BD3F
:1004CC00034C206804348047FBE700F021F8FEE77A
:0404DC00AC08000860
:1004E00008490A68002AFED41EF0040F0CBFEFF37F
:1004F0000880EFF3098042F000420A60816902310E
:08050000816170472CED00E061
:100508004EF68851CEF20001086840F47000086089
:0205180070472A
:02051A00FEE7FA
:10051C0080B586B0002003900590FFF7EFFF00F048
:10052C00A9F8FFF7BDFEFFF709FF47F60020C0F65C
:10053C00032000F057F840F21841C4F20201049174
:10054C00086840F480300860022000F00BF920208D
:10055C0000F008F9FF2000F005F9039800F002F90B
:10056C00702000F0FFF80499086840F00100086062
:10057C00086840F480300860052000F0F3F8002093
:10058C0000F0F0F8C00700B1F9E740F21841C4F2EE
:10059C000201086840F00100086040F21841C4F202
:1005AC0002010291086840F480300860032000F0DA
:1005BC00D9F8202000F0D6F8FF2000F0D3F8002066
:1005CC00019000F0CFF8019800F0CCF8029940F2BD
:1005DC000202C1F200021070086840F001000860CD
:0205EC00DBE74B
:0205EE00FEE726
:1005F00080B582B0009000980138B0F1807F02D3BE
:100600000120019018E0009801384EF21401CEF25A
:10061000000108604FF0FF300F2100F011F84EF29A
:100620001801CEF20001002008604EF21002CEF256
:0E0630000002072111600190019802B080BD08
:02063E00FEE7D5
:1006400082B08DF8070000919DF90700002809D4B9
:10065000009800019DF907104EF20042CEF2000210
:1006600088540AE0009800019DF8071001F00F017E
:0E0670004EF61452CEF20002885402B07047CB
:02067E00FEE795
:1006800080B582B043F60001C4F20201086840F46C
:100690008030086043F60000C4F202000068800366
:1006A000002800D4F6E743F60001C4F2020108680E
:1006B00020F08070086043F60402C4F20202019246
:1006C000106840F480001060106820F03F00106057
:1006D000106840F004001060106847F6C07398433B
:1006E0001060106840F428501060106820F440300A
:1006F000106043F60802C4F202021068106010682D
:1007000040F4A0501060106840F400401060086889
:1007100040F08070086043F60000C4F202000068F8
:100720008001002800D4F6E743F60041C4F202013C
:10073000086840F203721043086043F60801C4F2EF
:100740000201086820F003000860086840F0020019
:10075000086043F60800C4F20200006800F00C00D4
:0E076000082800D0F5E7FFF70FFD02B080BDBE
:02076E00FEE7A4
:1007700081B08DF803009DF8030043F20C01C4F230
:100780000101086043F20800C4F20100006880071C
:10079000002800D4F6E743F20800C4F20100006824
:1007A000C00700B9F7E743F20C00C4F2010000688B
:0607B000C0B201B0704769
:0207B600FEE75C
:0207B800FEE75A
:0207BA00FEE758
:0207BC00FEE756
:0207BE00FEE754
:0207C000FEE752
:0207C200FEE750
:0207C400FEE74E
:0207C600FEE74C
:0207C800FEE74A
:0207CA00FEE748
:0207CC00FEE746
:0207CE00FEE744
:0207D000FEE742
:0207D200FEE740
:0207D400FEE73E
:0207D600FEE73C
:0207D800FEE73A
:0207DA00FEE738
:0207DC00FEE736
:0207DE00FEE734
:0207E000FEE732
:0207E200FEE730
:0207E400FEE72E
:0207E600FEE72C
:0207E800FEE72A
:0207EA00FEE728
:0207EC00FEE726
:0207EE00FEE724
:0207F000FEE722
:0207F200FEE720
:0207F400FEE71E
:0207F600FEE71C
:0207F800FEE71A
:0207FA00FEE718
:0207FC00FEE716
:0207FE00FEE714
:02080000FEE711
:02080200FEE70F
:02080400FEE70D
:02080600FEE70B
:02080800FEE709
:02080A00FEE707
:02080C00FEE705
:02080E00FEE703
:02081000FEE701
:02081200FEE7FF
:02081400FEE7FD
:02081600FEE7FB
:02081800FEE7F9
:02081A00FEE7F7
:02081C00FEE7F5
:02081E00FEE7F3
:02082000FEE7F1
:02082200FEE7EF
:02082400FEE7ED
:02082600FEE7EB
:02082800FEE7E9
:02082A00FEE7E7
:02082C00FEE7E5
:02082E00FEE7E3
:02083000FEE7E1
:02083200FEE7DF
:02083400FEE7DD
:02083600FEE7DB
:02083800FEE7D9
:02083A00FEE7D7
:02083C00FEE7D5
:02083E00FEE7D3
:02084000FEE7D1
:02084200FEE7CF
:02084400FEE7CD
:02084600FEE7CB
:02084800FEE7C9
:02084A00FEE7C7
:02084C00FEE7C5
:02084E00FEE7C3
:02085000FEE7C1
:02085200FEE7BF
:02085400FEE7BD
:02085600FEE7BB
:02085800FEE7B9
:02085A00FEE7B7
:10085C00FFF754FE4EF68850CEF20000016851F4BA
:08086C0070010160FFF72CFE92
:0408740089010008EE
:100878000000000000000000010203040607080948
:1008880000B506480649884205D00268043003B41A
:10089800904703BCF7E708BC184700007408000835
:0408A80078080008C4
:1008AC00D50800080000001003000000E70800084D
:1008BC0004000010D008000804000000890800089B
:0408CC00D704000845
:0408D0000024F4000C
:1008D400206861680834002200E042540139FCD5E4
:0208E40070475B
:1008E60020686168A2680C3401E08B5C8354013A8D
:0408F600FBD5704777
:040000050800085D8A
:00000001FF
