:020000040800F2
:10000000000002204119000807120008690B0008CF
:10001000331200084F120008B71200080000000059
:10002000000000000000000000000000C7120008EF
:10003000FF1200080000000087130008CD09000827
:10004000DF1300083F140008DB1400080715000840
:100050002B150008531500086315000853160008F7
:10006000AF1700082F1800085B1800085D1800087B
:100070005F18000861180008631800086518000878
:100080006718000869180008F90A00086B180008CA
:100090006D1800086F180008711800087318000820
:1000A0007518000877180008791800087B180008F0
:1000B000DD0900087D1800087F1800088118000875
:1000C0008318000885180008871800088918000898
:1000D0008B1800088D1800088F1800089118000868
:1000E0009318000895180008971800089918000838
:1000F0009B1800089D1800089F180008A118000808
:10010000A3180008A5180008A7180008A9180008D7
:10011000AB180008AD180008AF180008B1180008A7
:10012000B3180008B5180008B7180008B918000877
:10013000BB180008BD180008BF180008C118000847
:10014000C3180008C5180008C7180008C918000817
:10015000CB180008CD180008CF180008D1180008E7
:10016000D3180008D5180008D7180008D9180008B7
:10017000DB180008DD180008DF1800080000000088
:08018000E1180008E318000873
:1001880080B59CB01B901A911B9809901A99C96860
:1001980041611A99096881601A99896801611A99F7
:1001A8004968C1601A9909698161D0ED020A90ED28
:1001B800041A90ED050A90ED062A15A80790DFEDC0
:1001C8003E1ACDED061A00F037FB099890ED020AA9
:1001D8008DED010A90ED040A8DED020A90ED050AF5
:1001E8008DED000A806900F0C1FF41EC100B9FED16
:1001F8002E1B53EC112B51EC100B00F097FE41EC29
:10020800100B51EC100B00F0CBFF9DED000ADDED5B
:10021800010A9DED021ADDED061A02EE100A10A879
:10022800089000F009FB099890ED020A8DED040A88
:1002380090ED040A8DED050A90ED050A8DED030A8F
:10024800806900F093FF41EC100B9FED191B53ECF4
:10025800112B51EC100B00F069FE41EC100B51EC26
:10026800100B00F09DFF9DED030ADDED040A9DEDE6
:10027800051ADDED061A02EE100A0BA80A9000F026
:10028800DBFA09980799283000F008FB08990998C3
:10029800783000F003FB09980A99C83000F0FEFA9C
:1002A8001CB080BD00BF00BF65732D3852C100C0AF
:0C02B80065732D3852C110C0000000001A
:1002C40086B00021059104910220039002910190CF
:1002D40043F60800C4F20200006800F00C00059028
:1002E4000598009030B1009804280DD00098082893
:1002F40014D057E040F2A421C1F2000142F20040C0
:10030400C0F2F400086056E040F2A421C1F20001FA
:1003140047F64000C0F27D1008604CE043F604004C
:10032400C4F202000168C1F380510291006800F038
:100334003F000190029880B1019947F64000C0F255
:100344007D10B0FBF1F043F60401C4F20201096828
:10035400C1F38811484304900FE0019942F2004030
:10036400C0F2F400B0FBF1F043F60401C4F2020160
:100374000968C1F388114843049043F60400C4F2A9
:100384000200006800F44031022000EBD1300390F9
:1003940004980399B0FBF1F040F2A421C1F20001EA
:1003A400086008E040F2A421C1F2000142F20040DA
:1003B400C0F2F400086043F60800C4F202000068CA
:1003C400C0B2010941F69810C0F60000405C0590E7
:1003D400059A40F2A421C1F200010868D0400860E7
:0403E40006B07047A8
:1003E80082B0019000910199009840684860009897
:1003F800006808600098806888600098C068C860D5
:0404080002B0704787
:10040C0081B00090009900204861086101B07047EC
:10041C0080B586B005908DED040ACDED030A8DED07
:10042C00021ACDED011A059800909DED040ADDED40
:10043C00030A9DED021ADDED011A01F049F800984E
:04044C0006B080BDB9
:1004500080B58EB00D900C910D9801900C99C968E3
:1004600041610C99096881600C99896801610C9956
:100470004968C16090ED021A90ED040AD0ED050ABA
:1004800020EE012AB7EE000A80EE020AF1EE411AD0
:1004900008A8009000F0B8FE0198D0ED020A90ED97
:1004A000041A90ED050A03A80290DFED091A9FEDEA
:1004B000092A00F0C5F8019800994430FFF794FF2D
:1004C00001980299183000F0EFF80EB080BD00BF1F
:0804D00000000000000048429A
:1004D80080B584B00390039802901830009000F023
:1004E8000BFF009802994431019101F02FF801980F
:1004F80000F0AAFE019800F0DBFE029840F2842189
:10050800C1F2000181ED000A91ED000A90ED031A95
:0C05180030EE010A80ED010A04B080BD45
:10052400000000000000000099090008D904000838
:1005340080B586B005908DED040ACDED030A8DEDEE
:10054400021ACDED011A059800909DED040ADDED27
:10055400030A9DED021ADDED011A00F0BDFF0098BB
:0405640006B080BDA0
:1005680080B582B001900198009000F0C9FF009812
:1005780040F23061C0F60001083140F8181B00F065
:08058800EBF8009802B080BD01
:1005900080B588B007900691079800900699C968C1
:1005A0004161069909688160069989680161069927
:1005B0004968C160D0ED020A90ED041A90ED050A79
:1005C00002A80190DFED051A00F0B0F8009801993B
:1005D000183000F0D9FE08B080BD00BF0000000058
:1005E00080B584B00390039801901830009000F01B
:1005F000CBF80098019991ED020A8DED020A00F006
:10060000A9FF0198B0EE401A9DED020A30EE410AB2
:1006100040F29821C1F2000181ED000A91ED000A3B
:1006200090ED031A30EE010A80ED010A04B080BD9E
:10063000000000000000000099090008E105000822
:1006400080B588B007908DED060ACDED050A8DEDD9
:10065000041ACDED031A8DED022A079801909DED45
:10066000060ADDED050A9DED041ADDED031A00F022
:0C06700035FF01980299016108B080BDBF
:10067C0080B582B001900198009000F03FFF009887
:10068C0040F21C71C0F6000108310160002181614B
:0C069C00C16101624162816202B080BD58
:1006A80082B00190009101990098006888600098D4
:1006B8004068C8600098806808610098C068486110
:1006C80000980069886191ED040A91ED051A20EE01
:1006D800011AB7EE000A80EE010ABDEEC00A81EDEC
:1006E800080A91ED060A91ED081A9FED092A80EE95
:1006F800020AB8EEC11A20EE010ABDEEC00A81ED69
:10070800090A086A4A6A801A886202B0704700BFFC
:040718000000C842D3
:10071C000000000000000000990900080113000807
:10072C0080B586B005908DED040ACDED030A8DEDF4
:10073C00021ACDED011A059800909DED040ADDED2D
:10074C00030A9DED021ADDED011A00F0C1FE0098BE
:04075C0006B080BDA6
:1007600080B582B001900198009000F0CDFE009815
:1007700040F63001C0F60001083140F8181B00F0C7
:0807800059FD009802B080BD94
:1007880080B584B003900398019090ED040A90ED31
:10079800051A20EE011AB7EE000A80EE010ABDEE36
:1007A800C00A8DED020A0298132806DC40F2742173
:1007B800C1F20001002008600FE001981830009095
:1007C800B7EE000A00F040FD009800F071FD40F21D
:1007D8007420C1F2000080ED000A019840F27421F3
:1007E800C1F2000191ED000A90ED021AB4EE410A3F
:1007F800F1EE10FA09DB01981830FFF703FE40F21A
:100808007421C1F2000100200860019840F27421AF
:10081800C1F2000191ED000A90ED031A30EE010AD1
:0808280080ED010A04B080BD5F
:100830000000000000000000990900088907000876
:1008400080B588B007908DED060ACDED050A8DEDD7
:10085000041ACDED031A8DED022A079801909DED43
:10086000060ADDED050A9DED041ADDED031A00F020
:0C08700035FE01980299016108B080BDBE
:10087C0080B582B001900198009000F03FFE009886
:10088C0040F6FC01C0F60001083140F81C1BFFF7D4
:08089C0061FF009802B080BD6D
:1008A40080B588B007900691079800900699C968AA
:1008B4004161069909688160069989680161069910
:1008C4004968C16006990969816190ED041A90ED47
:1008D400050A02A80190DFED060ADFED061AFFF70C
:1008E40023FF009801991C3000F04CFD08B080BD36
:0808F400DB0FC9400000000009
:1008FC00000000000000000099090008E113000846
:10090C0080B588B007908DED060ACDED050A8DED0A
:10091C00041ACDED031A8DED022A079801909DED76
:10092C00060ADDED050A9DED041ADDED031A00F053
:0C093C00CFFD01980299016108B080BD58
:1009480080B582B001900198009000F0D9FD009820
:1009580040F68811C0F60001083101602830FFF721
:1009680089FF00987830FFF785FF0098C830FFF7B7
:1009780081FF00980021C1610162416202B080BD1F
:100988000000000000000000990900084114000858
:1009980082B00190009101990098006888600098E1
:1009A8004068C8600098806808610098C06848611D
:0409B80002B07047D2
:1009BC000000000000000000990900082D15000837
:1009CC0040F29C21C1F20001088801300880704778
:1009DC0080B582B01020C4F20000006880070028A7
:1009EC007ED540F29E20C1F20000018801310180C9
:1009FC000088B0F57A7F1BD11420C4F20200006885
:100A0C004006002807D51821C4F20201086840F4FA
:100A1C008000086006E01821C4F20201086840F06A
:100A2C004000086040F29E21C1F2000100200880C5
:100A3C0040F29C21C1F2000108880130088040F28C
:100A4C004820C1F2000000F055FC40F21420C1F225
:100A5C000000FFF793FE40F2C810C1F20000FFF750
:100A6C00B9FD40F21810C1F200000190FFF72EFD05
:100A7C00019800F069FD0198B2EE041A80EE010AAB
:100A8C009FED181A20EE010ABCEEC00A47F208418D
:100A9C00C4F2000181ED000A00F056FDB1EE041A1B
:100AAC0080EE010A9FED101A20EE010ABCEEC00A7E
:100ABC003420C4F2010080ED000A40F27810C1F23B
:100ACC00000000F087FC40F20000C1F2000000F0D2
:100ADC00B1FC1021C4F20001086820F0020008608B
:0C0AEC0002B080BD00F07F4500C0DA467B
:100AF80080B542F24C00C4F20100006846F660512D
:100B08004843010B3420C4F201000160006840F240
:100B1800A021C1F200010880122000F001F880BD78
:100B280081B08DF803009DF9030000280CD49DF9CD
:100B3800031001F01F02012090404A094EF2802163
:0C0B4800CEF2000141F8220001B070471D
:100B5400034C206804348047FBE700F0D3F8FEE739
:040B6400CC190008A0
:100B680008490A68002AFED41EF0040F0CBFEFF3F0
:100B78000880EFF3098042F000420A60816902317F
:080B8800816170472CED00E0D3
:100B900081B08DF803009DF9030000280CD49DF965
:100BA000031001F01F02012090404A094EF200118B
:0C0BB000CEF2000141F8220001B07047B5
:100BBC0043F63001C4F20201086840F001000860FD
:100BCC00086840F01000086041F20001C4F2020114
:100BDC00086820F400700860086820F08000086045
:100BEC000021C4F20201086820F00200086041F202
:100BFC000C02C4F20202106840F48070106010689D
:100C0C0040F0400010600C22C4F20202106840F068
:100C1C0002001060086840F4805008601822C4F28A
:100C2C000202106840F040001060086840F4004078
:100C3C0008600821C4F20201086840F40040086012
:100C4C002021C4F20201086840F08050086070470F
:100C5C0043F64001C4F20201086840F000500860FD
:100C6C0043F63001C4F20201086840F0010008604C
:100C7C000021C4F20201086840F44070086047F299
:100C8C000041C4F20001086840F00100086047F21E
:0C0C9C000841C4F200010020086070470D
:100CA80080B540F24820C1F20000FFF7E3FC80BDA8
:100CB80080B540F21420C1F20000FFF74DFD80BD61
:100CC80080B540F2C810C1F20000FFF749FC80BDB2
:100CD80080B540F21810C1F2000000F0F1FA80BDB2
:100CE80080B540F27810C1F20000FFF7C3FD80BD67
:100CF80080B540F20000C1F20000FFF721FE80BD80
:100D080080B5A2B00020219000F070FA00F026FC17
:100D1800FFF750FF00F09AFC00F046FDFFF79AFF3E
:100D28001CA801909FED360A8DED050AF1EE041A14
:100D3800CDED071A9FED332A8DED062AF0EE610AF4
:100D4800B0EE421AFFF778FC019940F24820C1F250
:100D58000000FFF7A5FC9DED050A9DED061ADDEDE7
:100D6800070A18A80290DFED281ACDED081AFFF738
:100D7800DDFB029940F2C810C1F20000FFF704FC45
:100D88009DED050ADDED070A14A80390B6EE001ADA
:100D9800F0EE001AFFF73EFB039940F21810C1F27B
:100DA8000000FFF751FB9DED050A9DED061ADDEDEC
:100DB800071A9DED082A0FA80490F0EE610AFFF7C4
:100DC8003BFD049940F27810C1F20000FFF766FD80
:100DD8009DED050A9DED061ADDED071A9DED082A21
:100DE8000AA80990F0EE610AFFF78CFD099940F214
:100DF8000000C1F20000FFF7C3F900F015FDFEE79F
:0C0E08006F12833A000048420000000016
:100E140080B5FFF747FFFFF74DFFFFF753FFFFF7DD
:0C0E240059FFFFF75FFFFFF765FF80BD7F
:100E300010EE100AC10D4FF0FF3252FA81F1FE2977
:100E40000FD2B5EE400AF1EE10FA52BF9FED0A1A2A
:100E5000B1EE400A9FED071AF0EE400A002000F0C4
:100E60000DB8C0F3C750FE2888BF9FED010A704738
:0C0E70000000C07F0000008000000000B7
:100E7C0010B52DED048BB0EE418AB0EE409A0028EF
:100E8C009FED1F0A9FED1F1A30EE800A80EE010ABB
:100E9C00BDEEC00AB8EEC01ABEEE002A18BF31EE85
:100EAC00021A9FED192A01EE029A9FED182A10EEF4
:100EBC00104A01EE029A9FED160AB0EEC91AB4EE72
:100ECC00401AF1EE10FA0ADB29EE090A40F62070FE
:100EDC00C0F60000052100F039FD09EE009AE0078C
:100EEC0018BFB1EE488A18EE100A19EE101A00F06D
:100EFC000040484000EE100ABDEC048B10BD00BF52
:100F0C00DB0FC93FDB0F4940001049C07A7715371A
:040F1C00FFE6DB2EE3
:100F2000ABAA2ABE9788083C281050B993293936B5
:040F3000D4AAD5B2B8
:100F340030B591EA030F00F18280841A71EB030C3F
:100F440005D2121953EB0C03001B71EB0C0140F298
:100F5400000CCFF6E07C1CEA430F52D0BCEB410FEF
:100F64005FD90C0DA4EB135E5FF0010C6CF31F5101
:100F74006CF31F53DEF1200C2AD303FA0CF540194D
:100F840041F1000122FA0EF5401923FA0EF56941E8
:100F940012FA0CF2CD0208D349085FEA30005FEA86
:100FA400320228BF42F001020134013C5FEA500CD6
:100FB40072F1004250F1000051EB04514FF4001360
:100FC40013EB410F38BF30BD6FF31301002030BD68
:100FD400BEF1200EBEF1200F1ED223FA0EF54019E9
:100FE40041F10001CEF1200C124218BF012203FA94
:100FF4000CF52A43CEE711EA5C0F04BF0020002160
:1010040030BD1CEA410F04BF01F00041002030BD97
:1010140001F00041002030BD21F4801101EB0451A6
:1010240030BD004218BF41F00101BCEB410F08BFC5
:1010340030BD4FF0FE4141F47801002030BD83F013
:101044000043841A71EB030E07D28EF0004E001B8E
:1010540071EB0E01121953EB0E0340F2000CCFF6A4
:10106400E07C1CEA430FC6D0BCEB410F72D90C0DD7
:10107400A4EB135EC90241EA5051C00241F00041A1
:10108400DB0243EA5253D20243F00043DEF1200C68
:1010940041D312FA0CF522FA0EF203FA0CF542EAE5
:1010A400050218BF42F0010223FA0EF3801A994197
:1010B400E30AC4F30A0411F0404F03D418D0013CEE
:1010C40040004941013C23D44205C00A40EA415052
:1010D400C90A51EAC3715FEA500C72F1004250F13F
:1010E400000051EB045130BD01002FD00020203C02
:1010F4000029F9D0B1FA81FCDCF1200E11FA0CF1CF
:1011040030FA0EF510FA0CF02943A4EB0C04D9E7DD
:101114000020D90730BDAEF1200EBEF1200F0DD254
:10112400CEF1200C03FA0CF533FA0EF32A4318BF60
:1011340043F00103C01A61F10001B9E721F0004155
:10114400C00A40EA4150C90A01EB045130BD0020F5
:10115400002130BD004218BF41F00101BCEB410F3A
:101164007FF467AFBCEB430F3FF463AF30BD00BF08
:10117400C0F3C75191B142004FEA40704FEAD20127
:101184004FEA310101F16051B2F17F4F38BF70472E
:1011940001F1605118BF41F40021704710F0004183
:0411A4000020704770
:1011A80001F000428B1AA3F16051B1F5801F0ADBF0
:1011B800B1F17F6F09D242EAC102C10071F1004169
:1011C80042EB507070471046704701285B4113F599
:1011D800001F02D842F0FF407047C90041EA507032
:0C11E800104340F4800040F0804070474D
:1011F4004EF68851CEF20001086840F47000086091
:02120400704731
:02120600FEE701
:1012080085B004908DED030ACDED020A8DED011A2B
:10121800CDED001A04980299416003990160019983
:0A12280081600099C16005B07047B5
:02123200FEE7D5
:1012340081B0009000980021016041608160C1602C
:0A12440001614161816101B0704752
:02124E00FEE7B9
:1012500080B584B003908DED020A03980190029945
:10126000816190ED003A90ED010A90ED051A90ED44
:10127000062A80EE030A20EE020A30EE010A40F24E
:101280009421C1F2000181ED000A0A68026191ED2A
:10129000000AD0ED020A00F03CFB019880ED050A3F
:1012A000D0ED030A90ED050A00F01CFB019880EDDB
:0612B000050A04B080BD38
:0212B600FEE751
:0E12B80081B00090009890ED050A01B07047DB
:0212C600FEE741
:1012C80080B584B003900398029000F019F9029851
:1012D80040F22451C0F6000101F10802014641F82C
:1012E800442B01911830FFF7C5F90198FFF79EFFCD
:0612F800029804B080BD65
:0212FE00FEE709
:1013000082B0019001980090006A012806DC40F24A
:101310007C21C1F20001002008601BE00098006AF7
:1013200002280CDB0099C869496A884207DA0098EC
:10133000806840F27C21C1F2000108600AE0009858
:1013400090ED020AB1EE400A40F27C20C1F20000AA
:1013500080ED000A009940F27C20C1F2000090ED7F
:10136000000A91ED031A30EE010A81ED010AC86905
:101370000130C861C869096A884202D10099002019
:06138000C86102B07047D5
:02138600FEE780
:1013880080B588B007900691079800900699C968BB
:101398004161069909688160069989680161069921
:1013A8004968C16090ED021A90ED040AD0ED050A73
:1013B80020EE012AB7EE000A80EE020AF1EE411A89
:1013C80002A80190FFF71CFF009801991830FFF759
:0613D80007F808B080BD1B
:0213DE00FEE728
:1013E00080B584B00390039801901C300090FFF703
:1013F000CBF90098019991ED020A8DED020A00F0F7
:10140000A9F8019890ED061A30EE010AFFF710FDD9
:101410000198B0EE401A9DED020A20EE010A40F25A
:101420007821C1F2000181ED000A91ED000A90EDF2
:0E143000031A30EE010A80ED010A04B080BDFF
:02143E00FEE7C7
:1014400080B588B007900798069028300190FFF784
:10145000C7FF069878300290FFF7C2FF0698C830A1
:101460000390FFF7BDFF019800F074F8029840F276
:101470009021C1F20001049181ED000A00F06AF8A8
:10148000039840F28C21C1F20001059181ED000A20
:1014900000F060F8049B059A069840F28821C1F29A
:1014A000000181ED000A93ED000A90ED031A30EE81
:1014B000010A80ED070A92ED000A90ED031A30EE62
:1014C000010A80ED080A91ED000A90ED031A30EE52
:0A14D000010A80ED090A08B080BD92
:0214DA00FEE72B
:1014DC0085B004908DED030ACDED020A8DED011A55
:1014EC00CDED001A04980399C1600299016001992D
:0A14FC0081600099416005B070475F
:02150600FEE7FE
:1015080081B00090009840F6BC11C0F60001083187
:101518000160002141608160C1600161416101B0E9
:0215280070470A
:02152A00FEE7DA
:10152C0081B00090009940F28020C1F2000090ED53
:10153C00000AB7EE001A30EE010A80ED000A0068CE
:06154C00486001B0704789
:02155200FEE7B2
:0E15540081B00090009890ED010A01B0704740
:02156200FEE7A2
:1015640080B582B043F60001C4F20201086840F479
:101574008030086043F60000C4F202000068800373
:10158400002800D4F6E743F60001C4F2020108681B
:1015940020F08070086043F60402C4F20202019253
:1015A400106840F480001060106820F03F00106064
:1015B400106840F004001060106847F6C073984348
:1015C4001060106840F428501060106820F4403017
:1015D400106043F60802C4F202021068106010683A
:1015E40040F4A0501060106840F400401060086897
:1015F40040F08070086043F60000C4F20200006806
:101604008001002800D4F6E743F60041C4F2020149
:10161400086840F203721043086043F60801C4F2FC
:101624000201086820F003000860086840F0020026
:10163400086043F60800C4F20200006800F00C00E1
:0E164400082800D0F5E7FEF73BFE02B080BD9F
:02165200FEE7B1
:1016540043F64401C4F20201086840F00100086046
:1016640043F63001C4F20201086840F0100008603B
:1016740041F20001C4F20201086840F4003008603D
:10168400086840F40020086041F20801C4F2020135
:10169400086840F400300860086840F400200860DE
:1016A40041F22401C4F20201086840F0010008601C
:1016B400086840F0100008602821C4F201010220EB
:1016C40008600021C4F20101086840F0600008606D
:1016D4002C21C4F2010146F65F5008603421C4F2A3
:1016E400010143F2B06008603821C4F20101002016
:1016F40008603C21C4F2010108600821C4F2010120
:10170400086840F010000860086840F004000860B1
:101714001822C4F20102106840F0600010601068E2
:1017240020F003001060106840F0080010602021D1
:10173400C4F20101086840F001000860086840F044
:1017440004000860106840F4C0401060106820F481
:1017540040701060106840F400601060086840F049
:1017640010000860086840F0400008601C22C4F2C1
:101774000102106840F060001060106820F003005F
:101784001060106840F008001060086840F4807031
:101794000860086840F4806008604421C4F20101D4
:0A17A400086840F400400860704738
:0217AE00FEE754
:1017B00080B543F64001C4F20201086840F0010020
:1017C00008602821C4F20001002008604FF0804129
:1017D000086820F060000860086840F010000860A9
:1017E0002C21C4F2000144F61F00C0F20100086081
:1017F0003821C4F200014AF2104008600421C4F20A
:101800000001086840F0200008600C21C4F20001CB
:10181000086840F0040008601021C4F20001086864
:0E18200020F0040008601C20FFF7B2F980BD24
:02182E00FEE7D3
:101830000021C4F20101086840F0010008604FF087
:101840008041086840F0010008601421C4F20001E2
:0A185000086840F0010008607047CE
:02185A00FEE7A7
:02185C00FEE7A5
:02185E00FEE7A3
:02186000FEE7A1
:02186200FEE79F
:02186400FEE79D
:02186600FEE79B
:02186800FEE799
:02186A00FEE797
:02186C00FEE795
:02186E00FEE793
:02187000FEE791
:02187200FEE78F
:02187400FEE78D
:02187600FEE78B
:02187800FEE789
:02187A00FEE787
:02187C00FEE785
:02187E00FEE783
:02188000FEE781
:02188200FEE77F
:02188400FEE77D
:02188600FEE77B
:02188800FEE779
:02188A00FEE777
:02188C00FEE775
:02188E00FEE773
:02189000FEE771
:02189200FEE76F
:02189400FEE76D
:02189600FEE76B
:02189800FEE769
:02189A00FEE767
:02189C00FEE765
:02189E00FEE763
:0218A000FEE761
:0218A200FEE75F
:0218A400FEE75D
:0218A600FEE75B
:0218A800FEE759
:0218AA00FEE757
:0218AC00FEE755
:0218AE00FEE753
:0218B000FEE751
:0218B200FEE74F
:0218B400FEE74D
:0218B600FEE74B
:0218B800FEE749
:0218BA00FEE747
:0218BC00FEE745
:0218BE00FEE743
:0218C000FEE741
:0218C200FEE73F
:0218C400FEE73D
:0218C600FEE73B
:0218C800FEE739
:0218CA00FEE737
:0218CC00FEE735
:0218CE00FEE733
:0218D000FEE731
:0218D200FEE72F
:0218D400FEE72D
:0218D600FEE72B
:0218D800FEE729
:0218DA00FEE727
:0218DC00FEE725
:0218DE00FEE723
:0218E000FEE721
:0218E200FEE71F
:1018E400B4EE400AF1EE10FA0BD6F4EE600AF1EE13
:1018F40010FA09D6B4EE600AF1EE10FAC8BFF0EEA1
:0E190400400AB0EE600A7047F0EE400AF9E7C4
:10191200B4EE400AF1EE10FA0BD6F4EE600AF1EEE4
:1019220010FA09D6B4EE600AF1EE10FA48BFF0EEF2
:0E193200400AB0EE600A7047F0EE400AF9E796
:10194000FFF758FC4EF68850CEF20000016851F4C3
:0819500070010160FFF7FEF8D1
:1019580000EB8100032910ED021A10ED012A02EEB6
:10196800001A0CDB0C380139013990ED002A01EE20
:10197800002A04380139B0EE421AF6D801E0B0EE78
:08198800412A22EE000A70471B
:04199000C502000884
:04199400150E000824
:101998000000000000000000010203040607080917
:1019A80000B506480649884205D00268043003B4E9
:1019B800904703BCF7E708BC1847000090190008D7
:0419C8009819000862
:1019CC00F519000800000010A2020000071A000818
:1019DC00A4020010F019000804000000A919000866
:0419EC005F0B000885
:0419F0000024F400DB
:1019F400206861680834002200E042540139FCD5B3
:021A0400704729
:101A060020686168A2680C3401E08B5C8354013A5B
:041A1600FBD5704745
:040000050800194195
:00000001FF
