:020000040800F2
:1000000000000220290900081F040008E503000879
:100010004F0400089F040008DF04000800000000EF
:10002000000000000000000000000000CF050008F4
:100030002B070008000000001F0800082903000823
:100040005F0800088B0800088D0800088F0800086A
:100050009108000893080008950800089708000810
:10006000990800089B0800089D0800089F080008E0
:10007000A1080008A3080008A5080008A7080008B0
:10008000A9080008AB080008AD080008AF08000880
:10009000B1080008B3080008B5080008B708000850
:1000A000B9080008BB080008BD080008BF08000820
:1000B00039030008C1080008C3080008C508000883
:1000C000C7080008C9080008CB080008CD080008C8
:1000D000CF080008D1080008D3080008D508000898
:1000E000D7080008D9080008DB080008DD08000868
:1000F000DF080008E1080008E3080008E508000838
:10010000E7080008E9080008EB080008ED08000807
:10011000EF080008F1080008F3080008F5080008D7
:10012000F7080008F9080008FB080008FD080008A7
:10013000FF08000801090008030900080509000874
:1001400007090008090900080B0900080D09000843
:100150000F09000811090008130900081509000813
:1001600017090008190900081B0900081D090008E3
:100170001F090008210900082309000800000000E9
:08018000250900082709000809
:1001880086B000210591049102200390029101900C
:1001980043F60800C4F20200006800F00C00059065
:1001A8000598009030B1009804280DD000980828D0
:1001B80014D057E040F20401C1F2000142F20040BD
:1001C800C0F2F400086056E040F20401C1F20001F8
:1001D80047F64000C0F27D1008604CE043F604008A
:1001E800C4F202000168C1F380510291006800F076
:1001F8003F000190029880B1019947F64000C0F293
:100208007D10B0FBF1F043F60401C4F20201096865
:10021800C1F38811484304900FE0019942F200406D
:10022800C0F2F400B0FBF1F043F60401C4F202019D
:100238000968C1F388114843049043F60400C4F2E6
:100248000200006800F44031022000EBD130039036
:1002580004980399B0FBF1F040F20401C1F20001E7
:10026800086008E040F20401C1F2000142F20040D7
:10027800C0F2F400086043F60800C4F20200006807
:10028800C0B2010940F64410C0F60000405C059079
:10029800059A40F20401C1F200010868D0400860E4
:0402A80006B07047E5
:1002AC0043F63001C4F20201086840F00100086016
:1002BC00086840F01000086041F20001C4F202012D
:1002CC00086820F400700860086820F0800008605E
:1002DC000021C4F20201086820F00200086041F21B
:1002EC000C02C4F20202106840F4807010601068B6
:1002FC0040F0400010600C22C4F20202106840F082
:10030C0002001060086840F4805008601821C4F2A4
:0C031C000201086840F0400008607047D3
:1003280040F20001C1F200010888013008807047DE
:100338001020C4F200000068800700282DD540F284
:100348000200C1F200000188013101800088B0F587
:100358007A7F1BD11420C4F20200006840060028EE
:1003680007D51821C4F20201086840F4800008602B
:1003780006E01821C4F20201086840F04000086055
:1003880040F20201C1F20001002008801021C4F2ED
:0C0398000001086820F0020008607047B7
:1003A40081B08DF803009DF9030000280CD49DF959
:1003B400031001F01F02012090404A094EF200117F
:0C03C400CEF2000141F8220001B07047A9
:1003D000034C206804348047FBE700F021F8FEE777
:0403E0007809000890
:1003E40008490A68002AFED41EF0040F0CBFEFF37C
:1003F4000880EFF3098042F000420A60816902310B
:08040400816170472CED00E05E
:10040C004EF68851CEF20001086840F47000086086
:02041C00704727
:02041E00FEE7F7
:1004200080B582B000200190FFF7F0FF00F058F88F
:10043000FFF73CFF00F0CCF800F078F949F24000FB
:0E044000C0F2020000F004F800F00AFAFEE735
:02044E00FEE7C7
:1004500080B582B0009000980138B0F1807F02D35F
:100460000120019018E0009801384EF21401CEF2FC
:10047000000108604FF0FF300F2100F011F84EF23C
:100480001801CEF20001002008604EF21002CEF2F8
:0E0490000002072111600190019802B080BDAA
:02049E00FEE777
:1004A00082B08DF8070000919DF90700002809D45B
:1004B000009800019DF907104EF20042CEF20002B2
:1004C00088540AE0009800019DF8071001F00F0120
:0E04D0004EF61452CEF20002885402B070476D
:0204DE00FEE737
:1004E00080B582B043F60001C4F20201086840F40E
:1004F0008030086043F60000C4F202000068800308
:10050000002800D4F6E743F60001C4F202010868AF
:1005100020F08070086043F60402C4F202020192E7
:10052000106840F480001060106820F03F001060F8
:10053000106840F004001060106847F6C0739843DC
:100540001060106840F428501060106820F44030AB
:10055000106043F60802C4F20202106810601068CE
:1005600040F4A0501060106840F40040106008682B
:1005700040F08070086043F60000C4F2020000689A
:100580008001002800D4F6E743F60041C4F20201DE
:10059000086840F203721043086043F60801C4F291
:1005A0000201086820F003000860086840F00200BB
:1005B000086043F60800C4F20200006800F00C0076
:0E05C000082800D0F5E7FFF7DFFD02B080BD90
:0205CE00FEE746
:1005D00043F64401C4F20201086840F001000860DB
:1005E00043F63001C4F20201086840F010000860D0
:1005F00041F20001C4F20201086840F400300860D2
:10060000086840F40020086041F20801C4F20201C9
:10061000086840F400300860086840F40020086072
:1006200041F22401C4F20201086840F001000860B0
:10063000086840F0100008602821C4F2010102207F
:1006400008600021C4F20101086840F06000086001
:100650002C21C4F2010146F65F5008603421C4F237
:10066000010143F2B06008603821C4F201010020AA
:1006700008603C21C4F2010108600821C4F20101B4
:10068000086840F010000860086840F00400086046
:100690001822C4F20102106840F060001060106877
:1006A00020F003001060106840F008001060202166
:1006B000C4F20101086840F001000860086840F0D9
:1006C00004000860106840F4C0401060106820F416
:1006D00040701060106840F400601060086840F0DE
:1006E00010000860086840F0400008601C22C4F256
:1006F0000102106840F060001060106820F00300F4
:100700001060106840F008001060086840F48070C5
:100710000860086840F4806008604421C4F2010168
:0A072000086840F4004008607047CC
:02072A00FEE7E8
:10072C0080B582B043F64001C4F20201086840F083
:10073C000100086043F63001C4F20201086840F081
:10074C00010008600021C4F20201086840F00800B2
:10075C0008600821C4F20201086840F00800086033
:10076C002021C4F20201086840F010000860282122
:10077C00C4F20001002008604FF08041086820F0AE
:10078C0060000860086840F0100008602C21C4F27A
:10079C00000144F61F00C0F2010008603821C4F2C9
:1007AC0000014AF2104008600421C4F200010868FC
:1007BC0040F0200008601821C4F20001086840F4E1
:1007CC00C0400860086820F440700860086840F475
:1007DC00006008602021C4F20001086840F010009D
:1007EC0008600C21C4F20001086840F004000860A5
:1007FC001021C4F20001086820F0040008601C20DD
:10080C000190012100F006F80198FFF7C5FD02B038
:02081C0080BD9D
:02081E00FEE7F3
:1008200082B08DF8070000919DF90700002809D4D7
:10083000009800019DF907104EF20042CEF200022E
:1008400088540AE0009800019DF8071001F00F019C
:0E0850004EF61452CEF20002885402B07047E9
:02085E00FEE7B3
:100860000021C4F20101086840F0010008604FF067
:100870008041086840F0010008601421C4F20001C2
:0A088000086840F0010008607047AE
:02088A00FEE787
:02088C00FEE785
:02088E00FEE783
:02089000FEE781
:02089200FEE77F
:02089400FEE77D
:02089600FEE77B
:02089800FEE779
:02089A00FEE777
:02089C00FEE775
:02089E00FEE773
:0208A000FEE771
:0208A200FEE76F
:0208A400FEE76D
:0208A600FEE76B
:0208A800FEE769
:0208AA00FEE767
:0208AC00FEE765
:0208AE00FEE763
:0208B000FEE761
:0208B200FEE75F
:0208B400FEE75D
:0208B600FEE75B
:0208B800FEE759
:0208BA00FEE757
:0208BC00FEE755
:0208BE00FEE753
:0208C000FEE751
:0208C200FEE74F
:0208C400FEE74D
:0208C600FEE74B
:0208C800FEE749
:0208CA00FEE747
:0208CC00FEE745
:0208CE00FEE743
:0208D000FEE741
:0208D200FEE73F
:0208D400FEE73D
:0208D600FEE73B
:0208D800FEE739
:0208DA00FEE737
:0208DC00FEE735
:0208DE00FEE733
:0208E000FEE731
:0208E200FEE72F
:0208E400FEE72D
:0208E600FEE72B
:0208E800FEE729
:0208EA00FEE727
:0208EC00FEE725
:0208EE00FEE723
:0208F000FEE721
:0208F200FEE71F
:0208F400FEE71D
:0208F600FEE71B
:0208F800FEE719
:0208FA00FEE717
:0208FC00FEE715
:0208FE00FEE713
:02090000FEE710
:02090200FEE70E
:02090400FEE70C
:02090600FEE70A
:02090800FEE708
:02090A00FEE706
:02090C00FEE704
:02090E00FEE702
:02091000FEE700
:02091200FEE7FE
:02091400FEE7FC
:02091600FEE7FA
:02091800FEE7F8
:02091A00FEE7F6
:02091C00FEE7F4
:02091E00FEE7F2
:02092000FEE7F0
:02092200FEE7EE
:02092400FEE7EC
:02092600FEE7EA
:10092800FFF770FD4EF68850CEF20000016851F4D2
:0809380070010160FFF748FDAA
:040940008901000821
:10094400000000000000000001020304060708097B
:1009540000B506480649884205D00268043003B44D
:10096400904703BCF7E708BC18470000400900089B
:04097400440900082A
:10097800A10900080000001004000000B3090008E5
:10098800040000109C090008040000005509000834
:04099800DB03000875
:04099C000024F4003F
:1009A000206861680834002200E042540139FCD517
:0209B00070478E
:1009B20020686168A2680C3401E08B5C8354013AC0
:0409C200FBD57047AA
:0400000508000929BD
:00000001FF
