:020000040800F2
:1000000000000220C5060008870300084D03000811
:10001000C303000813040008530400080000000094
:100020000000000000000000000000004305000880
:100030001F06000800000000210600082903000830
:1000400023060008250600082706000829060008E0
:100050002B0600082D0600082F06000831060008B0
:100060003306000835060008370600083906000880
:100070003B0600083D0600083F0600084106000850
:100080004306000845060008470600084906000820
:100090004B0600084D0600084F06000851060008F0
:1000A00053060008550600085706000859060008C0
:1000B0005B0600085D0600085F0600086106000890
:1000C0006306000865060008670600086906000860
:1000D0006B0600086D0600086F0600087106000830
:1000E0007306000875060008770600087906000800
:1000F0007B0600087D0600087F06000881060008D0
:10010000830600088506000887060008890600089F
:100110008B0600088D0600088F060008910600086F
:10012000930600089506000897060008990600083F
:100130009B0600089D0600089F060008A10600080F
:10014000A3060008A5060008A7060008A9060008DF
:10015000AB060008AD060008AF060008B1060008AF
:10016000B3060008B5060008B7060008B90600087F
:10017000BB060008BD060008BF060008000000001E
:08018000C1060008C3060008D7
:1001880086B000210591049102200390029101900C
:1001980043F60800C4F20200006800F00C00059065
:1001A8000598009030B1009804280DD000980828D0
:1001B80014D057E040F20401C1F2000142F20040BD
:1001C800C0F2F400086056E040F20401C1F20001F8
:1001D80047F64000C0F27D1008604CE043F604008A
:1001E800C4F202000168C1F380510291006800F076
:1001F8003F000190029880B1019947F64000C0F293
:100208007D10B0FBF1F043F60401C4F20201096865
:10021800C1F38811484304900FE0019942F200406D
:10022800C0F2F400B0FBF1F043F60401C4F202019D
:100238000968C1F388114843049043F60400C4F2E6
:100248000200006800F44031022000EBD130039036
:1002580004980399B0FBF1F040F20401C1F20001E7
:10026800086008E040F20401C1F2000142F20040D7
:10027800C0F2F400086043F60800C4F20200006807
:10028800C0B2010940F2E060C0F60000405C059091
:10029800059A40F20401C1F200010868D0400860E4
:0402A80006B07047E5
:1002AC0043F63001C4F20201086840F00100086016
:1002BC00086840F01000086041F20001C4F202012D
:1002CC00086820F400700860086820F0800008605E
:1002DC000021C4F20201086820F00200086041F21B
:1002EC000C02C4F20202106840F4807010601068B6
:1002FC0040F0400010600C22C4F20202106840F082
:10030C0002001060086840F4805008601821C4F2A4
:0C031C000201086840F0400008607047D3
:1003280040F20001C1F200010888013008807047DE
:10033800034C206804348047FBE700F021F8FEE70F
:04034800140700088E
:10034C0008490A68002AFED41EF0040F0CBFEFF314
:10035C000880EFF3098042F000420A6081690231A3
:08036C00816170472CED00E0F7
:100374004EF68851CEF20001086840F4700008601F
:020384007047C0
:02038600FEE790
:1003880080B582B000200190FFF7F0FF00F05EF822
:10039800FFF788FF00F0D2F849F24000C0F20200EF
:1003A80000F00CF840F20200C1F20000008840F2B0
:0A03B8003441C4F201010860F4E7CB
:0203C200FEE754
:1003C40080B582B0009000980138B0F1807F02D3EC
:1003D4000120019018E0009801384EF21401CEF289
:1003E400000108604FF0FF300F2100F011F84EF2C9
:1003F4001801CEF20001002008604EF21002CEF285
:0E0404000002072111600190019802B080BD36
:02041200FEE703
:1004140082B08DF8070000919DF90700002809D4E7
:10042400009800019DF907104EF20042CEF200023E
:1004340088540AE0009800019DF8071001F00F01AC
:0E0444004EF61452CEF20002885402B07047F9
:02045200FEE7C3
:1004540080B582B043F60001C4F20201086840F49A
:100464008030086043F60000C4F202000068800394
:10047400002800D4F6E743F60001C4F2020108683C
:1004840020F08070086043F60402C4F20202019274
:10049400106840F480001060106820F03F00106085
:1004A400106840F004001060106847F6C073984369
:1004B4001060106840F428501060106820F4403038
:1004C400106043F60802C4F202021068106010685B
:1004D40040F4A0501060106840F4004010600868B8
:1004E40040F08070086043F60000C4F20200006827
:1004F4008001002800D4F6E743F60041C4F202016B
:10050400086840F203721043086043F60801C4F21D
:100514000201086820F003000860086840F0020047
:10052400086043F60800C4F20200006800F00C0002
:0E053400082800D0F5E7FFF725FE02B080BDD5
:02054200FEE7D2
:1005440043F64401C4F20201086840F00200086066
:1005540043F63001C4F20201086840F0010008606B
:100564000021C4F20201086840F400400860082138
:10057400C4F20201086840F4004008602021C4F27B
:100584000201086840F04050086040F22841C4F27B
:1005940001015320086040F20041C4F201010868DF
:1005A40040F06000086040F22C42C4F2010240F2C4
:1005B400E730106040F23442C4F2010200201060BF
:1005C40040F21842C4F20102106840F0700010605A
:1005D400106820F00300106040F22042C4F20102CF
:1005E400106840F001001060106840F004001060D2
:1005F40040F24442C4F20102106840F4004010602A
:10060400086840F00100086040F21441C4F201019E
:0A061400086840F00100086070471C
:02061E00FEE7F5
:02062000FEE7F3
:02062200FEE7F1
:02062400FEE7EF
:02062600FEE7ED
:02062800FEE7EB
:02062A00FEE7E9
:02062C00FEE7E7
:02062E00FEE7E5
:02063000FEE7E3
:02063200FEE7E1
:02063400FEE7DF
:02063600FEE7DD
:02063800FEE7DB
:02063A00FEE7D9
:02063C00FEE7D7
:02063E00FEE7D5
:02064000FEE7D3
:02064200FEE7D1
:02064400FEE7CF
:02064600FEE7CD
:02064800FEE7CB
:02064A00FEE7C9
:02064C00FEE7C7
:02064E00FEE7C5
:02065000FEE7C3
:02065200FEE7C1
:02065400FEE7BF
:02065600FEE7BD
:02065800FEE7BB
:02065A00FEE7B9
:02065C00FEE7B7
:02065E00FEE7B5
:02066000FEE7B3
:02066200FEE7B1
:02066400FEE7AF
:02066600FEE7AD
:02066800FEE7AB
:02066A00FEE7A9
:02066C00FEE7A7
:02066E00FEE7A5
:02067000FEE7A3
:02067200FEE7A1
:02067400FEE79F
:02067600FEE79D
:02067800FEE79B
:02067A00FEE799
:02067C00FEE797
:02067E00FEE795
:02068000FEE793
:02068200FEE791
:02068400FEE78F
:02068600FEE78D
:02068800FEE78B
:02068A00FEE789
:02068C00FEE787
:02068E00FEE785
:02069000FEE783
:02069200FEE781
:02069400FEE77F
:02069600FEE77D
:02069800FEE77B
:02069A00FEE779
:02069C00FEE777
:02069E00FEE775
:0206A000FEE773
:0206A200FEE771
:0206A400FEE76F
:0206A600FEE76D
:0206A800FEE76B
:0206AA00FEE769
:0206AC00FEE767
:0206AE00FEE765
:0206B000FEE763
:0206B200FEE761
:0206B400FEE75F
:0206B600FEE75D
:0206B800FEE75B
:0206BA00FEE759
:0206BC00FEE757
:0206BE00FEE755
:0206C000FEE753
:0206C200FEE751
:1006C400FFF756FE4EF68850CEF20000016851F452
:0806D40070010160FFF72EFE2A
:0406DC008901000888
:1006E00000000000000000000102030406070809E2
:1006F00000B506480649884205D00268043003B4B4
:10070000904703BCF7E708BC18470000DC06000868
:04071000E0060008F7
:100714003D07000800000010040000004F07000817
:10072400040000103807000804000000F106000867
:040734004303000873
:040738000024F400A5
:10073C00206861680834002200E042540139FCD57D
:02074C007047F4
:10074E0020686168A2680C3401E08B5C8354013A26
:04075E00FBD5704710
:04000005080006C524
:00000001FF
