:020000040800F2
:1000000000000220B50700082F040008F5030008CF
:10001000B3050008F30500081F06000800000000F3
:100020000000000000000000000000000F070008B2
:10003000110700080000000013070008150700085A
:1000400017070008190700081B0700081D0700080C
:100050001F070008210700082307000825070008DC
:100060002707000829070008D90200082B07000805
:100070002D0700082F070008310700083307000884
:100080003507000837070008390700083B07000854
:100090003D0700083F070008410700084307000824
:1000A0004507000847070008490700084B070008F4
:1000B000F50500084D0700084F0700085107000824
:1000C000530700085507000857070008590700089C
:1000D0005B0700085D0700085F070008610700086C
:1000E000630700086507000867070008690700083C
:1000F0006B0700086D0700086F070008710700080C
:1001000073070008750700087707000879070008DB
:100110007B0700087D0700087F07000881070008AB
:10012000830700088507000887070008890700087B
:100130008B0700088D0700088F070008910700084B
:10014000930700089507000897070008990700081B
:100150009B0700089D0700089F070008A1070008EB
:10016000A3070008A5070008A7070008A9070008BB
:10017000AB070008AD070008AF070008000000004B
:08018000B1070008B3070008F5
:1001880086B000210591049102200390029101900C
:1001980043F60800C4F20200006800F00C00059065
:1001A8000598009030B1009804280DD000980828D0
:1001B80014D057E040F20401C1F2000142F20040BD
:1001C800C0F2F400086056E040F20401C1F20001F8
:1001D80047F64000C0F27D1008604CE043F604008A
:1001E800C4F202000168C1F380510291006800F076
:1001F8003F000190029880B1019947F64000C0F293
:100208007D10B0FBF1F043F60401C4F20201096865
:10021800C1F38811484304900FE0019942F200406D
:10022800C0F2F400B0FBF1F043F60401C4F202019D
:100238000968C1F388114843049043F60400C4F2E6
:100248000200006800F44031022000EBD130039036
:1002580004980399B0FBF1F040F20401C1F20001E7
:10026800086008E040F20401C1F2000142F20040D7
:10027800C0F2F400086043F60800C4F20200006807
:10028800C0B2010940F2D070C0F60000405C059091
:10029800059A40F20401C1F200010868D0400860E4
:0402A80006B07047E5
:1002AC0081B08DF803009DF9030000280CD49DF952
:1002BC00031001F01F02012090404A094EF2001178
:0C02CC00CEF2000141F8220001B07047A2
:1002D80081B0002000901822C4F20202116841F493
:1002E800000111600090009844F23F21C0F20F0114
:1002F800884203D8009801300090F4E71821C4F22E
:100308000201086840F08000086000200090009812
:1003180044F23F21C0F20F01884203D8009801300F
:100328000090F4E71821C4F20201086840F40000C4
:10033800086000200090009844F23F21C0F20F01AD
:10034800884203D8009801300090F4E71821C4F2DD
:100358000201086840F080000860002000900098C2
:1003680044F23F21C0F20F01884203D800980130BF
:100378000090F4E71821C4F20201086840F4000074
:10038800086000200090009844F23F21C0F20F015D
:10039800884203D8009801300090F4E71821C4F28D
:1003A8000201086840F08000086000200090009872
:1003B80044F23F21C0F20F01884203D8009801306F
:1003C8000090F4E743F61441C4F20101086840F0D4
:0803D8001000086001B070473D
:1003E000034C206804348047FBE700F021F8FEE767
:0403F00004080008F5
:1003F40008490A68002AFED41EF0040F0CBFEFF36C
:100404000880EFF3098042F000420A6081690231FA
:08041400816170472CED00E04E
:10041C004EF68851CEF20001086840F47000086076
:02042C00704717
:02042E00FEE7E7
:1004300080B584B0002000900390FFF7EFFF00F03C
:10044000EFF843F64401C4F20201086840F480402A
:10045000086043F60C01C4F20101086840F0040092
:10046000086062B643F61441C4F20101086840F026
:100470001000086043F60041C4F20101086840F032
:100480001000086043F60C41C4F20101086840F016
:10049000100008600A20FFF709FF009943F63002B8
:1004A000C4F20202106840F001001060106840F0D1
:1004B000100010600022C4F20202106840F4805064
:1004C0001060106840F48040106041F20002C4F2F5
:1004D0000202106820F40070106041F20C02C4F2B5
:1004E0000202106840F4807010601822C4F2020208
:1004F000106840F08000106043F64002C4F202022F
:10050000106840F0010010602822C4F2000242F29C
:100510000F7010602C22C4F2000241F2873010608C
:100520001422C4F20002106840F001001060102094
:10053000C4F2000001600C22C4F20002106840F016
:10054000010010604FF08042106840F00100106020
:100550001C20019000F02EF80198FFF7A7FE002064
:1005600002901822C4F20202116841F48001116065
:100570000290029849F27F61C0F29801884203D844
:10058000029801300290F4E71821C4F202010868D1
:1005900040F04000086000200290029849F27F611C
:1005A000C0F29801884203D8029801300290F4E723
:0205B000D5E78D
:0205B200FEE762
:1005B40082B08DF8070000919DF90700002809D446
:1005C400009800019DF907104EF20042CEF200029D
:1005D40088540AE0009800019DF8071001F00F010B
:0E05E4004EF61452CEF20002885402B0704758
:0205F200FEE722
:1005F4001020C4F200000068C00768B11021C4F2E2
:100604000001086820F00100086040F20001C1F216
:0A061400000108680130086070471B
:02061E00FEE7F5
:1006200080B582B043F60001C4F20201086840F4CC
:100630008030086043F60000C4F2020000688003C6
:10064000002800D4F6E743F60001C4F2020108686E
:1006500020F08070086043F60402C4F202020192A6
:10066000106840F480001060106820F03F001060B7
:10067000106840F004001060106847F6C07398439B
:100680001060106840F4C8501060106820F44030CA
:10069000106043F60802C4F202021068106010688D
:1006A00040F4A0501060106840F4004010600868EA
:1006B00040F08070086043F60000C4F20200006859
:1006C0008001002800D4F6E743F60041C4F202019D
:1006D000086840F203721043086043F60801C4F250
:1006E0000201086820F003000860086840F002007A
:1006F000086043F60800C4F20200006800F00C0035
:0E070000082800D0F5E7FFF73FFD02B080BDEE
:02070E00FEE704
:02071000FEE702
:02071200FEE700
:02071400FEE7FE
:02071600FEE7FC
:02071800FEE7FA
:02071A00FEE7F8
:02071C00FEE7F6
:02071E00FEE7F4
:02072000FEE7F2
:02072200FEE7F0
:02072400FEE7EE
:02072600FEE7EC
:02072800FEE7EA
:02072A00FEE7E8
:02072C00FEE7E6
:02072E00FEE7E4
:02073000FEE7E2
:02073200FEE7E0
:02073400FEE7DE
:02073600FEE7DC
:02073800FEE7DA
:02073A00FEE7D8
:02073C00FEE7D6
:02073E00FEE7D4
:02074000FEE7D2
:02074200FEE7D0
:02074400FEE7CE
:02074600FEE7CC
:02074800FEE7CA
:02074A00FEE7C8
:02074C00FEE7C6
:02074E00FEE7C4
:02075000FEE7C2
:02075200FEE7C0
:02075400FEE7BE
:02075600FEE7BC
:02075800FEE7BA
:02075A00FEE7B8
:02075C00FEE7B6
:02075E00FEE7B4
:02076000FEE7B2
:02076200FEE7B0
:02076400FEE7AE
:02076600FEE7AC
:02076800FEE7AA
:02076A00FEE7A8
:02076C00FEE7A6
:02076E00FEE7A4
:02077000FEE7A2
:02077200FEE7A0
:02077400FEE79E
:02077600FEE79C
:02077800FEE79A
:02077A00FEE798
:02077C00FEE796
:02077E00FEE794
:02078000FEE792
:02078200FEE790
:02078400FEE78E
:02078600FEE78C
:02078800FEE78A
:02078A00FEE788
:02078C00FEE786
:02078E00FEE784
:02079000FEE782
:02079200FEE780
:02079400FEE77E
:02079600FEE77C
:02079800FEE77A
:02079A00FEE778
:02079C00FEE776
:02079E00FEE774
:0207A000FEE772
:0207A200FEE770
:0207A400FEE76E
:0207A600FEE76C
:0207A800FEE76A
:0207AA00FEE768
:0207AC00FEE766
:0207AE00FEE764
:0207B000FEE762
:0207B200FEE760
:1007B400FFF732FE4EF68850CEF20000016851F485
:0807C40070010160FFF70AFE5D
:0407CC008901000897
:1007D00000000000000000000102030406070809F1
:1007E00000B506480649884205D00268043003B4C3
:1007F000904703BCF7E708BC18470000CC07000887
:04080000D007000815
:100804002D08000800000010040000003F08000844
:10081400040000102808000804000000E107000894
:04082400EB030008DA
:040828000024F400B4
:10082C00206861680834002200E042540139FCD58C
:02083C00704703
:10083E0020686168A2680C3401E08B5C8354013A35
:04084E00FBD570471F
:04000005080007B533
:00000001FF
