:020000040800F2
:10000000000002203F0A00081B050008E104000868
:1000100047050008630500085306000800000000BB
:10002000000000000000000000000000AF07000812
:10003000A308000800000000E30800080F090008FA
:100040005F0900089F090008A1090008A30900082A
:10005000A5090008A7090008A9090008AB090008BC
:10006000AD090008AF090008B1090008B30900088C
:10007000B5090008B7090008B9090008BB0900085C
:10008000BD090008BF090008C1090008C30900082C
:10009000C5090008C7090008C9090008CB090008FC
:1000A000CD090008CF090008D1090008D3090008CC
:1000B000D5090008D7090008D9090008DB0900089C
:1000C000DD090008DF090008E1090008E30900086C
:1000D000E5090008E7090008E9090008EB0900083C
:1000E000ED090008EF090008F1090008F30900080C
:1000F000F5090008F7090008F9090008FB090008DC
:10010000FD090008FF090008010A0008030A0008A9
:10011000050A0008070A0008090A00080B0A000877
:100120000D0A00080F0A0008110A0008130A000847
:10013000150A0008170A0008190A00081B0A000817
:100140001D0A00081F0A0008210A0008230A0008E7
:10015000250A0008270A0008290A00082B0A0008B7
:100160002D0A00082F0A0008310A0008330A000887
:10017000350A0008370A0008390A000800000000A4
:080180003B0A00083D0A0008DB
:1001880086B000210591049102200390029101900C
:1001980043F60800C4F20200006800F00C00059065
:1001A8000598009030B1009804280DD000980828D0
:1001B80014D057E040F22C01C1F2000142F2004095
:1001C800C0F2F400086056E040F22C01C1F20001D0
:1001D80047F64000C0F27D1008604CE043F604008A
:1001E800C4F202000168C1F380510291006800F076
:1001F8003F000190029880B1019947F64000C0F293
:100208007D10B0FBF1F043F60401C4F20201096865
:10021800C1F38811484304900FE0019942F200406D
:10022800C0F2F400B0FBF1F043F60401C4F202019D
:100238000968C1F388114843049043F60400C4F2E6
:100248000200006800F44031022000EBD130039036
:1002580004980399B0FBF1F040F22C01C1F20001BF
:10026800086008E040F22C01C1F2000142F20040AF
:10027800C0F2F400086043F60800C4F20200006807
:10028800C0B2010940F66020C0F60000405C05904D
:10029800059A40F22C01C1F200010868D0400860BC
:0402A80006B07047E5
:1002AC0082B00190009101990098406848600098D4
:1002BC00006808600098806888600098C068C86012
:0402CC0002B07047C5
:1002D00080B543F64401C4F20201086840F480701E
:1002E000086043F63001C4F20201086840F00100E2
:1002F00008600021C4F20201086840F03000086084
:1003000042F21001C4F20101086840F040000860A8
:1003100042F22C01C4F20101086820F47000086068
:1003200042F23401C4F20101086840F002000860A2
:1003300042F20401C4F20101086840F020000860A4
:10034000122000F015F842F20801C4F20101086819
:1003500040F002000860086840F4806008600868A7
:1003600040F001000860086840F08040086080BDEF
:1003700081B08DF803009DF9030000280CD49DF98D
:10038000031001F01F02012090404A094EF20011B3
:0C039000CEF2000141F8220001B07047DD
:10039C0043F63001C4F20201086840F00100086025
:1003AC00086840F01000086041F20001C4F202013C
:1003BC00086820F400700860086820F0800008606D
:1003CC000021C4F20201086820F00200086041F22A
:1003DC000C02C4F20202106840F4807010601068C5
:1003EC0040F0400010600C22C4F20202106840F091
:1003FC0002001060086840F4805008601822C4F2B3
:10040C000202106840F040001060086840F40040A0
:10041C0008600821C4F20201086840F4004008603A
:10042C002021C4F20201086840F080500860704737
:10043C0080B540F21C00C1F20000B2EE040ADFED00
:10044C00040A9FED041ADFED041A00F061F880BD78
:0C045C006F12833A00401C4600401CC692
:1004680080B540F20000C1F2000000F069F880BDDC
:1004780080B582B00020019000F042F862B600F02A
:100488006DF8FFF787FF00F0E1F800F08DF9FFF74E
:100498001BFF49F24000C0F2020000F035FA00F0FC
:1004A8001DFA40F20000C1F2000040F21C01C1F246
:0804B8000001FFF7F7FEFEE76B
:0C04C00080B5FFF7BBFFFFF7CFFF80BD4A
:1004CC00034C206804348047FBE7FFF7CFFFFEE7BF
:0404DC00940A000876
:1004E00008490A68002AFED41EF0040F0CBFEFF37F
:1004F0000880EFF3098042F000420A60816902310E
:08050000816170472CED00E061
:100508004EF68851CEF20001086840F47000086089
:0205180070472A
:02051A00FEE7FA
:10051C0085B004908DED030ACDED020A8DED011A24
:10052C00CDED001A0498029941600399016001997C
:0A053C0081600099C16005B07047AE
:02054600FEE7CE
:1005480081B0009000980021016041608160C16025
:0A05580001614161816101B070474B
:02056200FEE7B2
:1005640080B582B043F60001C4F20201086840F489
:100574008030086043F60000C4F202000068800383
:10058400002800D4F6E743F60001C4F2020108682B
:1005940020F08070086043F60402C4F20202019263
:1005A400106840F480001060106820F03F00106074
:1005B400106840F004001060106847F6C073984358
:1005C4001060106840F428501060106820F4403027
:1005D400106043F60802C4F202021068106010684A
:1005E40040F4A0501060106840F4004010600868A7
:1005F40040F08070086043F60000C4F20200006816
:100604008001002800D4F6E743F60041C4F2020159
:10061400086840F203721043086043F60801C4F20C
:100624000201086820F003000860086840F0020036
:10063400086043F60800C4F20200006800F00C00F1
:0E064400082800D0F5E7FFF79DFD02B080BD4D
:02065200FEE7C1
:1006540043F64401C4F20201086840F00100086056
:1006640043F63001C4F20201086840F0100008604B
:1006740041F20001C4F20201086840F4003008604D
:10068400086840F40020086041F20801C4F2020145
:10069400086840F400300860086840F400200860EE
:1006A40041F22401C4F20201086840F0010008602C
:1006B400086840F0100008602821C4F201010220FB
:1006C40008600021C4F20101086840F0600008607D
:1006D4002C21C4F2010146F65F5008603421C4F2B3
:1006E400010143F2B06008603821C4F20101002026
:1006F40008603C21C4F2010108600821C4F2010130
:10070400086840F010000860086840F004000860C1
:100714001822C4F20102106840F0600010601068F2
:1007240020F003001060106840F0080010602021E1
:10073400C4F20101086840F001000860086840F054
:1007440004000860106840F4C0401060106820F491
:1007540040701060106840F400601060086840F059
:1007640010000860086840F0400008601C22C4F2D1
:100774000102106840F060001060106820F003006F
:100784001060106840F008001060086840F4807041
:100794000860086840F4806008604421C4F20101E4
:0A07A400086840F400400860704748
:0207AE00FEE764
:1007B00080B582B043F64001C4F20201086840F0FF
:1007C0000100086043F63001C4F20201086840F0FD
:1007D000010008600021C4F20201086840F008002E
:1007E00008600821C4F20201086840F008000860AF
:1007F0002021C4F20201086840F01000086028219E
:10080000C4F20001002008604FF08041086820F029
:1008100060000860086840F0100008602C21C4F2F5
:10082000000144F61F00C0F2010008603821C4F244
:1008300000014AF2104008600421C4F20001086877
:1008400040F0200008601821C4F20001086840F45C
:10085000C0400860086820F440700860086840F4F0
:10086000006008602021C4F20001086840F0100018
:1008700008600C21C4F20001086840F00400086020
:100880001021C4F20001086820F0040008601C2058
:100890000190012100F006F80198FFF769FD02B010
:0208A00080BD19
:0208A200FEE76F
:1008A40082B08DF8070000919DF90700002809D453
:1008B400009800019DF907104EF20042CEF20002AA
:1008C40088540AE0009800019DF8071001F00F0118
:0E08D4004EF61452CEF20002885402B0704765
:0208E200FEE72F
:1008E4000021C4F20101086840F0010008604FF0E3
:1008F4008041086840F0010008601421C4F200013E
:0A090400086840F001000860704729
:02090E00FEE702
:1009100080B582B0009000980138B0F1807F02D39A
:100920000120019018E0009801384EF21401CEF237
:10093000000108604FF0FF300F2100F011F84EF277
:100940001801CEF20001002008604EF21002CEF233
:0E0950000002072111600190019802B080BDE5
:02095E00FEE7B2
:1009600082B08DF8070000919DF90700002809D496
:10097000009800019DF907104EF20042CEF20002ED
:1009800088540AE0009800019DF8071001F00F015B
:0E0990004EF61452CEF20002885402B07047A8
:02099E00FEE772
:0209A000FEE770
:0209A200FEE76E
:0209A400FEE76C
:0209A600FEE76A
:0209A800FEE768
:0209AA00FEE766
:0209AC00FEE764
:0209AE00FEE762
:0209B000FEE760
:0209B200FEE75E
:0209B400FEE75C
:0209B600FEE75A
:0209B800FEE758
:0209BA00FEE756
:0209BC00FEE754
:0209BE00FEE752
:0209C000FEE750
:0209C200FEE74E
:0209C400FEE74C
:0209C600FEE74A
:0209C800FEE748
:0209CA00FEE746
:0209CC00FEE744
:0209CE00FEE742
:0209D000FEE740
:0209D200FEE73E
:0209D400FEE73C
:0209D600FEE73A
:0209D800FEE738
:0209DA00FEE736
:0209DC00FEE734
:0209DE00FEE732
:0209E000FEE730
:0209E200FEE72E
:0209E400FEE72C
:0209E600FEE72A
:0209E800FEE728
:0209EA00FEE726
:0209EC00FEE724
:0209EE00FEE722
:0209F000FEE720
:0209F200FEE71E
:0209F400FEE71C
:0209F600FEE71A
:0209F800FEE718
:0209FA00FEE716
:0209FC00FEE714
:0209FE00FEE712
:020A0000FEE70F
:020A0200FEE70D
:020A0400FEE70B
:020A0600FEE709
:020A0800FEE707
:020A0A00FEE705
:020A0C00FEE703
:020A0E00FEE701
:020A1000FEE7FF
:020A1200FEE7FD
:020A1400FEE7FB
:020A1600FEE7F9
:020A1800FEE7F7
:020A1A00FEE7F5
:020A1C00FEE7F3
:020A1E00FEE7F1
:020A2000FEE7EF
:020A2200FEE7ED
:020A2400FEE7EB
:020A2600FEE7E9
:020A2800FEE7E7
:020A2A00FEE7E5
:020A2C00FEE7E3
:020A2E00FEE7E1
:020A3000FEE7DF
:020A3200FEE7DD
:020A3400FEE7DB
:020A3600FEE7D9
:020A3800FEE7D7
:020A3A00FEE7D5
:020A3C00FEE7D3
:100A3E00FFF763FD4EF68850CEF20000016851F4C8
:080A4E0070010160FFF73BFDA0
:040A5800C1040008CD
:040A5C008901000804
:100A6000000000000000000001020304060708095E
:100A700000B506480649884205D00268043003B430
:100A8000904703BCF7E708BC18470000580A000865
:040A9000600A0008F0
:100A9400BD0A0008000000102C000000CF0A000866
:100AA4002C000010B80A000804000000710A0008B5
:040AB400D70400085B
:040AB8000024F40022
:100ABC00206861680834002200E042540139FCD5FA
:020ACC00704771
:100ACE0020686168A2680C3401E08B5C8354013AA3
:040ADE00FBD570478D
:0400000508000A3FA6
:00000001FF
