:020000040800F2
:10000000000002208D2700085B150008390C00084D
:10001000131600086F160008831600080000000081
:10002000000000000000000000000000A71600080B
:10003000BF16000800000000DF160008150B0008BE
:1000400033170008471700085B1700089F170008C0
:10005000AF170008BF170008DB1700082D1E0008A7
:10006000791E0008C51E000807180008231800089C
:100070008B1800089B180008AF180008CF1800085C
:10008000EB18000807190008D71900080B1B000817
:100090003F1B0008631B00088F1B00083F1C000863
:1000A0004F1C0008A71C0008071D0008A31D00081E
:1000B000250B0008CF1D0008BD0B0008F31D00082C
:1000C0001B1E00082B1E0008771E0008C31E000818
:1000D0000F1F0008FF1F00087B200008E720000812
:1000E000232100084F210008EB21000823220008EB
:1000F00063240008272600084B2600084D26000828
:100100004F260008512600085326000855260008EF
:1001100057260008592600085B2600085D260008BF
:10012000F90B00085F260008612600086326000816
:100130006526000867260008692600086B26000867
:100140006D2600086F260008712600087326000837
:100150007526000877260008792600087B26000807
:100160007D2600087F2600088126000883260008D7
:100170008526000887260008892600080000000060
:080180008B2600088D26000803
:1001880080B592B0119011990D918888CA88104451
:100198000A8910444989084402F042FA41EC100BDC
:1001A80051EC100B9FED780B53EC102B029301923E
:1001B80001F0D6F841EC100B51EC100B9FED740BCD
:1001C80053EC102B0493039201F0CEF841EC100B82
:1001D80051EC100B9FED700B53EC102B069305920E
:1001E80002F01CF841EC100B51EC100B01F080F9F7
:1001F8000D9910908889CA8910440A8A1044498A3E
:10020800084402F00DFA019A029B41EC100B51ECE4
:10021800100B01F0A5F8039A049B41EC100B51EC6C
:10022800100B01F0A1F8059A069B41EC100B51EC5C
:10023800100B01F0F3FF41EC100B51EC100B01F027
:1002480057F90D990F90888ACA8A10440A8B10446E
:10025800498B084402F0E4F9019A029B41EC100B27
:1002680051EC100B01F07CF8039A049B41EC100B45
:1002780051EC100B01F078F8059A069B41EC100B35
:1002880051EC100B01F0CAFF41EC100B51EC100BB4
:1002980001F02EF90E90109801F010F941EC100BB6
:1002A80051EC100B9FED3E0B53EC102B089307926B
:1002B80001F05AF841EC100B51EC100B9FED3A0B82
:1002C80053EC102B0A93099201F04EF841EC100BF5
:1002D80051EC100B9FED360B53EC102B0C930B923B
:1002E80002F0BCF841EC100B51EC100B01F000F9D6
:1002F8000D99C8610F9801F0E1F8079A089B41EC45
:10030800100B51EC100B01F02FF8099A0A9B41ECE5
:10031800100B51EC100B01F027F80B9A0C9B41ECD9
:10032800100B51EC100B02F099F841EC100B51EC4A
:10033800100B01F0DDF80D9908620E9801F0BEF877
:10034800079A089B41EC100B51EC100B01F00CF8CC
:10035800099A0A9B41EC100B51EC100B01F004F8C0
:100368000B9A0C9B41EC100B51EC100B02F076F839
:1003780041EC100B51EC100B01F0BAF80D994862E2
:1003880012B080BD00BF00BF000000000000C040E8
:10039800000000000000D03F0000000000003440D2
:1003A800000000000000403F666666666666FA3F29
:0803B8009A9999999999B93FAE
:1003C00080B584B003900398019001F0ABFE0199D1
:1003D00040F61802C4F20202106820F48010106087
:1003E00001F10C00029091ED010A8968D1ED070A34
:1003F00001F0CEFB029801F023FC10EE100A01F090
:1004000061F841EC100B9FED101B53EC112B51ECDC
:10041000100B02F027F841EC100B51EC100B9FED84
:100420000C0B53EC102B00F0A3FF41EC100B51EC24
:10043000100B01F035F83421C4F20101086004B05A
:1004400080BD00BF00BF00BF000000000000594099
:08045000000000000068D0402C
:1004580080B586B005900598049090F9040002F0E4
:10046800DFF841EC100B9FED1C1B53EC112B51ECEA
:10047800100B00F079FF0246049801920A46019990
:1004880042EC101B8DED020B90ED041A90ED050A5D
:1004980030EE410A10EE100A01F010F841EC100B92
:1004A8009FED0F1B53EC112B51EC100B01F0D6FFF5
:1004B8009DED021B41EC100B51EC110B53EC102B72
:1004C80001F0CCFF41EC100B51EC100B01F010F8CF
:1004D8000499C86106B080BD000000000000184003
:0804E8000000000080842E4199
:1004F00080B59CB01B901A911B9809901A99C968F5
:1005000041611A99096881601A99896801611A998B
:100510004968C1601A9909698161D0ED020A90EDBC
:10052000041A90ED050A90ED062A15A80790DFED54
:100530003E1ACDED061A00F01FFA099890ED020A56
:100540008DED010A90ED040A8DED020A90ED050A89
:100550008DED000A806900F0B5FF41EC100B9FEDB6
:100560002E1B53EC112B51EC100B01F05BFE41ECF8
:10057000100B51EC100B00F0BFFF9DED000ADDEDFC
:10058000010A9DED021ADDED061A02EE100A10A80E
:10059000089000F0F1F9099890ED020A8DED040A37
:1005A00090ED040A8DED050A90ED050A8DED030A24
:1005B000806900F087FF41EC100B9FED191B53EC95
:1005C000112B51EC100B01F02DFE41EC100B51ECF6
:1005D000100B00F091FF9DED030ADDED040A9DED87
:1005E000051ADDED061A02EE100A0BA80A9000F0BB
:1005F000C3F909980799283000F0F0F9089909988B
:10060000783000F0EBF909980A99C83000F0E6F963
:100610001CB080BD00BF00BF65732D3852C100C043
:0C06200065732D3852C110C000000000AE
:10062C0086B0002105910491022003900291019063
:10063C0043F60800C4F20200006800F00C000590BC
:10064C000598009030B1009804280DD00098082827
:10065C0014D057E040F27421C1F2000142F2004084
:10066C00C0F2F400086056E040F27421C1F20001BF
:10067C0047F64000C0F27D1008604CE043F60400E1
:10068C00C4F202000168C1F380510291006800F0CD
:10069C003F000190029880B1019947F64000C0F2EA
:1006AC007D10B0FBF1F043F60401C4F202010968BD
:1006BC00C1F38811484304900FE0019942F20040C5
:1006CC00C0F2F400B0FBF1F043F60401C4F20201F5
:1006DC000968C1F388114843049043F60400C4F23E
:1006EC000200006800F44031022000EBD13003908E
:1006FC0004980399B0FBF1F040F27421C1F20001AF
:10070C00086008E040F27421C1F2000142F200409E
:10071C00C0F2F400086043F60800C4F2020000685E
:10072C00C0B2010942F2D870C0F60000405C0590DE
:10073C00059A40F27421C1F200010868D0400860AB
:04074C0006B070473C
:1007500080B582B00190019800909FED070AF7EEF6
:10076000000A9FED061ADFED061A9FED062A01F03A
:10077000CDF9009802B080BD17B75139CDCCCC3D32
:080780000000C8420000000067
:1007880082B00190009101990098486002B07047CA
:1007980080B582B001900198009001F00DF80098A2
:1007A80040F60001C0F600010831016002B080BDCA
:1007B80080B582B001900198009000F0FDFF00988C
:1007C80040F60C01C0F600010831016002B080BD9E
:1007D80080B582B001900198009000F0EDFF00987C
:1007E80040F61801C0F600010831016002B080BD72
:0807F80081B0009001B07047D0
:0C08000000000000000000003517000898
:0C080C0000000000000000004917000878
:0C0818000000000000000000F9070008CC
:0C0824000000000000000000A5270008F4
:1008300082B001900091019900984068486000984A
:10084000006808600098806888600098C068C86088
:0408500002B070473B
:1008540081B00090009900204861086101B07047A0
:1008640080B586B005908DED040ACDED030A8DEDBB
:10087400021ACDED011A059800909DED040ADDEDF4
:10088400030A9DED021ADDED011A01F089FA0098C0
:0408940006B080BD6D
:1008980080B582B001900198009001F095FA009817
:1008A80040F66811C0F60001083140F8181B00F046
:0808B800A7FF009802B080BD0B
:1008C00080B584B003900398019090ED040A90EDF8
:1008D000051A20EE011AB7EE000A80EE010ABDEEFD
:1008E000C00A8DED020A0298132806DC40F244216A
:1008F000C1F20001002008600FE00198183000905C
:10090000B7EE000A00F08EFF009800F0BFFF40F243
:100910004420C1F2000080ED000A019840F2442119
:10092000C1F2000191ED000A90ED021AB4EE410A05
:10093000F1EE10FA09DB01981830FFF78BFF40F257
:100940004421C1F2000100200860019840F24421D6
:10095000C1F2000191ED000A90ED031A30EE010A98
:0809600080ED010A04B080BD26
:100968000000000000000000D10A0008C1080008CB
:1009780080B588B007908DED060ACDED050A8DED9E
:10098800041ACDED031A8DED022A079801909DED0A
:10099800060ADDED050A9DED041ADDED031A01F0E6
:0C09A800FDF901980299016108B080BDC2
:1009B40080B582B001900198009001F007FA009888
:1009C40040F63421C0F60001083140F81C1BFFF743
:0809D40061FF009802B080BD34
:1009DC0080B588B007900691079800900699C96871
:1009EC0041610699096881600699896801610699D7
:1009FC004968C16006990969816190ED041A90ED0E
:100A0C00050A02A80190DFED060ADFED061AFFF7D2
:100A1C0023FF009801991C3001F014F908B080BD37
:080A2C00DB0FC94000000000CF
:100A34000000000000000000D10A0008A91C000802
:100A440080B588B007908DED060ACDED050A8DEDD1
:100A5400041ACDED031A8DED022A079801909DED3D
:100A6400060ADDED050A9DED041ADDED031A01F019
:0C0A740097F901980299016108B080BD5B
:100A800080B582B001900198009001F0A1F9009822
:100A900040F6C021C0F60001083101602830FFF7A0
:100AA00089FF00987830FFF785FF0098C830FFF77E
:100AB00081FF00980021C1610162416202B080BDE6
:100AC0000000000000000000D10A0008091D000815
:100AD00082B00190009101990098006888600098A8
:100AE0004068C8600098806808610098C0684861E4
:040AF00002B0704799
:100AF4000000000000000000D10A0008F51D0008F5
:100B040081B00090009800210170417001B07047DD
:100B140040F23821C1F200010868013008607047D2
:100B240080B51020C4F2000000684007002842D5B8
:100B340040F23C20C1F2000001680131016000680C
:100B440041F2883188421BD11420C4F202000068AB
:100B54004006002807D51821C4F20201086840F4B1
:100B64008000086006E01821C4F20201086840F021
:100B74004000086040F23C21C1F2000100200860FE
:100B840040F2A010C1F20000FFF7FCFA40F240204E
:100B9400C1F20000006838B140F24020C1F2000008
:100BA40000680168096888471021C4F200010868D8
:080BB40020F00400086080BD80
:100BBC0080B540F61000C4F200000068C00760B1B8
:100BCC0040F2A010C1F2000000F0C2FC40F234214F
:100BDC00C1F2000108683230086040F61001C4F21E
:0C0BEC000001086820F00100086080BDD6
:100BF80080B546F20040C4F2020000688006002872
:100C08000BD546F20841C4F202012020086040F2E8
:0C0C1800A010C1F2000000F0F9FC80BD4B
:100C2400034C206804348047FBE700F06FFAFEE7CA
:040C34000C28000880
:100C380008490A68002AFED41EF0040F0CBFEFF31F
:100C48000880EFF3098042F000420A6081690231AE
:080C5800816170472CED00E002
:100C600080B584B043F63001C4F20201086840F058
:100C70000400086043F64402C4F20202106840F423
:100C800080701060086840F48000086040F6000141
:100C9000C4F20201086820F03F000860086840F0D4
:100CA0003F00086046F21041C4F2020100910020AA
:100CB0000190086046F21842C4F2020242F24C006F
:100CC000C4F20100106046F21442C4F20202032092
:100CD0001060086840F480600860086840F42050A4
:100CE000086008680860086820F0C00008600868AC
:100CF00040F010000860382000F05AF8019842F2E5
:100D00000403C4F20103186042F20802C4F20102B3
:100D100002921060196841F480711960116821F025
:100D200002011160116841F480711160116841F491
:100D30000071116042F22C0CC4F2010CDCF80010BE
:100D400021F47001CCF80010DCF8001041F400111F
:100D5000CCF8001042F2340CC4F2010C43F26A11D8
:100D6000CCF8001042F20C0CC4F2010CDCF80010BC
:100D700040F2FF1E21EA0E01CCF80010DCF8001052
:100D800041F0DB01CCF80010196821F02001196056
:100D9000116841F00101116003900398B0F57A7F6A
:100DA00004DA00BF039801300390F6E704B080BD79
:100DB00081B08DF803009DF9030000280CD49DF943
:100DC000031001F01F02012090404A094EF2001169
:0C0DD000CEF2000141F8220001B0704793
:100DDC0043F63001C4F20201086840F001000860DB
:100DEC00086840F010000860086840F004000860D3
:100DFC0041F20001C4F20201086820F4007008609E
:100E0C00086820F0800008600021C4F20201086824
:100E1C0020F00200086041F20C02C4F202021068D9
:100E2C0040F480701060106840F0400010600C229C
:100E3C00C4F20202106840F002001060086840F42E
:100E4C00805008601822C4F20202106840F0400082
:100E5C001060086820F008000860086820F0200086
:100E6C000860086820F08000086040F60001C4F2B9
:100E7C000201086840F48070086040F60C01C4F26E
:100E8C000201086840F48070086040F60401C4F266
:0C0E9C000201086840F010000860704778
:100EA80043F64401C4F20201086840F001000860FA
:100EB80043F63001C4F20201086840F010000860EF
:100EC80041F20001C4F20201086840F400300860F1
:100ED80041F20801C4F20201086840F400300860D9
:100EE80041F22401C4F20201086840F001000860E0
:100EF8002821C4F20101002008600022C4F2010286
:100F0800116841F0600111602C22C4F2010244F220
:100F18009F1111603421C4F2010108603821C4F224
:100F2800010108603C21C4F2010108600821C4F2F3
:100F38000101086840F010000860086840F00400EB
:100F480008601822C4F20102106840F070001060B6
:100F5800106820F003001060106840F0080010606E
:100F68002021C4F20101086840F001000860086807
:100F780040F004000860106840F4E0401060106819
:100F880020F440701060106840F400601060086839
:100F980040F010000860086840F0400008601C221B
:100FA800C4F20102106840F070001060106820F070
:100FB80003001060106840F008001060086840F4F2
:100FC80080700860086840F4806008604421C4F2BA
:0C0FD8000101086840F400400860704708
:100FE40080B543F64001C4F20201086840F00400F1
:100FF400086040F62801C4F200010020086040F6B1
:101004000001C4F20001086820F06000086008686C
:1010140040F01000086040F62C01C4F2000141F2D7
:101024006700086040F60801C4F20001086840F057
:1010340010000860086840F00400086040F60C01E5
:10104400C4F20001086840F00100086040F6100195
:10105400C4F20001086820F0010008601E20FFF7B8
:04106400A5FE80BDA8
:101068000021C4F20101086820F0010008607047FF
:1010780080B540F21810C1F20000FFF797FC80BD60
:1010880080B540F20000C1F20000FFF7F5FC80BD1A
:1010980080B540F2E810C1F2000000F005FC80BD08
:1010A80080B540F2A010C1F2000040F20001C2F287
:0810B800000101F049F880BDC0
:1010C00080B540F26820C1F2000001F08FF880BDC9
:1010D00080B540F26810C1F2000040F2A011C1F2E8
:0810E000000100F0CFFA80BD11
:1010E80080B540F22020C1F20000FFF72DFB80BD43
:1010F80080B540F2C810C1F2000040F26811C1F298
:08110800000100F0E9FA80BDCE
:1011100080B592B00020119000F0AAFA72B600F0EB
:10112000F7FEFFF75BFEFFF7BFFE00F069FFFFF77A
:1011300059FF00F0A3FFFFF793FD40F2A010C1F2AA
:10114000000000F0FFF90CA800909FED380A8DED2B
:10115000010A9FED371A8DED021AF1EE041ACDED5A
:10116000031A9FED342A8DED042AF0EE610AFFF791
:1011700003FC009940F21810C1F20000FFF72EFCAA
:101180009DED010A9DED021ADDED031A9DED042A85
:1011900007A80590F0EE610AFFF754FC059940F2AC
:1011A0000000C1F20000FFF7A3F906A89FED220A94
:1011B00000F074FB40F26810C1F2000040F2202100
:1011C000C1F2000100F070FA62B600F08DFF40F24B
:1011D0007120C1F200000078C00730B140F2C810A1
:1011E000C1F2000000F0DCFA13E040F27220C1F21C
:1011F00000000078C00730B140F2C810C1F2000012
:1012000000F0D6FA05E040F2C810C1F2000000F08C
:10121000C7FA40F2C810C1F2000000F09FFA40F295
:101220004021C1F200010860D1E700BF6F12833A8C
:0C123000000048420000000017B75139D0
:10123C0080B5FFF71BFFFFF721FFFFF727FFFFF735
:10124C002DFFFFF737FFFFF73DFFFFF747FFFFF7D6
:04125C004DFF80BD05
:04126000000000008A
:1012640010EE100AC10D4FF0FF3252FA81F1FE293F
:101274000FD2B5EE400AF1EE10FA52BF9FED0A1AF2
:101284009FED081AB1EE400AF0EE400A002000F08B
:101294000DB8C0F3C750FE2888BF9FED010A704700
:0C12A4000000C07F00000080000000007F
:1012B00010B52DED048B9FED222A9FED223A30EEE2
:1012C000822A82EE032ABDEEC22AB8EEC23ABEEEF0
:1012D000004A002818BF33EE043A9FED1B4AB0EED7
:1012E000408A03EE048A9FED190A03EE008AB0EEED
:1012F000C80A9FED173AB4EE430AF1EE10FAB0EEC9
:10130000419A12EE104A0ADB28EE080A41F25430E4
:10131000C0F60000052101F021FA08EE008AE0077E
:1013200018BFB1EE499A19EE100A18EE101A00F023
:101330000040484000EE100ABDEC048B10BD00BF19
:10134000DB0FC93FDB0F4940001049C07A771537E2
:04135000FFE6DB2EAB
:10135400ABAA2ABE9788083C281050B9932939367D
:04136400D4AAD5B280
:0813680083F0004300F05ABFBE
:10137000F0B540F2FF7681EA030C16EA115E1EBF5B
:10138000B64516EA1355B54252D021EA465141F40A
:101390008011A1FB024723EA465343F48013AE4475
:1013A000A0FB03650CF0004C36197D41A1FB0347FF
:1013B00047F10003A0FB0217F619654153F1000342
:1013C000094218BF46F0010640F2FE74B3F5007FF3
:1013D00013D2AEF5806EA64523D24CEA0331280322
:1013E00041EA155140EA16503203450872F10042B5
:1013F00050F1000051EB0E51F0BDAEF2FF3EA6459C
:101400000FD24CEAC321E80241EA555140EA565056
:10141000F202450872F1004250F1000051EB0E510A
:10142000F0BD1EEA0E0F2DD50CF000410020F0BDDE
:1014300016EA115F04BF01F000410020004218BF0E
:1014400041F0010116EA135F04BF03F000430022DC
:10145000124218BF43F0010306EA1354B44218BF06
:10146000B64503D00CF000410020F0BD21F0004152
:1014700023F00043B1EB065F0CD8B3EB065F09D84D
:1014800041B13BB10CF0004141F0FE4141F470012B
:101490000020F0BD40F20001C7F6F8710020F0BD59
:1014A0000B0D40F21E42D21A09DBCB0243EA505028
:1014B00040F00040202A28BF2022D0407047490039
:0414C00080417047B0
:1014C400C0F3C75191B142004FEA40704FEAD201D4
:1014D4004FEA310101F16051B2F17F4F38BF7047DB
:1014E40001F1605118BF41F40021704710F0004130
:0414F400002070471D
:1014F80001F000428B1AA3F16051B1F5801F0ADB9D
:10150800B1F17F6F09D242EAC102C10071F1004115
:1015180042EB507070471046704701285B4113F545
:10152800001F02D842F0FF407047C90041EA5070DE
:0C153800104340F4800040F080407047F9
:1015440081B000900098006846F21C41C4F2020188
:06155400086001B07047C1
:02155A00FEE7AA
:10155C0084B0039046F21041C4F20201086820F0F6
:10156C000100086042F21070029046F21040C4F282
:10157C00020001680020C907009041B102980138AF
:10158C00029000284FF00000C8BF01200090009886
:10159C00C00708B100BFE8E746F20841C4F20201F7
:1015AC003920086046F21441C4F20201032008609D
:1015BC0046F21041C4F20201086840F001000860D4
:1015CC0042F20800C4F201000068C00788B942F278
:1015DC000801C4F20101086840F001000860002015
:1015EC0001900198632804DC00BF01980130019040
:1015FC00F7E742F20801C4F20101086840F08040AC
:06160C00086004B0704705
:02161200FEE7F1
:1016140082B001900198009040F26420C1F2000071
:101624000068042805D140F26421C1F200010020C1
:101634000860009A1068008840F26421C1F2000139
:101644000B6802EB43039880106840880B6802EB38
:1016540043039881106880880B6802EB43029082F0
:0A16640008680130086002B070470A
:02166E00FEE795
:101670004EF68851CEF20001086840F47000086010
:021680007047B1
:02168200FEE781
:1016840080B584B003900291039801900021016019
:1016940041600C3000F052FA01980299816004B064
:0216A40080BD07
:0216A600FEE75D
:1016A80080B582B00190009101980C30009900F04B
:0616B80055FA02B080BDEE
:0216BE00FEE745
:1016C00080B582B00190FFF7CFFC41F21801C4F25F
:0E16D0000201086820F07C50086002B080BD66
:0216DE00FEE725
:1016E00080B586B0059004910598039000210170A3
:1016F000416008300090FFF74FF8039810300190D8
:10170000FFF75AF8039818300290FFF765F8009831
:10171000039A049951600499FFF736F801980499E7
:10172000FFF732F802980499FFF72EF8039806B0F5
:0217300080BD7A
:02173200FEE7D0
:1017340080B582B0019001984068FFF7BFFF02B006
:0217440080BD66
:02174600FEE7BC
:1017480080B582B0019001984068FEF735FE02B07E
:0217580080BD52
:02175A00FEE7A8
:10175C0084B002900298009000780146019130B15B
:10176C000198012807D00198022808D00BE00098B6
:10177C00083003900AE000981030039006E00098BF
:10178C001830039002E0009808300390039804B0DE
:02179C00704794
:02179E00FEE764
:0E17A00081B0009000990020087001B07047E1
:0217AE00FEE754
:0E17B00081B0009000990120087001B07047D0
:0217BE00FEE744
:1017C00081B00090009840F62401C0F60001083175
:0A17D00001600021416001B0704784
:0217DA00FEE728
:1017DC0085B004908DED030ACDED020A8DED011A52
:1017EC00CDED001A049802994160039901600199AA
:0A17FC0081600099C16005B07047DC
:02180600FEE7FB
:1018080081B0009000980021016041608160C16052
:0A18180001614161816101B0704778
:02182200FEE7DF
:1018240080B584B003908DED020A0398019002996B
:10183400816190ED003A90ED010A90ED051A90ED6A
:10184400062A80EE030A20EE020A30EE010A40F274
:101854006021C1F2000181ED000A0A68026191ED84
:10186400000AD0ED020A00F05EFF019880ED050A3F
:10187400D0ED030A90ED050A00F03CFF019880EDDD
:06188400050A04B080BD5E
:02188A00FEE777
:0E188C0081B00090009890ED050A01B0704701
:02189A00FEE767
:10189C0082B001908DED000A01980099016002B0B0
:0218AC00704783
:0218AE00FEE753
:1018B00081B0009000980021017141718160017335
:0E18C0004173016141618161C16101B07047F6
:0218CE00FEE733
:1018D00082B0019000910198009991ED000AB8EE54
:0A18E000C00A80ED040A02B0704750
:0218EA00FEE717
:1018EC0082B0019000910198009991ED000AB8EE38
:0A18FC00C00A80ED050A02B0704733
:02190600FEE7FA
:1019080082B001900198009090F9040001281CD140
:10191800009841790131417190F9050048F6880233
:10192800C0F688024EF6EF61CEF6EE6100FB0120AC
:101938004FEAB00044F24441C0F24441884203D81F
:10194800009988680130886021E0009890F90400C7
:101958000130E0B9009841790139417190F90500E9
:1019680048F68802C0F688024EF6EF61CEF6EE61C0
:1019780000FB01204FEAB00044F24441C0F2444168
:10198800884203D80099886801388860FFE7009882
:1019980090F905003C2804D0009890F905003C30E7
:1019A80010B9009900204871009881684FF4B4720A
:1019B800514390F9052002EB420201EB420100EE8F
:0E19C800101AB8EEC00A80ED060A02B0704791
:0219D600FEE72A
:1019D80082B00190019800901021C4F202010968B8
:1019E80001F00E014173007B002800F0838000980D
:1019F80090F90C00082804D1009890F90D000A28E5
:101A080031D0009890F90C000A2804D1009890F978
:101A18000D00022827D0009890F90C00022804D164
:101A2800009890F90D0006281DD0009890F90C0038
:101A3800062804D1009890F90D00042813D00098C6
:101A480090F90C00042804D1009890F90D000C2896
:101A580009D0009890F90C000C2808D1009890F94A
:101A68000D00082803D10099012008713EE0009874
:101A780090F90C00022804D1009890F90D000A286A
:101A880031D0009890F90C000A2804D1009890F9F8
:101A98000D00082827D0009890F90C00082804D1D8
:101AA800009890F90D000C281DD0009890F90C00B2
:101AB8000C2804D1009890F90D00042813D0009840
:101AC80090F90C00042804D1009890F90D0006281C
:101AD80009D0009890F90C00062807D1009890F9D1
:101AE8000D00022802D10099FF2008710099487B57
:101AF800087304E00099487B08730020087102B05D
:021B0800704724
:021B0A00FEE7F4
:101B0C0086B005908DED040ACDED030A8DED021A19
:101B1C00CDED011A8DED002A059804990160039909
:101B2C004160029981600199C1600099016106B020
:021B3C007047F0
:021B3E00FEE7C0
:101B400081B0009000980021016041608160C16017
:101B5000016141618161C16101624162816201B0E3
:021B60007047CC
:021B6200FEE79C
:101B640082B0019000910199009800680860009883
:101B7400406848600098806888600098C068C860C1
:0A1B840000980069086102B0704784
:021B8E00FEE770
:101B900080B586B005908DED040ACDED030A059859
:101BA0000290049941610399816190ED010A90EDE1
:101BB000051A90ED062A31EE421A20EE010A80ED58
:101BC000070A90ED001A90ED023A90ED072A90ED89
:101BD000080A81EE031A90ED093A32EE432A90ED9D
:101BE0000A3A32EE032A21EE021A30EE010A80EDA3
:101BF000080A90ED071A90ED080A30EE010A80ED10
:101C0000090AD0ED030A90ED090A00F08EFD029852
:101C100040F25C21C1F20001019181ED000A91EDD9
:101C2000000AD0ED040A00F067FD0199029881EDE9
:0E1C3000000A91ED000A80ED0A0A06B080BDA0
:021C3E00FEE7BF
:0E1C400081B00090009890ED0A0A01B0704744
:021C4E00FEE7AF
:101C500080B588B007900691079800900699C968EA
:101C60004161069909688160069989680161069950
:101C70004968C16090ED021A90ED040AD0ED050AA2
:101C800020EE012AB7EE000A80EE020AF1EE411AB8
:101C900002A80190FFF7A2FD009801991830FEF705
:061CA000C7FD08B080BD85
:021CA600FEE757
:101CA80080B584B00390039801901C300090FEF733
:101CB80003FE0098019991ED020A8DED020A00F0E9
:101CC800A9F8019890ED061A30EE010AFFF7C6FA56
:101CD8000198B0EE401A9DED020A20EE010A40F28A
:101CE8004821C1F2000181ED000A91ED000A90ED52
:0E1CF800031A30EE010A80ED010A04B080BD2F
:021D0600FEE7F6
:101D080080B588B007900798069028300190FFF7B3
:101D1800C7FF069878300290FFF7C2FF0698C830D0
:101D28000390FFF7BDFF019800F074F8029840F2A5
:101D38005821C1F20001049181ED000A00F06AF80F
:101D4800039840F25421C1F20001059181ED000A87
:101D580000F060F8049B059A069840F25021C1F201
:101D6800000181ED000A93ED000A90ED031A30EEB0
:101D7800010A80ED070A92ED000A90ED031A30EE91
:101D8800010A80ED080A91ED000A90ED031A30EE81
:0A1D9800010A80ED090A08B080BDC1
:021DA200FEE75A
:101DA40085B004908DED030ACDED020A8DED011A84
:101DB400CDED001A04980399C1600299016001995C
:0A1DC40081600099416005B070478E
:021DCE00FEE72E
:101DD00081B00090009840F6F421C0F6000108316F
:101DE0000160002141608160C1600161416101B019
:021DF00070473A
:021DF200FEE70A
:101DF40081B00090009940F24C20C1F2000090EDB7
:101E0400000AB7EE001A30EE010A80ED000A0068FD
:061E1400486001B07047B8
:021E1A00FEE7E1
:0E1E1C0081B00090009890ED010A01B070476F
:021E2A00FEE7D1
:101E2C0080B582B043F61441C4F20101086840F059
:101E3C000200086040F2E810C1F20000009040F28D
:101E4C003421C1F200010191FFF74AFD0098FFF720
:101E5C00BDFD0098FFF752FD0098FEF7F7FA0098C9
:0A1E6C000199FFF72FFD02B080BDC1
:021E7600FEE785
:101E780080B582B043F61441C4F20101086840F00D
:101E88000400086040F2E810C1F20000009040F23F
:101E98003421C1F200010191FFF724FD0098FFF7FA
:101EA80097FD0098FFF72CFD0098FEF7D1FA0098EF
:0A1EB8000199FFF709FD02B080BD9B
:021EC200FEE739
:101EC40080B582B043F61441C4F20101086840F0C1
:101ED4000800086040F2E810C1F20000009040F2EF
:101EE4003421C1F200010191FFF7FEFC0098FFF7D5
:101EF40071FD0098FFF706FD0098FEF7ABFA009815
:0A1F04000199FFF7E3FC02B080BD75
:021F0E00FEE7EC
:101F100080B582B043F60001C4F20201086840F4C3
:101F20008030086043F60000C4F2020000688003BD
:101F3000002800D4F6E743F60001C4F20201086865
:101F400020F08070086043F60402C4F2020201929D
:101F5000106840F480001060106820F03F001060AE
:101F6000106840F004001060106847F6C073984392
:101F70001060106840F428501060106820F4403061
:101F8000106043F60802C4F2020210681060106884
:101F900040F4A0501060106840F4004010600868E1
:101FA00040F08070086043F60000C4F20200006850
:101FB0008001002800D4F6E743F60041C4F2020194
:101FC000086840F203721043086043F60801C4F247
:101FD0000201086820F003000860086840F0020071
:101FE000086043F60800C4F20200006800F00C002C
:0E1FF000082800D0F5E7FEF719FB02B080BD0F
:021FFE00FEE7FC
:1020000080B543F64001C4F20201086840F00100C7
:1020100008602821C4F20001002008604FF08041D0
:10202000086820F060000860086840F01000086050
:102030002C21C4F2000144F29F1008603821C4F240
:10204000000142F2107008600421C4F20001086827
:1020500040F0200008600C21C4F20001086840F044
:10206000040008601021C4F20001086820F0040098
:0A20700008601C20FEF79CFE80BDF6
:02207A00FEE77F
:10207C0080B543F60801C4F20101086808600868DD
:10208C0008600868086043F61441C4F2010108684E
:10209C0040F00E00086043F60041C4F201010868EC
:1020AC0040F00E00086043F60841C4F201010868D4
:1020BC0040F00E00086043F60C41C4F201010868C0
:1020CC0040F00E0008600720FEF76CFE0820FEF7BB
:0A20DC0069FE0920FEF766FE80BDD4
:0220E600FEE713
:1020E8000021C4F20101086840F0010008604FF0C7
:1020F8008041086840F0010008601421C4F2000122
:10210800086840F00100086040F60001C4F20001D0
:0A211800086840F0010008607047FD
:02212200FEE7D6
:102124000020C4F201000068C00768B90021C4F2AD
:102134000101086840F0010008601421C4F20001A4
:0A214400086840F0010008607047D1
:02214E00FEE7AA
:102150008CB00A9009910A9906910B910998086030
:1021600000208880881D0C31079108900899079AF3
:10217000002021F8020B084691420890F6D10699FA
:102180000020888101F10E00143104910590059919
:10219000049A002021F8020B084691420590F6D1DE
:1021A00006990020888201F116001C3102910390EB
:1021B0000399029A002021F8020B084691420390ED
:1021C000F6D106990020C86101F120002831009164
:1021D00001900199009A002041F8040B08469142B1
:0A21E0000190F6D10B980CB0704787
:0221EA00FEE70E
:1021EC0080B584B00390039802900022014601F858
:1021FC00072B01910130FEF77FFC02980330FEF7AC
:10220C007BFC02980530FEF777FC0198FEF774FC16
:06221C00029804B080BD31
:02222200FEE7D5
:1022240030B591EA030F00F18280841A71EB030C3C
:1022340005D2121953EB0C03001B71EB0C0140F295
:10224400000CCFF6E07C1CEA430F52D0BCEB410FEC
:102254005FD90C0DA4EB135E5FF0010C6CF31F51FE
:102264006CF31F53DEF1200C2AD303FA0CF540194A
:1022740041F1000122FA0EF5401923FA0EF56941E5
:1022840012FA0CF2CD0208D349085FEA30005FEA83
:10229400320228BF42F00102641C641E5FEA500C43
:1022A40072F1004250F1000051EB04514FF400135D
:1022B40013EB410F38BF30BD6FF31301002030BD65
:1022C400BEF1200EBEF1200F1ED223FA0EF54019E6
:1022D40041F10001CEF1200C124218BF012203FA91
:1022E4000CF52A43CEE711EA5C0F04BF002000215D
:1022F40030BD1CEA410F04BF01F00041002030BD95
:1023040001F00041002030BD21F4801101EB0451A3
:1023140030BD004218BF41F00101BCEB410F08BFC2
:1023240030BD4FF0FE4141F47801002030BD83F010
:102334000043841A71EB030E07D28EF0004E001B8B
:1023440071EB0E01121953EB0E0340F2000CCFF6A1
:10235400E07C1CEA430FC6D0BCEB410F72D90C0DD4
:10236400A4EB135EC90241EA5051C00241F000419E
:10237400DB0243EA5253D20243F00043DEF1200C65
:1023840041D312FA0CF522FA0EF203FA0CF542EAE2
:10239400050218BF42F0010223FA0EF3801A994194
:1023A400E30AC4F30A0411F0404F03D418D0641EA6
:1023B40040004941641E23D44205C00A40EA41500A
:1023C400C90A51EAC3715FEA500C72F1004250F13C
:1023D400000051EB045130BD01002FD00020203CFF
:1023E4000029F9D0B1FA81FCDCF1200E11FA0CF1CC
:1023F40030FA0EF510FA0CF02943A4EB0C04D9E7DB
:102404000020D90730BDAEF1200EBEF1200F0DD251
:10241400CEF1200C03FA0CF533FA0EF32A4318BF5D
:1024240043F00103C01A61F10001B9E721F0004152
:10243400C00A40EA4150C90A01EB045130BD0020F2
:10244400002130BD004218BF41F00101BCEB410F37
:0E2454007FF467AFBCEB430F3FF463AF30BDC6
:02246200FEE793
:102464002DE9F04391EA030E0EF0004E40F200070E
:10247400CFF6E07717EA41051EBFBD4217EA4305D0
:10248400BD4200F09F807F0D17EA135623EA47539D
:1024940043F4801317EA115521EA475141F480119E
:1024A400AD1B05F2FD354FEAD31C1CF1010C4FF0B6
:1024B4000047B7FBFCF77F01A2FB079C0024E3FB6A
:1024C40007C4D9F100096CEB4C0CA0FB0762002097
:1024D400E1FB072000275FEAC628E0FB0987760DA9
:1024E40046EAC226520DF61900277A41E0FB0C6237
:1024F4005FEAC823E2FB09375FEA585848EAC6286E
:10250400760D18EB070800214E41E2FB0C8602EB26
:10251400C020DA02E6FB09215B0D43EAC8235FEA27
:1025240058585B18002758EB0708E6FB0C38D10213
:10253400E8FB0917520D42EAC3225B0DD2190027AA
:102544007B41E8FB0C2308EBC6265FEAC128E3FBCA
:102554000987490D41EAC221520DC91942F100020D
:10256400E3FB0C12470019EB08095CEB010C72EB5E
:10257400040453EBC62047EB56530026B3F5000F73
:102584007641AD19B61CD6F1200910FA09F4F040D1
:1025940013FA09F21043F340E40F001943F1000366
:1025A400B3F5001F24BF5B086D1C40F2FE77BD42EB
:1025B40004D24EEA05511944BDE8F0832D4224D5D6
:1025C400714626E0004218BF41F00101124218BFD3
:1025D40043F00103B7EB410F2CBFB7EB430F1BE0F4
:1025E400B7EB410F04BFB7EB430F15E017EA410FF8
:1025F40004BF17EA430F0FE017EA410FE0D017EAD0
:10260400430F02D0B7EB430FDAD04EF0FE4141F452
:1026140070010020BDE8F08340F20001C7F6F871B4
:02262400F7E7D6
:02262600FEE7CD
:1026280010F0004160B148BF40420A0D02F21D425D
:10263800B0FA80F3D21A9840C30A400503EB02515E
:022648007047D9
:02264A00FEE7A9
:02264C00FEE7A7
:02264E00FEE7A5
:02265000FEE7A3
:02265200FEE7A1
:02265400FEE79F
:02265600FEE79D
:02265800FEE79B
:02265A00FEE799
:02265C00FEE797
:02265E00FEE795
:02266000FEE793
:02266200FEE791
:02266400FEE78F
:02266600FEE78D
:02266800FEE78B
:02266A00FEE789
:02266C00FEE787
:02266E00FEE785
:02267000FEE783
:02267200FEE781
:02267400FEE77F
:02267600FEE77D
:02267800FEE77B
:02267A00FEE779
:02267C00FEE777
:02267E00FEE775
:02268000FEE773
:02268200FEE771
:02268400FEE76F
:02268600FEE76D
:02268800FEE76B
:02268A00FEE769
:02268C00FEE767
:10268E0041F26020C0F600000468204600F001F818
:02269E00FBE758
:1026A00080B505281FD840F2082CC1F2000C42F278
:1026B000F7635CF82010C0F600034CF82030A9B195
:1026C00042F2F562C0F6000291420CD0994208D065
:1026D00042F2F363C0F60003994207D04CF8203071
:1026E0008847002008BD4FF0FF3008BD0120FEF7ED
:0226F000A0FA4E
:0226F20070472F
:0226F40070472D
:0226F60070472B
:1026F800B0EE401AB4EE400AF1EE10FAB0EE600AFD
:102708000BD6B4EE400AF1EE10FA07D6B4EE401A32
:10271800F1EE10FAC8BFB0EE410A7047B0EE410AB8
:022728007047F8
:10272A00B0EE401AB4EE400AF1EE10FAB0EE600ACA
:10273A000BD6B4EE400AF1EE10FA07D6B4EE401A00
:10274A00F1EE10FA48BFB0EE410A7047B0EE410A06
:02275A007047C6
:10275C00023900EB810090ED012A90ED001A00EE99
:10276C00021AB0EE412A10ED011A0438013900EEBC
:0A277C00021AF6D820EE010A704799
:06278600FFF782FFFEE7F1
:10278C00FEF770FF4EF68850CEF20000016851F44F
:08279C0070010160FEF740FA34
:0C27A40042F2B070C0F60000FFF7EBFF3F
:1027B00050757265207669727475616C2066756EED
:0E27C0006374696F6E2063616C6C6564210048
:0427D0002D060008CA
:0427D4003D120008AA
:1027D80000000000000000000102030406070809C9
:1027E80000B506480649884205D00268043003B49B
:1027F800904703BCF7E708BC18470000D02700083B
:04280800D8270008C5
:10280C004128000800000010730200004128000855
:10281C00000000200600000053280008740200107D
:10282C003C28000804000000E92700082F0C0008D1
:04283C000024F40080
:10284000206861680834002200E04254491EFCD52B
:022850007047CF
:1028520020686168A2680C3401E08B5C8354521ECC
:04286200FBD57047EB
:040000050800278D3B
:00000001FF
