:020000040800F2
:1000000000000220272600082F160008A50C000873
:10001000E71600084F1700086317000800000000EB
:10002000000000000000000000000000B7170008FA
:10003000CB17000800000000DF170008810B000844
:100040002318000833180008431800085F18000838
:100050008B180008A71800080F190008551D000884
:10006000A11D0008ED1D00081F1900083319000824
:10007000531900086F1900088B1900085B1A000853
:100080008F1B0008C31B0008E71B0008131C000897
:100090006B1C0008CB1C0008F71C00081B1D000887
:1000A000431D0008531D00089F1D0008EB1D00089C
:1000B000910B0008371E0008290C0008271F0008B4
:1000C000A31F00080F2000084B200008772000081D
:1000D000AF200008EF220008B3240008D72400084E
:1000E000D9240008DB240008DD240008DF240008F0
:1000F000E1240008E3240008E5240008E7240008C0
:10010000E9240008EB240008ED240008EF2400088F
:10011000F1240008F3240008F5240008F72400085F
:10012000650C0008F9240008FB240008FD240008E1
:10013000FF24000801250008032500080525000804
:1001400007250008092500080B2500080D250008D3
:100150000F250008112500081325000815250008A3
:1001600017250008192500081B2500081D25000873
:100170001F25000821250008232500080000000095
:080180002525000827250008D1
:1001880080B592B0119011990C918888CA88104452
:100198000A89104449890844404202F087F941EC31
:1001A800100B51EC100B9FED980B53EC102B019397
:1001B800009201F079FF41EC100B51EC100B9FED10
:1001C800940B53EC102B0593049201F049F941EC80
:1001D800100B51EC100B9FED900B53EC102B03936D
:1001E800029201F039F941EC100B51EC100B01F0BF
:1001F800E9F90C9910908889CA8910440A8A104430
:10020800498A0844404202F051F9009A019B41ECA6
:10021800100B51EC100B01F047FF049A059B41ECC1
:10022800100B51EC100B01F01BF9029A039B41ECE7
:10023800100B51EC100B01F00FF941EC100B51ECC5
:10024800100B01F0BFF90C990F90888ACA8A1044E4
:100258000A8B1044498B0844404202F027F9009A5F
:10026800019B41EC100B51EC100B01F01DFF049A9F
:10027800059B41EC100B51EC100B01F0F1F8029AC0
:10028800039B41EC100B51EC100B01F0E5F841EC2D
:10029800100B51EC100B01F095F90C990E90888B0E
:1002A800CA8B10440A8C1044498C084402F0FEF8AA
:1002B800049A059B41EC100B51EC100B01F0D0F89F
:1002C80041EC100B51EC100B01F07CF90D901098DB
:1002D80001F05EF941EC100B51EC100B9FED500B47
:1002E80053EC102B0993089201F0BAF841EC100B6B
:1002F80051EC100B9FED4C0B53EC102B0B930A9207
:1003080001F0AEF841EC100B51EC100B9FED480BCF
:1003180053EC102B0793069201F0E6FF41EC100B0B
:1003280051EC100B01F04EF90C9948620F9801F04E
:100338002FF9089A099B41EC100B51EC100B01F0B6
:100348008FF80A9A0B9B41EC100B51EC100B01F043
:1003580087F8069A079B41EC100B51EC100B01F043
:10036800C3FF41EC100B51EC100B01F02BF90C9969
:1003780088620E9801F00CF9089A099B41EC100B61
:1003880051EC100B01F06CF80A9A0B9B41EC100B26
:1003980051EC100B01F064F8069A079B41EC100B26
:1003A80051EC100B01F0A0FF41EC100B51EC100BBD
:1003B80001F008F90C99C8620D9801F0E9F8089A5B
:1003C800099B41EC100B51EC100B01F049F80A9A0B
:1003D8000B9B41EC100B51EC100B01F041F841EC78
:1003E800100B51EC100B9FED140B53EC102B01F07C
:1003F80037F841EC100B51EC100B01F0E3F80C99B5
:10040800086312B080BD00BF000000000000C040BB
:10041800000000000000D03F0000000000003E4047
:10042800000000000000403F666666666666FA3FA8
:100438009A9999999999B93F8195438B6C673440FA
:1004480080B58EB00D900D98019001F0FBFD0198DC
:1004580040F61802C4F20202116821F480111160FA
:100468006830029001F0FEFB029801F067FC10EE84
:10047800100A01F08DF841EC100B51EC100B9FEDB8
:10048800400B53EC102B0493039201F02DFF41EC29
:10049800100B51EC100B9FED3C0B53EC102B0693FB
:1004A800059201F001FE41EC100B51EC100B9FED91
:1004B800380B53EC102B0893079200F0D1FF41EC56
:1004C800100B51EC100B9FED340B53EC102B0A93CF
:1004D800099200F0C5FF41EC100B51EC100B01F034
:1004E80071F8014602980C9101F028FC10EE100AF0
:1004F80001F04EF8039A049B41EC100B51EC100BE1
:1005080001F0F2FE059A069B41EC100B51EC100B22
:1005180001F0CAFD079A089B41EC100B51EC100B37
:1005280000F09EFF099A0A9B41EC100B51EC100B4E
:1005380000F096FF024609980B460A9943EC102BE7
:1005480053EC102B00F088FF41EC100B51EC100B12
:1005580001F038F80B909DED0C0ABCEEC00A34206F
:10056800C4F2010080ED000A9DED0B0ABCEEC00A42
:100578003820C4F2010080ED000A0EB080BD00BF33
:100588000000000000003440000000000000F03FC0
:10059800000000000000E03F000000000068D040BC
:1005A80080B586B005900598049090F9040001F094
:1005B8007DFF41EC100B9FED1C1B53EC112B51ECF4
:1005C800100B00F04DFF0246049801920A4601996B
:1005D80042EC101B8DED020B90ED041A90ED050A0C
:1005E80030EE410A10EE100A00F0D2FF41EC100B79
:1005F8009FED0F1B53EC112B51EC100B01F074FE07
:100608009DED021B41EC100B51EC110B53EC102B20
:1006180001F06AFE41EC100B51EC100B00F0D2FF18
:100628000499C86106B080BD0000000000001840B1
:080638000000000080842E4147
:1006400086B000210591049102200390029101904F
:1006500043F60800C4F20200006800F00C000590A8
:100660000598009030B1009804280DD00098082813
:1006700014D057E040F2B011C1F2000142F2004044
:10068000C0F2F400086056E040F2B011C1F200017F
:1006900047F64000C0F27D1008604CE043F60400CD
:1006A000C4F202000168C1F380510291006800F0B9
:1006B0003F000190029880B1019947F64000C0F2D6
:1006C0007D10B0FBF1F043F60401C4F202010968A9
:1006D000C1F38811484304900FE0019942F20040B1
:1006E000C0F2F400B0FBF1F043F60401C4F20201E1
:1006F0000968C1F388114843049043F60400C4F22A
:100700000200006800F44031022000EBD130039079
:1007100004980399B0FBF1F040F2B011C1F200016E
:10072000086008E040F2B011C1F2000142F200405E
:10073000C0F2F400086043F60800C4F2020000684A
:10074000C0B2010942F27060C0F60000405C059042
:10075000059A40F2B011C1F200010868D04008606B
:0407600006B0704728
:1007640080B584B003900291039801900021016048
:1007740041608160103001F023FA01983C3001F0AF
:100784001FFA0198683000F08FF901980299C1604E
:0407940004B080BD70
:1007980080B584B0039002910398019010300299BB
:1007A80001F01EFA01983C300299143101F018FA50
:1007B800019868300299283100F088F904B080BDAA
:1007C80080B582B001903421C4F201010020086094
:1007D8003821C4F2010108603C21C4F2010108601B
:1007E80000F0A8FC41F21801C4F20201086820F0E8
:0807F8007C50086002B080BDD6
:1008000080B584B00390039802909FED170A8DED98
:10081000000AF1EE040A9FED151ADFED151A9FED9F
:10082000152A8DED012A01F0B3F902989DED000A19
:100830009DED012A1430F6EE000A9FED0F1AF1EE3D
:10084000001A01F0A5F902989DED000A9DED012A1C
:100850002830F2EE040A9FED091AF0EE421A00F079
:1008600007F9029804B080BD17B75139A69B443BE5
:100870000000C842000000000AD7233C00004842A4
:1008800082B00190009101990098486002B07047D1
:1008900080B582B001900198009000F0D3FF0098DD
:1008A00040F6F801C0F600010831016002B080BDD9
:1008B00080B582B001900198009000F0C3FF0098CD
:1008C00040F60411C0F600010831016002B080BD9D
:1008D00080B582B001900198009000F0B3FF0098BD
:1008E00040F61011C0F600010831016002B080BD71
:0808F00081B0009001B07047D7
:0C08F8000000000000000000B91700081C
:0C0904000000000000000000CD170008FB
:0C0910000000000000000000F1080008DA
:0C091C0000000000000000003F26000862
:1009280082B0019000910199009840684860009851
:10093800006808600098806888600098C068C8608F
:0409480002B0704742
:10094C0081B00090009900204861086101B07047A7
:10095C0080B586B005908DED040ACDED030A8DEDC2
:10096C00021ACDED011A059800909DED040ADDEDFB
:10097C00030A9DED021ADDED011A01F0A1F90098B0
:04098C0006B080BD74
:1009900080B582B001900198009001F0ADF9009807
:1009A00040F66021C0F60001083140F8181B00F045
:0809B0006DFF009802B080BD4C
:1009B80080B584B003900398019090ED040A90EDFF
:1009C800051A20EE011AB7EE000A80EE010ABDEE04
:1009D800C00A8DED020A0298132806DC40F2901135
:1009E800C1F20001002008600FE001981830009063
:1009F800B7EE000A00F054FF009800F085FF40F2BF
:100A08009010C1F2000080ED000A019840F29011A8
:100A1800C1F2000191ED000A90ED021AB4EE410A0C
:100A2800F1EE10FA09DB01981830FFF78BFF40F25E
:100A38009011C1F2000100200860019840F2901165
:100A4800C1F2000191ED000A90ED031A30EE010A9F
:080A580080ED010A04B080BD2D
:100A600000000000000000003D0B0008B90900086C
:100A700080B588B007908DED060ACDED050A8DEDA5
:100A8000041ACDED031A8DED022A079801909DED11
:100A9000060ADDED050A9DED041ADDED031A01F0ED
:0C0AA00015F901980299016108B080BDB1
:100AAC0080B582B001900198009001F01FF9009878
:100ABC0040F62C31C0F60001083140F81C1BFFF742
:080ACC0061FF009802B080BD3B
:100AD40080B588B007900691079800900699C96878
:100AE40041610699096881600699896801610699DE
:100AF4004968C16006990969816190ED041A90ED15
:100B0400050A02A80190DFED060ADFED061AFFF7D9
:100B140023FF009801991C3001F07AF808B080BDD9
:080B2400DB0FC94000000000D6
:100B2C0000000000000000003D0B00086D1C0008D8
:100B3C0082B001900091019900980068886000983B
:100B4C004068C8600098806808610098C068486177
:040B5C0002B070472C
:100B600000000000000000003D0B00081D1D0008F3
:100B700081B00090009800210170417001B0704771
:100B800040F28411C1F2000108680130086070472A
:100B900080B51020C4F2000000684007002842D54C
:100BA00040F28810C1F20000016801310160006864
:100BB00041F2883188421BD11420C4F2020000683F
:100BC0004006002807D51821C4F20201086840F445
:100BD0008000086006E01821C4F20201086840F0B5
:100BE0004000086040F28811C1F200010020086056
:100BF00040F2F400C1F20000FFF7C6FA40F28C1098
:100C0000C1F20000006838B140F28C10C1F200005F
:100C100000680168096888471021C4F2000108686B
:080C200020F00400086080BD13
:100C280080B540F61000C4F200000068C00760B14B
:100C380040F2F400C1F2000000F0F6FC40F280112E
:100C4800C1F2000108683230086040F61001C4F2B1
:0C0C58000001086820F00100086080BD69
:100C640080B546F20040C4F2020000688006002805
:100C74000BD546F20841C4F202012020086040F27C
:0C0C8400F400C1F2000000F02DFD80BD66
:100C9000034C206804348047FBE700F0F1FAFEE7DC
:040CA000A42600087E
:100CA40008490A68002AFED41EF0040F0CBFEFF3B3
:100CB4000880EFF3098042F000420A608169023142
:080CC400816170472CED00E096
:100CCC0080B584B043F63001C4F20201086840F0EC
:100CDC000400086043F64402C4F20202106840F4B7
:100CEC0080701060086840F48000086040F60001D5
:100CFC00C4F20201086820F0FF000860086840F0A8
:100D0C00FF00086046F21041C4F20201009100207D
:100D1C000190086046F21842C4F2020242F24C0002
:100D2C00C4F20100106046F21442C4F20202042024
:100D3C001060086840F480600860086840F4205037
:100D4C00086008680860086820F0C000086008683F
:100D5C0040F010000860382000F05EF8019842F274
:100D6C000403C4F20103186042F20802C4F2010247
:100D7C0002921060196841F480711960116821F0B9
:100D8C0002011160116841F480711160116841F425
:100D9C000071116042F22C0CC4F2010CDCF8001052
:100DAC0021F47001CCF80010DCF8001041F4401173
:100DBC00CCF8001042F2340CC4F2010C4BF26A1164
:100DCC00C0F20601CCF8001042F20C0CC4F2010C7B
:100DDC00DCF8001040F6FF7E21EA0E01CCF8001082
:100DEC00DCF8001040F2DB6E41EA0E01CCF800108A
:100DFC00196821F020011960116841F0010111609E
:100E0C0003900398B0F57A7F04DA00BF03980130A1
:080E1C000390F6E704B080BD6D
:100E240081B08DF803009DF9030000280CD49DF9CE
:100E3400031001F01F02012090404A094EF20011F4
:0C0E4400CEF2000141F8220001B070471E
:100E500043F63001C4F20201086840F00100086066
:100E6000086840F010000860086840F0040008605E
:100E700041F20001C4F20201086820F40070086029
:100E8000086820F0800008600021C4F202010868B0
:100E900020F00200086041F20C02C4F20202106865
:100EA00040F480701060106840F0400010600C2228
:100EB000C4F20202106840F002001060086840F4BA
:100EC000805008601822C4F20202106840F040000E
:100ED0001060086820F008000860086820F0200012
:100EE0000860086820F08000086040F60001C4F245
:100EF0000201086840F48070086040F60C01C4F2FA
:100F00000201086840F48070086040F60401C4F2F1
:0C0F10000201086840F010000860704703
:100F1C0043F64401C4F20201086840F00100086085
:100F2C0043F63001C4F20201086840F0100008607A
:100F3C0041F20001C4F20201086840F4003008607C
:100F4C00086840F400200860086840F4001008604D
:100F5C00086840F40000086041F20801C4F2020184
:100F6C00086840F400300860086840F4002008600D
:100F7C00086840F400100860086840F4000008603D
:100F8C0041F22401C4F20201086840F0010008603B
:100F9C00086840F010000860086840F48070086031
:100FAC00086840F4805008602821C4F20101002038
:100FBC0008600021C4F201010A6842F060020A6074
:100FCC002C23C4F2010344F29F121A603422C4F29F
:100FDC00010210603822C4F2010210603C22C4F2FB
:100FEC0001021060086840F0800008600821C4F21B
:100FFC000101086840F010000860086840F0040027
:10100C0008601822C4F20102106840F06000106001
:10101C00106820F003001060106840F008001060A9
:10102C002021C4F20101086840F001000860086842
:10103C0040F004000860106840F4C0401060106874
:10104C0020F440701060106840F400601060086874
:10105C0040F010000860086840F0400008601C2256
:10106C00C4F20102106840F060001060106820F0BB
:10107C0003001060106840F008001060086840F42D
:10108C0080700860086840F4806008604421C4F2F5
:10109C000101086820F0FF000860086840F0540067
:0C10AC000860086840F4004008607047CD
:1010B80080B543F64001C4F20201086840F004001C
:1010C800086040F62801C4F200010020086040F6DC
:1010D8000001C4F20001086820F060000860086898
:1010E80040F01000086040F62C01C4F2000141F203
:1010F8006700086040F60801C4F20001086840F083
:1011080010000860086840F00400086040F60C0110
:10111800C4F20001086840F00100086040F61001C0
:10112800C4F20001086820F0010008601E20FFF7E3
:0411380075FE80BD03
:10113C000021C4F20101086820F00100086070472A
:10114C0080B540F24810C1F2000000F0EDFB80BD0C
:10115C0080B540F2F400C1F2000040F20001C2F28E
:08116C00000100F001F880BD54
:101174008EB00C900B910C9908910D910B9808600E
:1011840000208880881D0C3109910A900A99099AD7
:10119400002021F8020B084691420A90F6D10899E2
:1011A4000020888101F10E001431069107900799FF
:1011B400069A002021F8020B084691420790F6D1C6
:1011C40008990020888201F116001C3104910590D1
:1011D4000599049A002021F8020B084691420590D3
:1011E400F6D108990020888301F11E002431029170
:1011F40003900399029A002021F8020B08469142B9
:101204000390F6D108990020486201F12800343196
:10121400009101900199009A002041F8040B0846BE
:0C12240091420190F6D10D980EB0704779
:1012300080B540F2A410C1F2000000F01DFF80BD97
:1012400080B540F20000C1F2000040F2F401C1F2AA
:081250000001FFF787FA80BDE1
:1012580080B540F2B800C1F20000FFF7CDFA80BDBA
:1012680080B540F22810C1F2000040F20001C1F23E
:08127800000100F073FA80BDD3
:1012800080B582B00020019000F062FA72B600F0E2
:10129000D3FDFFF7DDFDFFF741FE00F045FEFFF750
:1012A0000BFF00F07FFEFFF711FD40F2F400C1F2EA
:1012B000000000F0B1F968469FED1F0A00F030FB16
:1012C00040F20000C1F2000040F2B801C1F200019A
:1012D000FFF762FA62B600F09BFE40F2AD10C1F279
:1012E00000000078C00730B140F22810C1F20000C1
:1012F00000F098FA13E040F2AE10C1F2000000785E
:10130000C00730B140F22810C1F2000000F092FA9C
:1013100005E040F22810C1F2000000F083FA40F22C
:101320002810C1F2000000F05BFA40F28C11C1F20B
:0C13300000010860D1E700BF17B7513979
:10133C0080B5FFF705FFFFF70BFFFFF773FFFFF714
:0C134C0079FFFFF783FFFFF789FF80BDEA
:041358000000000091
:10135C0010EE100AC10D4FF0FF3252FA81F1FE2946
:10136C000FD2B5EE400AF1EE10FA52BF9FED0A1AF9
:10137C009FED081AB1EE400AF0EE400A002000F092
:10138C000DB8C0F3C750FE2888BF9FED010A704707
:0C139C000000C07F000000800000000086
:1013A80010B52DED048B9FED222A9FED223A30EEE9
:1013B800822A82EE032ABDEEC22AB8EEC23ABEEEF7
:1013C800004A002818BF33EE043A9FED1B4AB0EEDE
:1013D800408A03EE048A9FED190A03EE008AB0EEF4
:1013E800C80A9FED173AB4EE430AF1EE10FAB0EED0
:1013F800419A12EE104A0ADB28EE080A41F24C40E4
:10140800C0F60000052101F0F2F808EE008AE007B6
:1014180018BFB1EE499A19EE100A18EE101A00F02A
:101428000040484000EE100ABDEC048B10BD00BF20
:10143800DB0FC93FDB0F4940001049C07A771537E9
:04144800FFE6DB2EB2
:10144C00ABAA2ABE9788083C281050B99329393684
:04145C00D4AAD5B287
:0814600083F0004300F024BEFC
:10146800F0B540F2FF7681EA030C16EA115E1EBF62
:10147800B64516EA1355B54252D021EA465141F411
:101488008011A1FB024723EA465343F48013AE447C
:10149800A0FB03650CF0004C36197D41A1FB034706
:1014A80047F10003A0FB0217F619654153F1000349
:1014B800094218BF46F0010640F2FE74B3F5007FFA
:1014C80013D2AEF5806EA64523D24CEA0331280329
:1014D80041EA155140EA16503203450872F10042BC
:1014E80050F1000051EB0E51F0BDAEF2FF3EA645A3
:1014F8000FD24CEAC321E80241EA555140EA56505E
:10150800F202450872F1004250F1000051EB0E5111
:10151800F0BD1EEA0E0F2DD50CF000410020F0BDE5
:1015280016EA115F04BF01F000410020004218BF15
:1015380041F0010116EA135F04BF03F000430022E3
:10154800124218BF43F0010306EA1354B44218BF0D
:10155800B64503D00CF000410020F0BD21F0004159
:1015680023F00043B1EB065F0CD8B3EB065F09D854
:1015780041B13BB10CF0004141F0FE4141F4700132
:101588000020F0BD40F20001C7F6F8710020F0BD60
:10159800C0F3C75191B142004FEA40704FEAD201FF
:1015A8004FEA310101F16051B2F17F4F38BF704706
:1015B80001F1605118BF41F40021704710F000415B
:0415C8000020704748
:1015CC0001F000428B1AA3F16051B1F5801F0ADBC8
:1015DC00B1F17F6F09D242EAC102C10071F1004141
:1015EC0042EB507070471046704701285B4113F571
:1015FC00001F02D842F0FF407047C90041EA50700A
:0C160C00104340F4800040F08040704724
:1016180081B000900098006846F21C41C4F20201B3
:06162800086001B07047EC
:02162E00FEE7D5
:1016300084B0039046F21041C4F20201086820F021
:101640000100086042F21070029046F21040C4F2AD
:10165000020001680020C907009041B102980138DA
:10166000029000284FF00000C8BF012000900098B1
:10167000C00708B100BFE8E746F20841C4F2020122
:101680003920086046F21441C4F2020104200860C7
:1016900046F21041C4F20201086840F001000860FF
:1016A00042F20800C4F201000068C00788B942F2A3
:1016B0000801C4F20101086840F001000860002040
:1016C00001900198632804DC00BF0198013001906B
:1016D000F7E742F20801C4F20101086840F08040D7
:0616E000086004B0704731
:0216E600FEE71D
:1016E80082B001900198009040F2A010C1F2000071
:1016F8000068042805D140F2A011C1F200010020C1
:101708000860009A1068008840F2A011C1F2000138
:101718000B6802EB43039880106840880B6802EB63
:1017280043039881106880880B6802EB4303988212
:101738001068C0880B6802EB430290830868013088
:06174800086002B07047CA
:02174E00FEE7B4
:101750004EF68851CEF20001086840F4700008602F
:021760007047D0
:02176200FEE7A0
:1017640080B586B00590049105980390002101701E
:10177400416008300090FFF789F803981030019019
:10178400FFF794F8039818300290FFF79FF8009839
:10179400039A049951600499FFF770F80198049929
:1017A400FFF76CF802980499FFF768F8039806B0FD
:0217B40080BDF6
:0217B600FEE74C
:1017B80080B582B0019001984068FFF701F802B047
:0217C80080BDE2
:0217CA00FEE738
:1017CC0080B582B0019001984068FEF737FE02B0F8
:0217DC0080BDCE
:0217DE00FEE724
:1017E00084B002900298009000780146019130B1D7
:1017F0000198012807D00198022808D00BE0009832
:10180000083003900AE000981030039006E000983A
:101810001830039002E0009808300390039804B059
:0218200070470F
:02182200FEE7DF
:0E18240081B0009000990020087001B070475C
:02183200FEE7CF
:0E18340081B0009000990120087001B070474B
:02184200FEE7BF
:1018440081B00090009840F61C11C0F600010831E8
:0A18540001600021416001B07047FF
:02185E00FEE7A3
:1018600085B004908DED030ACDED020A8DED011ACD
:10187000CDED001A04980299416003990160019925
:0A18800081600099C16005B0704757
:02188A00FEE777
:10188C0081B0009000980021016041608160C160CE
:0A189C0001614161816101B07047F4
:0218A600FEE75B
:1018A80080B584B003908DED020A039801900299E7
:1018B800816190ED003A90ED010A90ED051A90EDE6
:1018C800062A80EE030A20EE020A30EE010A40F2F0
:1018D8009C11C1F2000181ED000A0A68026191EDD4
:1018E800000AD0ED020A00F069FE019880ED050AB1
:1018F800D0ED030A90ED050A00F047FE019880ED4F
:06190800050A04B080BDD9
:02190E00FEE7F2
:0E19100081B00090009890ED050A01B070477C
:02191E00FEE7E2
:1019200082B001908DED000A01980099016002B02B
:021930007047FE
:02193200FEE7CE
:1019340081B00090009800210171417181600173B0
:0E1944004173016141618161C16101B0704771
:02195200FEE7AE
:1019540082B0019000910198009991ED000AB8EECF
:0A196400C00A80ED040A02B07047CB
:02196E00FEE792
:1019700082B0019000910198009991ED000AB8EEB3
:0A198000C00A80ED050A02B07047AE
:02198A00FEE776
:10198C0082B001900198009090F9040001281CD1BC
:10199C00009841790131417190F9050048F68802AF
:1019AC00C0F688024EF6EF61CEF6EE6100FB012028
:1019BC004FEAB00044F24441C0F24441884203D89B
:1019CC00009988680130886021E0009890F9040043
:1019DC000130E0B9009841790139417190F9050065
:1019EC0048F68802C0F688024EF6EF61CEF6EE613C
:1019FC0000FB01204FEAB00044F24441C0F24441E4
:101A0C00884203D80099886801388860FFE70098FD
:101A1C0090F905003C2804D0009890F905003C3062
:101A2C0010B9009900204871009881684FF4B47285
:101A3C00514390F9052002EB420201EB420100EE0A
:0E1A4C00101AB8EEC00A80ED060A02B070470C
:021A5A00FEE7A5
:101A5C0082B00190019800901021C4F20201096833
:101A6C0001F00E014173007B002800F08380009888
:101A7C0090F90C00082804D1009890F90D000A2860
:101A8C0031D0009890F90C000A2804D1009890F9F4
:101A9C000D00022827D0009890F90C00022804D1E0
:101AAC00009890F90D0006281DD0009890F90C00B4
:101ABC00062804D1009890F90D00042813D0009842
:101ACC0090F90C00042804D1009890F90D000C2812
:101ADC0009D0009890F90C000C2808D1009890F9C6
:101AEC000D00082803D10099012008713EE00098F0
:101AFC0090F90C00022804D1009890F90D000A28E6
:101B0C0031D0009890F90C000A2804D1009890F973
:101B1C000D00082827D0009890F90C00082804D153
:101B2C00009890F90D000C281DD0009890F90C002D
:101B3C000C2804D1009890F90D00042813D00098BB
:101B4C0090F90C00042804D1009890F90D00062897
:101B5C0009D0009890F90C00062807D1009890F94C
:101B6C000D00022802D10099FF2008710099487BD2
:101B7C00087304E00099487B08730020087102B0D8
:021B8C007047A0
:021B8E00FEE770
:101B900086B005908DED040ACDED030A8DED021A95
:101BA000CDED011A8DED002A059804990160039985
:101BB0004160029981600199C1600099016106B09C
:021BC00070476C
:021BC200FEE73C
:101BC40081B0009000980021016041608160C16093
:101BD400016141618161C16101624162816201B05F
:021BE400704748
:021BE600FEE718
:101BE80082B00190009101990098006808600098FF
:101BF800406848600098806888600098C068C8603D
:0A1C080000980069086102B07047FF
:021C1200FEE7EB
:101C140080B588B007900691079800900699C96826
:101C2400416106990968816006998968016106998C
:101C34004968C16090ED021A90ED040AD0ED050ADE
:101C440020EE012AB7EE000A80EE020AF1EE411AF4
:101C540002A80190FFF702FE009801991830FEF7E0
:061C640061FE08B080BD26
:021C6A00FEE793
:101C6C0080B584B00390039801901C300090FEF76F
:101C7C009DFE0098019991ED020A8DED020A00F08B
:101C8C005BF8019890ED061A30EE010AFFF760FB45
:101C9C000198B0EE401A9DED020A20EE010A40F2C6
:101CAC009411C1F2000181ED000A91ED000A90ED52
:0E1CBC00031A30EE010A80ED010A04B080BD6B
:021CCA00FEE733
:101CCC0085B004908DED030ACDED020A8DED011A5D
:101CDC00CDED001A04980399C16002990160019935
:0A1CEC0081600099416005B0704767
:021CF600FEE707
:101CF80081B00090009840F66031C0F600010831CC
:101D08000160002141608160C1600161416101B0F1
:021D1800704712
:021D1A00FEE7E2
:101D1C0081B00090009940F29810C1F2000090ED53
:101D2C00000AB7EE001A30EE010A80ED000A0068D6
:061D3C00486001B0704791
:021D4200FEE7BA
:0E1D440081B00090009890ED010A01B0704748
:021D5200FEE7AA
:101D540080B582B043F61441C4F20101086840F032
:101D64000200086040F24810C1F20000009040F206
:101D74008011C1F200010191FFF7F8FD0098FFF70F
:101D84006BFE0098FFF700FE0098FEF70BFC00982E
:0A1D94000199FFF7DDFD02B080BDEC
:021D9E00FEE75E
:101DA00080B582B043F61441C4F20101086840F0E6
:101DB0000400086040F24810C1F20000009040F2B8
:101DC0008011C1F200010191FFF7D2FD0098FFF7E9
:101DD00045FE0098FFF7DAFD0098FEF7E5FB009856
:0A1DE0000199FFF7B7FD02B080BDC6
:021DEA00FEE712
:101DEC0080B582B043F61441C4F20101086840F09A
:101DFC000800086040F24810C1F20000009040F268
:101E0C008011C1F200010191FFF7ACFD0098FFF7C2
:101E1C001FFE0098FFF7B4FD0098FEF7BFFB00987B
:0A1E2C000199FFF791FD02B080BD9F
:021E3600FEE7C5
:101E380080B582B043F60001C4F20201086840F49C
:101E48008030086043F60000C4F202000068800396
:101E5800002800D4F6E743F60001C4F2020108683E
:101E680020F08070086043F60402C4F20202019276
:101E7800106840F480001060106820F03F00106087
:101E8800106840F004001060106847F6C07398436B
:101E98001060106840F428501060106820F440303A
:101EA800106043F60802C4F202021068106010685D
:101EB80040F4A0501060106840F4004010600868BA
:101EC80040F08070086043F60000C4F20200006829
:101ED8008001002800D4F6E743F60041C4F202016D
:101EE800086840F203721043086043F60801C4F220
:101EF8000201086820F003000860086840F002004A
:101F0800086043F60800C4F20200006800F00C0004
:0E1F1800082800D0F5E7FEF78FFB02B080BD71
:021F2600FEE7D4
:101F280080B543F64001C4F20201086840F00100A0
:101F380008602821C4F20001002008604FF08041A9
:101F4800086820F060000860086840F01000086029
:101F58002C21C4F2000144F29F1008603821C4F219
:101F6800000142F2D00008600421C4F200010868B0
:101F780040F0200008600C21C4F20001086840F01D
:101F8800040008601021C4F20001086820F0040071
:0A1F980008601C20FEF742FF80BD28
:021FA200FEE758
:101FA40080B543F60801C4F20101086808600868B6
:101FB40008600868086043F61441C4F20101086827
:101FC40040F00E00086043F60041C4F201010868C5
:101FD40040F00E00086043F60841C4F201010868AD
:101FE40040F00E00086043F60C41C4F20101086899
:101FF40040F00E0008600720FEF712FF0820FEF7ED
:0A2004000FFF0920FEF70CFF80BD5E
:02200E00FEE7EB
:102010000021C4F20101086840F0010008604FF09F
:102020008041086840F0010008601421C4F20001FA
:10203000086840F00100086040F60001C4F20001A9
:0A204000086840F0010008607047D6
:02204A00FEE7AF
:10204C000020C4F201000068C00768B90021C4F286
:10205C000101086840F0010008601421C4F200017D
:0A206C00086840F0010008607047AA
:02207600FEE783
:1020780080B584B00390039802900022014601F8CD
:10208800072B01910130FEF76FFD02980330FEF730
:102098006BFD02980530FEF767FD0198FEF764FDB9
:0620A800029804B080BDA7
:0220AE00FEE74B
:1020B00030B591EA030F00F18280841A71EB030CB2
:1020C00005D2121953EB0C03001B71EB0C0140F20B
:1020D000000CCFF6E07C1CEA430F52D0BCEB410F62
:1020E0005FD90C0DA4EB135E5FF0010C6CF31F5174
:1020F0006CF31F53DEF1200C2AD303FA0CF54019C0
:1021000041F1000122FA0EF5401923FA0EF569415A
:1021100012FA0CF2CD0208D349085FEA30005FEAF8
:10212000320228BF42F00102641C641E5FEA500CB8
:1021300072F1004250F1000051EB04514FF40013D2
:1021400013EB410F38BF30BD6FF31301002030BDDA
:10215000BEF1200EBEF1200F1ED223FA0EF540195B
:1021600041F10001CEF1200C124218BF012203FA06
:102170000CF52A43CEE711EA5C0F04BF00200021D2
:1021800030BD1CEA410F04BF01F00041002030BD0A
:1021900001F00041002030BD21F4801101EB045119
:1021A00030BD004218BF41F00101BCEB410F08BF38
:1021B00030BD4FF0FE4141F47801002030BD83F086
:1021C0000043841A71EB030E07D28EF0004E001B01
:1021D00071EB0E01121953EB0E0340F2000CCFF617
:1021E000E07C1CEA430FC6D0BCEB410F72D90C0D4A
:1021F000A4EB135EC90241EA5051C00241F0004114
:10220000DB0243EA5253D20243F00043DEF1200CDA
:1022100041D312FA0CF522FA0EF203FA0CF542EA57
:10222000050218BF42F0010223FA0EF3801A994109
:10223000E30AC4F30A0411F0404F03D418D0641E1B
:1022400040004941641E23D44205C00A40EA41507F
:10225000C90A51EAC3715FEA500C72F1004250F1B1
:10226000000051EB045130BD01002FD00020203C74
:102270000029F9D0B1FA81FCDCF1200E11FA0CF141
:1022800030FA0EF510FA0CF02943A4EB0C04D9E750
:102290000020D90730BDAEF1200EBEF1200F0DD2C7
:1022A000CEF1200C03FA0CF533FA0EF32A4318BFD3
:1022B00043F00103C01A61F10001B9E721F00041C8
:1022C000C00A40EA4150C90A01EB045130BD002068
:1022D000002130BD004218BF41F00101BCEB410FAD
:0E22E0007FF467AFBCEB430F3FF463AF30BD3C
:0222EE00FEE709
:1022F0002DE9F04391EA030E0EF0004E40F2000784
:10230000CFF6E07717EA41051EBFBD4217EA430545
:10231000BD4200F09F807F0D17EA135623EA475312
:1023200043F4801317EA115521EA475141F4801113
:10233000AD1B05F2FD354FEAD31C1CF1010C4FF02B
:102340000047B7FBFCF77F01A2FB079C0024E3FBDF
:1023500007C4D9F100096CEB4C0CA0FB076200200C
:10236000E1FB072000275FEAC628E0FB0987760D1E
:1023700046EAC226520DF61900277A41E0FB0C62AC
:102380005FEAC823E2FB09375FEA585848EAC628E3
:10239000760D18EB070800214E41E2FB0C8602EB9C
:1023A000C020DA02E6FB09215B0D43EAC8235FEA9D
:1023B00058585B18002758EB0708E6FB0C38D10289
:1023C000E8FB0917520D42EAC3225B0DD219002720
:1023D0007B41E8FB0C2308EBC6265FEAC128E3FB40
:1023E0000987490D41EAC221520DC91942F1000283
:1023F000E3FB0C12470019EB08095CEB010C72EBD4
:10240000040453EBC62047EB56530026B3F5000FE8
:102410007641AD19B61CD6F1200910FA09F4F04046
:1024200013FA09F21043F340E40F001943F10003DB
:10243000B3F5001F24BF5B086D1C40F2FE77BD4260
:1024400004D24EEA05511944BDE8F0832D4224D54B
:10245000714626E0004218BF41F00101124218BF48
:1024600043F00103B7EB410F2CBFB7EB430F1BE069
:10247000B7EB410F04BFB7EB430F15E017EA410F6D
:1024800004BF17EA430F0FE017EA410FE0D017EA45
:10249000430F02D0B7EB430FDAD04EF0FE4141F4C8
:1024A00070010020BDE8F08340F20001C7F6F8712A
:0224B000F7E74C
:0224B200FEE743
:1024B40010F0004160B148BF40420A0D02F21D42D3
:1024C400B0FA80F3D21A9840C30A400503EB0251D4
:0224D40070474F
:0224D600FEE71F
:0224D800FEE71D
:0224DA00FEE71B
:0224DC00FEE719
:0224DE00FEE717
:0224E000FEE715
:0224E200FEE713
:0224E400FEE711
:0224E600FEE70F
:0224E800FEE70D
:0224EA00FEE70B
:0224EC00FEE709
:0224EE00FEE707
:0224F000FEE705
:0224F200FEE703
:0224F400FEE701
:0224F600FEE7FF
:0224F800FEE7FD
:0224FA00FEE7FB
:0224FC00FEE7F9
:0224FE00FEE7F7
:02250000FEE7F4
:02250200FEE7F2
:02250400FEE7F0
:02250600FEE7EE
:02250800FEE7EC
:02250A00FEE7EA
:02250C00FEE7E8
:02250E00FEE7E6
:02251000FEE7E4
:02251200FEE7E2
:02251400FEE7E0
:02251600FEE7DE
:02251800FEE7DC
:02251A00FEE7DA
:02251C00FEE7D8
:02251E00FEE7D6
:02252000FEE7D4
:02252200FEE7D2
:02252400FEE7D0
:02252600FEE7CE
:1025280041F25830C0F600000468204600F001F877
:02253800FBE7BF
:10253A0080B505281FD840F2681CC1F2000C42F28F
:10254A0091535CF82010C0F600034CF82030A9B172
:10255A0042F28F52C0F6000291420CD0994208D042
:10256A0042F28D53C0F60003994207D04CF820304E
:10257A008847002008BD4FF0FF3008BD0120FEF754
:02258A0089FBCB
:02258C00704796
:02258E00704794
:02259000704792
:10259200B0EE401AB4EE400AF1EE10FAB0EE600A64
:1025A2000BD6B4EE400AF1EE10FA07D6B4EE401A9A
:1025B200F1EE10FAC8BFB0EE410A7047B0EE410A20
:0225C200704760
:1025C400B0EE401AB4EE400AF1EE10FAB0EE600A32
:1025D4000BD6B4EE400AF1EE10FA07D6B4EE401A68
:1025E400F1EE10FA48BFB0EE410A7047B0EE410A6E
:0225F40070472E
:1025F600023900EB810090ED012A90ED001A00EE01
:10260600021AB0EE412A10ED011A0438013900EE23
:0A261600021AF6D820EE010A704700
:06262000FFF782FFFEE758
:10262600FFF793F84EF68850CEF20000016851F499
:0826360070010160FEF729FBB1
:0C263E0042F24A60C0F60000FFF7EBFF1C
:10264A0050757265207669727475616C2066756E54
:0E265A006374696F6E2063616C6C65642100AF
:04266800410600081F
:04266C003D13000812
:102670000000000000000000010203040607080932
:1026800000B506480649884205D00268043003B404
:10269000904703BCF7E708BC18470000682600080D
:0426A0007026000898
:1026A400D926000800000010AF010000D926000858
:1026B4000000002008000000EB260008B001001014
:1026C400D426000804000000812600089B0C0008A2
:0426D4000024F400EA
:1026D800206861680834002200E04254491EFCD595
:0226E800704739
:1026EA0020686168A2680C3401E08B5C8354521E36
:0426FA00FBD5704755
:0400000508002627A2
:00000001FF
