:020000040800F2
:1000000000000220B13800089F260008251C0008C7
:1000100057270008BF270008D3270008000000006A
:10002000000000000000000000000000E7270008BA
:10003000FB270008000000004F2800089D1800085A
:100040006328000877280008BB280008CB28000890
:10005000DB280008F728000823290008C119000838
:100060006D1A0008191B00083F290008A72900087D
:10007000B7290008CB290008DF290008EB29000870
:100080001B2A0008272A0008632A0008772A00088C
:10009000972A0008A72A0008B72A0008C72A0008DC
:1000A000E32A0008FF2A0008332C0008672C000808
:1000B000AD1800088B2C000865190008B72C000843
:1000C000672D0008772D0008CF2D00082F2E00087F
:1000D000CB2E0008F72E00081B2F0008432F000826
:1000E000532F0008EF300008DF3100081F320008EE
:1000F000AF320008EB320008173300084F33000816
:100100008F35000853370008773700087937000823
:100110007B3700087D3700087F37000881370008EB
:10012000C51B00088337000885370008873700089B
:10013000893700088B3700088D3700088F37000893
:100140009137000893370008953700089737000863
:10015000993700089B3700089D3700089F37000833
:10016000A1370008A3370008A5370008A737000803
:10017000A9370008AB370008AD37000800000000C1
:08018000AF370008B137000899
:1001880080B592B0119011990C918888CA88104452
:100198000A89104449890844404203F0D7FA41ECDF
:1001A800100B51EC100B9FED980B53EC102B019397
:1001B800009203F0C9F841EC100B51EC100B9FEDC5
:1001C800940B53EC102B0593049202F04DF941EC7B
:1001D800100B51EC100B9FED900B53EC102B03936D
:1001E800029202F03DF941EC100B51EC100B02F0B9
:1001F80021FA0C9910908889CA8910440A8A1044F7
:10020800498A0844404203F0A1FA009A019B41EC54
:10021800100B51EC100B03F097F8049A059B41EC76
:10022800100B51EC100B02F01FF9029A039B41ECE2
:10023800100B51EC100B02F013F941EC100B51ECC0
:10024800100B02F0F7F90C990F90888ACA8A1044AB
:100258000A8B1044498B0844404203F077FA009A0D
:10026800019B41EC100B51EC100B03F06DF8049A54
:10027800059B41EC100B51EC100B02F0F5F8029ABB
:10028800039B41EC100B51EC100B02F0E9F841EC28
:10029800100B51EC100B02F0CDF90C990E90888BD5
:1002A800CA8B10440A8C1044498C084403F04EFA57
:1002B800049A059B41EC100B51EC100B02F0D4F89A
:1002C80041EC100B51EC100B02F0B4F90D901098A2
:1002D80002F096F941EC100B51EC100B9FED500B0E
:1002E80053EC102B0993089202F0BEF841EC100B66
:1002F80051EC100B9FED4C0B53EC102B0B930A9207
:1003080002F0B2F841EC100B51EC100B9FED480BCA
:1003180053EC102B0793069203F036F941EC100BBF
:1003280051EC100B02F086F90C9948620F9802F014
:1003380067F9089A099B41EC100B51EC100B02F07D
:1003480093F80A9A0B9B41EC100B51EC100B02F03E
:100358008BF8069A079B41EC100B51EC100B03F03D
:1003680013F941EC100B51EC100B02F063F90C99E6
:1003780088620E9802F044F9089A099B41EC100B28
:1003880051EC100B02F070F80A9A0B9B41EC100B21
:1003980051EC100B02F068F8069A079B41EC100B21
:1003A80051EC100B03F0F0F841EC100B51EC100B72
:1003B80002F040F90C99C8620D9802F021F9089AE8
:1003C800099B41EC100B51EC100B02F04DF80A9A06
:1003D8000B9B41EC100B51EC100B02F045F841EC73
:1003E800100B51EC100B9FED140B53EC102B02F07B
:1003F8003BF841EC100B51EC100B02F01BF90C9977
:10040800086312B080BD00BF000000000000C040BB
:10041800000000000000D03F0000000000003E4047
:10042800000000000000403F666666666666FA3FA8
:100438009A9999999999B93F8195438B6C673440FA
:1004480080B582B00190019800909FED130A00F0EA
:1004580055FE009880ED040A006902F0D1F841ECDD
:10046800100B9FED0B1B53EC112B51EC100B01F0F3
:10047800FBFF41EC100B51EC100B02F0DBF800997C
:1004880048614FF07F50886002B080BD00BF00BF58
:0C0498000000000000002440000034437D
:0404A4000000000054
:1004A80080B58EB00D900D980C9002F01BFF0C9843
:1004B80040F61802C4F20202116821F4801111609A
:1004C80000F09AFD0C9901F5E27091ED010AD1ED69
:1004D800060A02F0EDFB0C98806902F091F841ECF5
:1004E800100B9FED9D1B53EC112B51EC100B02F0E0
:1004F80053F8A0B90C98006D02F0CAFA02F070F92E
:1005080010EE100A02F07CF841EC100B9FED941BE2
:1005180053EC112B51EC100B02F056F868B10C9803
:1005280090ED010A02F05CF9B5EE400AF1EE10FA1E
:1005380002D00C98FFF784FF24E00C9890ED060A8F
:1005480000F0DCFD0C9880ED040A006902F058F810
:1005580041EC100B9FED841B53EC112B51EC100B4D
:1005680001F082FF41EC100B51EC100B02F062F825
:1005780001460C98416100F5E27002F0F1FB0C981D
:1005880080ED020A0C9901F50E7008904869C96C53
:10059800019102F035F841EC100B51EC100B9FED76
:1005A800740B53EC102B0393029201F05DFF41ECA6
:1005B800100B51EC100B9FED700B53EC102B0593A7
:1005C800049202F0E1FF41EC100B51EC100B02F029
:1005D80031F801990C9A0346089800EE103AD1EDCB
:1005E800090A91ED0A1AD1ED0B1A02F120011C3209
:1005F80000F0CAF80C9901F5B670069091ED030A5F
:10060800D1ED080A02F054FB0C9901F5CC70079063
:1006180091ED020AD1ED070A02F04AFB0C984069F5
:1006280001F0EEFF029A039B41EC100B51EC100B0A
:1006380001F01AFF049A059B41EC100B51EC100BCA
:1006480002F0A2FF41EC100B51EC100B01F0F2FF8D
:100658000146069800EE101A8DED0A0A02F080FB9A
:1006680007988DED090A02F07BFB0898DDED090A71
:100678000C9BB0EE401A9DED0A0A03F124010B9180
:1006880003F128022C3300F02BF90B990C9A02F194
:100698003C00303200F0DCF90C9890ED090AB3EE1A
:1006A800043A80EE030AB7EE002A30EE020AB6EEEC
:1006B800001A20EE010A9FED324A20EE040A80ED6E
:1006C800100A90ED0A0A80EE030A30EE020A20EEC4
:1006D800010A20EE040A80ED110A90ED0B0A80EE63
:1006E800030A30EE020A20EE010A20EE040A80ED29
:1006F800120A90ED100ABCEEC00A3421C4F20101BE
:1007080081ED000A90ED110ABCEEC00A3821C4F24E
:10071800010181ED000A90ED120ABCEEC00A3C21ED
:10072800C4F2010181ED000A90ED090A80EE030A86
:1007380030EE020A20EE010A9FED121A20EE010A9D
:10074800BCEEC00A47F20840C4F2000080ED000A7F
:100758000EB080BD00BF00BF000000000000000018
:1007680000000000000032400000000000002440AB
:10077800182D4454FB210940000000000080664009
:080788000040834600C05A4501
:1007900080B594B013908DED120ACDED110A8DED58
:1007A000101ACDED0F1A0E910D929DED120A01F067
:1007B000DFFD8DED0C0A9DED120A01F0B3FD8DED0C
:1007C0000B0A9DED110A9DED0C1A20EE010A10EEA8
:1007D000100A01F019FF41EC100B8DED020B9DED9D
:1007E000100A9DED0F1A30EE410A10EE100A01F0CA
:1007F0000BFF41EC100B51EC100B9FED390B53EC40
:10080000102B0593049202F0C3FE41EC100B8DED0A
:10081000000B0B9801F0F8FE9DED001B41EC100B56
:1008200051EC110B53EC102B01F022FE9DED021B3D
:1008300041EC100B51EC110B53EC102B02F088FD26
:1008400041EC100B51EC100B01F0F8FE0E99086012
:100850009DED110A9DED0B1A20EE010A10EE100A13
:1008600001F0D2FE41EC100B8DED080B9DED100A4E
:100870009DED0F1A30EE410A10EE100A01F0C4FE91
:10088000049A059B41EC100B51EC100B02F080FE1A
:1008900041EC100B8DED060B0C9801F0B5FE9DEDB3
:1008A000061B41EC100B51EC110B53EC102B01F01B
:1008B000DFFD9DED081B41EC100B53EC112B51ECAF
:1008C000100B01F0D1FD41EC100B51EC100B01F0BD
:1008D000B5FE0D99086014B080BD00BF00BF00BF19
:0808E0004E4B58E87AB6FB3FCD
:1008E80080B590B00F908DED0E0ACDED0D0A8DED0F
:1008F8000C1A0B910A9209939DED0E0A01F034FD32
:100908008DED080A9DED0E0A01F008FD8DED070A30
:100918009DED0D0A9DED081A20EE010A9DED0C1AB9
:100928009DED072A21EE021A30EE410A0B9880ED60
:10093800000A9DED0D0A9DED071A20EE010A9DEDB6
:100948000C1A9DED082A21EE021A30EE010A10EE6B
:10095800100A01F055FE41EC100B51EC100B9FED05
:10096800360B53EC102B0393029201F07DFD41EC02
:10097800100B8DED000B0B98006801F041FE9DED0A
:10098800001B41EC100B51EC110B53EC102B01F038
:1009980067FD41EC100B51EC100B9FED290B53EC4C
:1009A800102B01F061FD41EC100B51EC100B01F024
:1009B80041FE0A9908609DED0D0A9DED071A20EE8B
:1009C800010A9DED0C1A9DED082A21EE021A30EE5F
:1009D800010A10EE100A01F013FE029A039B41EC83
:1009E800100B51EC100B01F03FFD41EC100B8DED9D
:1009F800040B0B98006801F003FE9DED041B41EC0D
:100A0800100B51EC110B53EC102B02F09DFC41EC38
:100A1800100B51EC100B9FED0C0B53EC102B01F04D
:100A280023FD41EC100B51EC100B01F003FE09996A
:100A3800086010B080BD00BF4E4B58E87AB6FB3F47
:100A4800000000000000E03F000000000000E0BFE0
:100A580080B590B00F900E910D920E9800F10C0198
:100A680000F0D6FC00680C900E9800F10C0100F024
:100A7800DBFC00680B900E98006801F0C1FD41ECAA
:100A8800100B51EC100B9FED500B53EC102B0593F2
:100A9800049201F0E9FC41EC100B8DED000B9DED8B
:100AA8000C0A9DED0B1A30EE010A10EE100A01F047
:100AB800A7FD41EC100B51EC100B9FED450B53ECCF
:100AC800102B0793069201F0CFFC9DED001B41EC23
:100AD800100B51EC110B53EC102B01F0C1FC41EC45
:100AE800100B51EC100B01F0A5FD0D9908600E9844
:100AF800406801F085FD049A059B41EC100B51EC10
:100B0800100B01F0B1FC41EC100B8DED020B9DEDCB
:100B18000C0A9DED0B1A30EE010A10EE100A01F0D6
:100B28006FFD069A079B41EC100B51EC100B01F07E
:100B38009BFC9DED021B41EC100B51EC110B53EC8F
:100B4800102B01F08DFC41EC100B51EC100B01F057
:100B580071FD0D9948600E98806801F051FD049A66
:100B6800059B41EC100B51EC100B01F07DFC41ECA6
:100B7800100B8DED080B9DED0C0A9DED0B1A30EE58
:100B8800010A10EE100A01F03BFD069A079B41ECA2
:100B9800100B51EC100B01F067FC9DED081B41ECAC
:100BA800100B51EC110B53EC102B01F059FC41ECDC
:100BB800100B51EC100B01F03DFD0D99886010B041
:100BC80080BD00BF00BF00BF34329045A779F23F17
:080BD800000000000000E03FF6
:100BE00080B586B005900598049090F9040002F055
:100BF000B1FD41EC100B9FED1C1B53EC112B51EC84
:100C0000100B01F035FC0246049801920A46019946
:100C100042EC101B8DED020B90ED051A90ED060ACB
:100C200030EE410A10EE100A01F0EEFC41EC100B20
:100C30009FED0F1B53EC112B51EC100B02F0A8FC95
:100C40009DED021B41EC100B51EC110B53EC102BE2
:100C500002F09EFC41EC100B51EC100B01F0EEFC8D
:100C60000499486206B080BD0000000000001840F2
:080C70000000000080842E4109
:100C780080B59CB01B901A911B9809901A99C96865
:100C880041611A99096881601A99896801611A99FC
:100C98004968C1601A9909698161D0ED020A90ED2D
:100CA800041A90ED050A90ED062A15A80790DFEDC5
:100CB8003E1ACDED061A00F01FFD099890ED020AC4
:100CC8008DED010A90ED040A8DED020A90ED050AFA
:100CD8008DED000A806901F093FC41EC100B9FED4B
:100CE8002E1B53EC112B51EC100B02F02DFB41EC99
:100CF800100B51EC100B01F09DFC9DED000ADDED91
:100D0800010A9DED021ADDED061A02EE100A10A87E
:100D1800089000F0F1FC099890ED020A8DED040AA4
:100D280090ED040A8DED050A90ED050A8DED030A94
:100D3800806901F065FC41EC100B9FED191B53EC29
:100D4800112B51EC100B02F0FFFA41EC100B51EC97
:100D5800100B01F06FFC9DED030ADDED040A9DED1B
:100D6800051ADDED061A02EE100A0BA80A9000F02B
:100D7800C3FC09980799283000F0F0FC08990998F5
:100D8800783000F0EBFC09980A99C83000F0E6FCCE
:100D98001CB080BD00BF00BF65732D3852C100C0B4
:0C0DA80065732D3852C110C0000000001F
:100DB40086B00021059104910220039002910190D4
:100DC40043F60800C4F20200006800F00C0005902D
:100DD4000598009030B1009804280DD00098082898
:100DE40014D057E040F2D031C1F2000142F2004089
:100DF400C0F2F400086056E040F2D031C1F20001C4
:100E040047F64000C0F27D1008604CE043F6040051
:100E1400C4F202000168C1F380510291006800F03D
:100E24003F000190029880B1019947F64000C0F25A
:100E34007D10B0FBF1F043F60401C4F2020109682D
:100E4400C1F38811484304900FE0019942F2004035
:100E5400C0F2F400B0FBF1F043F60401C4F2020165
:100E64000968C1F388114843049043F60400C4F2AE
:100E74000200006800F44031022000EBD1300390FE
:100E840004980399B0FBF1F040F2D031C1F20001B3
:100E9400086008E040F2D031C1F2000142F20040A3
:100EA400C0F2F400086043F60800C4F202000068CF
:100EB400C0B2010943F6FC00C0F60000405C059096
:100EC400059A40F2D031C1F200010868D0400860B0
:040ED40006B07047AD
:100ED80080B58CB00A90099108920A9904910B91F7
:100EE80000200590086048608860C8600861486113
:100EF8008861C861086201F12400303106910790C9
:100F08000799069A002041F8040B08469142079079
:100F1800F6D1049901F130003C3102910390039914
:100F2800029A002041F8040B084691420390F6D13A
:100F3800049901F140004C31009101900199009A07
:100F4800002041F8040B084691420190F6D104981C
:100F5800543000F055FC049800F5B67001F080FE9E
:100F6800049800F5CC7001F07BFE049800F5E2705F
:100F780001F076FE049800F5F87001F071FE04980F
:100F880000F5077001F0CAFC04990998C86408982C
:080F980008650B980CB080BD48
:100FA00080B584B003900291039801905430029967
:100FB0003C31FFF761FE019800F5B670029950319F
:100FC00001F064FE019800F5CC700299643101F0E3
:100FD0005DFE019800F5E2700299783101F056FE4D
:100FE000019800F5F87002998C3101F04FFE0198DC
:100FF00000F507700299A03100F0F4F904B080BD4B
:1010000080B584B0039003980190006D01F04CFD11
:101010008DED020A40F2CF30C1F200000078C00727
:1010200058B39DED020A40F2B030C1F2000090EDDD
:10103000001A30EE410A01F0CDFB9FED311AB4EEFB
:10104000410AF1EE10FA14DD019A40F2CF31C1F2FB
:1010500000010020087002999161029940F2B032BB
:10106000C1F20002116040F2B431C1F20001086027
:1010700002E00199002088613FE09DED020A40F204
:10108000B030C1F2000090ED001A30EE410A01F0DC
:10109000A1FB9FED1B1AB4EE410AF1EE10FA1DD828
:1010A00040F2B430C1F20000016801310160006813
:1010B000B0F5FA7F0ED301990020886140F2CF325B
:1010C000C1F200020121117040F2B431C1F20001FD
:1010D000086002E00199029888610EE00199029887
:1010E0008861029840F2B031C1F20001086040F21C
:1010F000B431C1F200010020086004B080BD00BF1F
:041100006F12833AAD
:1011040080B588B007908DED060A0798049040F2E8
:10111400A831C1F2000191ED000A8DED050A006DC0
:1011240001F0B8FCB0EE401A9DED050AB4EE410A98
:10113400F1EE10FA11D1049800F5077003909DEDBB
:10114400060A01F0FBFB039801F02CFC40F2AC30E2
:10115400C1F2000080ED000A1CE00498006D01F06B
:1011640099FC049840F2A831C1F20001019181ED8B
:10117400000A096840F2AC32C1F20002116000F5C5
:101184000770029000F03EF90199029891ED000A6F
:1011940001F010FC40F2AC30C1F2000090ED000A06
:0411A40008B080BD52
:1011A80080B582B001903421C4F2010100200860AA
:1011B8003821C4F2010108603C21C4F20101086031
:1011C80000F09AFF41F21801C4F20201086820F009
:0811D8007C50086002B080BDEC
:1011E00080B58AB00990099808909FED460A8DED68
:1011F000070AF1EE040A9FED441ADFED441A9FED51
:10120000442A8DED012A01F015FD08989DED012A73
:101210009DED070A1430F6EE000A9FED3E1A8DEDA3
:10122000031AF1EE001A01F005FD08989DED012A60
:101230009DED070A2830F2EE040ACDED000A9FED7D
:10124000361AF0EE421A00F05BFA08989DED001A8B
:101250009DED012A9DED070A3C30F7EE080AF0EEFD
:10126000421A00F0B3FA08989DED031A9DED070AA3
:101270005030DFED2A0ACDED020AF3EE021ACDED71
:10128000041ABBEE022A8DED052A01F0D3FC089862
:10129000DDED020A9DED031ADDED041A9DED052A30
:1012A0009DED070A643001F0C5FC08989DED070A22
:1012B0007830DFED1B0A9FED1B1AF0EE081AB8EE2E
:1012C000082A01F0B7FC08989DED070A8C30F7EE6C
:1012D000000ACDED060A9FED141ADFED141A9FEDFA
:1012E000142A01F0A7FC08989DED060ADDED070A17
:1012F000A0309FED101ADFED101A01F0FDFA0898EA
:101300000AB080BD17B75139A69B443B0000C842C4
:10131000000000000AD7233C00004842CDCC4C3EE0
:101320000AD7A33B8FC2753D0AD7A33D00001643E1
:0C133000000016C320BCBE4C20BCBECC8C
:10133C0082B00190009101990098486002B070470A
:10134C0080B582B001900198009001F0C1FA00982C
:10135C0041F2B431C0F600010831016002B080BD29
:10136C0080B582B001900198009001F0B1FA00981C
:10137C0041F2C031C0F600010831016002B080BDFD
:10138C0080B582B001900198009001F0A1FA00980C
:10139C0041F2CC31C0F600010831016002B080BDD1
:0813AC0081B0009001B0704710
:0C13B400000000000000000051280008AC
:0C13C0000000000000000000652800088C
:0C13CC000000000000000000AD1300084D
:0C13D8000000000000000000C938000800
:1013E40082B001900091019900984068486000988B
:1013F400006808600098806888600098C068C860C9
:0414040002B070477B
:1014080081B00090009900204861086101B07047E0
:1014180080B584B003900291039802999DF8072043
:0814280001F0E0FA04B080BD00
:1014300080B584B003900291039802999DF807202B
:0814400000F074F804B080BD57
:1014480080B584B003900291019203980299019AA1
:0814580000F00CF804B080BDA7
:1014600080B582B0019000910198009901F0AEFA28
:0414700002B080BD89
:1014740083B0029001910092019890ED000A0098C7
:1014840090ED001AB4EE410AF1EE10FA4FF00000AC
:0814940048BF012003B07047BE
:10149C0080B586B005900491039200208DF80B0066
:1014AC0005A801F0B5FA0068019004A801F0B0FAA3
:1014BC00014601980968039A0DF10B0300F002F83C
:0414CC0006B080BD29
:1014D00080B588B00690059104920393069805990B
:1014E000884202D1069807901DE006980290029863
:1014F000043002900599884213D004980190039813
:101500000299FFF7ADFF009003980699FFF7A8FF37
:10151000009902460198FFF797FF08B102980690DC
:0C152000E5E706980790079808B080BD2A
:10152C0080B584B08DF80F2002900191029801993A
:0C153C000DF10F0201F072FA04B080BD46
:1015480082B001900198009090F9040001281BD105
:101558000098816801318160806848F68802C0F689
:1015680088024EF6EF61CEF6EE6100FB01204FEAED
:10157800B00044F24441C0F24441884203D8009983
:10158800C8680130C86020E0009890F90400013074
:10159800D8B90098816801398160806848F6880266
:1015A800C0F688024EF6EF61CEF6EE6100FB012030
:1015B8004FEAB00044F24441C0F24441884203D8A3
:1015C8000099C8680138C860FFE70098816801EB96
:1015D8004101490000EE101AB8EEC00A80ED080A71
:0415E80002B0704796
:1015EC0080B586B005908DED040ACDED030A8DED26
:1015FC00021ACDED011A059800909DED040ADDED5F
:10160C00030A9DED021ADDED011A01F059FC009858
:04161C0006B080BDD7
:1016200080B582B001900198009001F065FC0098AF
:1016300041F2F061C0F60001083140F8181B01F0DA
:0816400071F9009802B080BDB1
:1016480080B584B003900398019090ED040A90ED62
:10165800051A20EE011AB7EE000A80EE010ABDEE67
:10166800C00A8DED020A0298132806DC40F2903178
:10167800C1F20001002008600FE0019818300090C6
:10168800B7EE000A01F058F9009801F089F940F224
:101698009030C1F2000080ED000A019840F29031CC
:1016A800C1F2000191ED000A90ED021AB4EE410A70
:1016B800F1EE10FA09DB01981830FFF7A1FE40F2AD
:1016C8009031C1F2000100200860019840F2903189
:1016D800C1F2000191ED000A90ED031A30EE010A03
:0816E80080ED010A04B080BD91
:1016F000000000000000000059180008491600080A
:1017000080B588B007908DED060ACDED050A8DED08
:10171000041ACDED031A8DED022A079801909DED74
:10172000060ADDED050A9DED041ADDED031A01F050
:0C173000CDFB01980299016108B080BD5A
:10173C0080B582B001900198009001F0D7FB009821
:10174C0041F2BC71C0F60001083140F81C1BFFF7D8
:08175C0061FF009802B080BD9E
:1017640080B588B007900691079800900699C968DB
:101774004161069909688160069989680161069941
:101784004968C16006990969816190ED041A90ED78
:10179400050A02A80190DFED060ADFED061AFFF73D
:1017A40023FF009801991C3001F0E4FA08B080BDD1
:0817B400DB0FC940000000003A
:1017BC00000000000000000059180008D12D00089E
:1017CC0080B588B007908DED060ACDED050A8DED3C
:1017DC00041ACDED031A8DED022A079801909DEDA8
:1017EC00060ADDED050A9DED041ADDED031A01F084
:0C17FC0067FB01980299016108B080BDF4
:1018080080B582B001900198009001F071FB0098BA
:1018180041F64801C0F60001083101602830FFF7A1
:1018280089FF00987830FFF785FF0098C830FFF7E8
:1018380081FF00980021C1610162416202B080BD50
:10184800000000000000000059180008312E0008B0
:1018580082B0019000910199009800688860009812
:101868004068C8600098806808610098C06848614E
:0418780002B0704703
:10187C000000000000000000591800081D2F00088F
:10188C0081B00090009800210170417001B0704748
:10189C0040F28431C1F200010868013008607047E1
:1018AC0080B51020C4F2000000684007002852D513
:1018BC0040F61841C4F20201086840F40070086058
:1018CC0040F28830C1F2000001680131016000680B
:1018DC0041F2883188421BD11420C4F20200006806
:1018EC004006002807D51821C4F20201086840F40C
:1018FC008000086006E01821C4F20201086840F07C
:10190C004000086040F28831C1F2000100200860FC
:10191C0040F2EC20C1F20000FEF730FC40F28C30BB
:10192C00C1F20000006838B140F28C30C1F2000006
:10193C00006801680968884740F61841C4F2020142
:10194C00086840F0007008601021C4F200010868BB
:08195C0020F00400086080BDCA
:1019640080B582B040F61000C4F200000068C007E1
:10197400D0B140F61841C4F202010191086840F464
:101984008060086040F2EC20C1F2000000F086FEA6
:10199400019940F28032C1F20002106832301060C6
:1019A400086840F08060086040F61001C4F200014D
:0C19B400086820F00100086002B080BD4F
:1019C00080B584B040F28030C1F2000090ED000A92
:1019D000B8EEC00A8DED030A40F22030C1F20000DB
:1019E00001F06AF8B0EE401A9DED030A30EE410AAC
:1019F0009FED1D1AB4EE410AF1EE10FA00D520E079
:101A000040F61841C4F20201086840F04000086046
:101A100040F22030C1F20000019040F28031C1F26A
:101A20000001029101F05EF8019801F069F8019857
:101A3000FFF78AFD0198FFF7D3F80198029901F0AA
:101A400043F840F61841C4F20201086840F48000EF
:101A5000086043F61441C4F20101086840F0020036
:0C1A6000086004B080BD00BF0080094495
:101A6C0080B584B040F28030C1F2000090ED000AE5
:101A7C00B8EEC00A8DED030A40F22030C1F200002E
:101A8C0001F014F8B0EE401A9DED030A30EE410A55
:101A9C009FED1D1AB4EE410AF1EE10FA00D520E0CC
:101AAC0040F61841C4F20201086840F0800008605A
:101ABC0040F22030C1F20000019040F28031C1F2BE
:101ACC000001029101F008F8019801F013F8019857
:101ADC00FFF734FD0198FFF77DF80198029900F0AB
:101AEC00EDFF40F61841C4F20201086840F4000012
:101AFC00086043F61441C4F20101086840F0040088
:0C1B0C00086004B080BD00BF00007A44F7
:101B180080B584B040F28030C1F2000090ED000A38
:101B2800B8EEC00A8DED030A40F22030C1F2000081
:101B380000F0BEFFB0EE401A9DED030A30EE410AF8
:101B48009FED1D1AB4EE410AF1EE10FA00D520E01F
:101B580040F61841C4F20201086840F48070086039
:101B680040F22030C1F20000019040F28031C1F211
:101B78000001029100F0B2FF019800F0BDFF01984A
:101B8800FFF7DEFC0198FFF727F80198029900F0AB
:101B980097FF40F61841C4F20201086840F08070CF
:101BA800086043F61441C4F20101086840F00800D7
:0C1BB800086004B080BD00BF00007A444B
:101BC40080B582B046F20040C4F20200006880068C
:101BD400002819D540F61841C4F2020101910868A1
:101BE40040F40060086046F20841C4F2020120207B
:101BF400086040F2EC20C1F2000000F0ABFD019956
:0C1C0400086840F00060086002B080BD7D
:101C1000034C206804348047FBE700F017FBFEE725
:041C2000303900084F
:101C240008490A68002AFED41EF0040F0CBFEFF323
:101C34000880EFF3098042F000420A6081690231B2
:081C4400816170472CED00E006
:101C4C0080B584B043F63001C4F20201086840F05C
:101C5C000400086043F64402C4F20202106840F427
:101C6C0080701060086840F48000086040F6000145
:101C7C00C4F20201086820F0FF000860086840F018
:101C8C00FF00086046F21041C4F2020100910020EE
:101C9C000190086046F21842C4F2020242F24C0073
:101CAC00C4F20100106046F21442C4F20202042095
:101CBC001060086840F480600860086840F42050A8
:101CCC00086008680860086820F0C00008600868B0
:101CDC0040F010000860382000F05EF8019842F2E5
:101CEC000403C4F20103186042F20802C4F20102B8
:101CFC0002921060196841F480711960116821F02A
:101D0C0002011160116841F480711160116841F495
:101D1C000071116042F22C0CC4F2010CDCF80010C2
:101D2C0021F47001CCF80010DCF8001041F44011E3
:101D3C00CCF8001042F2340CC4F2010C4BF26A11D4
:101D4C00C0F20601CCF8001042F20C0CC4F2010CEB
:101D5C00DCF8001040F6FF7E21EA0E01CCF80010F2
:101D6C00DCF8001040F2DB6E41EA0E01CCF80010FA
:101D7C00196821F020011960116841F0010111600E
:101D8C0003900398B0F57A7F04DA00BF0398013012
:081D9C000390F6E704B080BDDE
:101DA40081B08DF803009DF9030000280CD49DF93F
:101DB400031001F01F02012090404A094EF2001165
:0C1DC400CEF2000141F8220001B070478F
:101DD00043F64401C4F20201086840F001000860C3
:101DE00043F63001C4F20201086840F010000860B8
:101DF00041F20001C4F20201086840F400300860BA
:101E0000086840F400200860086840F4001008608A
:101E1000086840F400000860086840F0007008603E
:101E2000086840F00060086041F20801C4F2020155
:101E3000086840F400300860086840F4002008603A
:101E4000086840F400100860086840F4000008606A
:101E5000086840F000700860086840F000600860A2
:101E600041F22401C4F20201086840F00100086058
:101E7000086840F010000860086840F4807008604E
:101E8000086840F480500860086840F480300860BA
:101E9000086840F4801008602821C4F20101002085
:101EA00008600021C4F201010A6842F060020A6081
:101EB0002C23C4F2010344F29F121A603422C4F2AC
:101EC000010210603822C4F2010210603C22C4F208
:101ED00001021060086840F0800008600821C4F228
:101EE0000101086840F010000860086840F0040034
:101EF00008601822C4F20102106840F0600010600F
:101F0000106820F003001060106840F008001060B6
:101F10002021C4F20101086840F00100086008684F
:101F200040F004000860106840F4C0401060106881
:101F300020F440701060106840F400601060086881
:101F400040F010000860086840F0400008601C2263
:101F5000C4F20102106840F060001060106820F0C8
:101F600003001060106840F008001060086840F43A
:101F700080700860086840F4806008604421C4F202
:101F80000101086820F0FF000860086840F0540074
:0C1F90000860086840F4004008607047DA
:101F9C0080B582B043F64001C4F20201086840F0FB
:101FAC00010008602821C4F20001002008604FF0F5
:101FBC008041086820F060000860086840F010005C
:101FCC0008602C21C4F2000144F29F1008603821F3
:101FDC00C4F2000142F2D00008600421C4F20001F6
:101FEC00086840F0200008600C21C4F20001086869
:101FFC0040F0040008601021C4F20001086820F0D1
:10200C00040008601C200190022101F0E3F8019803
:08201C00FFF7C2FE02B080BD17
:1020240080B582B043F64001C4F20201086840F072
:102034000400086040F62800C4F20000002101609A
:1020440040F60002C4F20002106820F06000106044
:10205400106840F01000106040F62C02C4F2000238
:1020640041F26700106040F60802C4F200021068F2
:1020740040F010001060106840F00400106040F65A
:102084000C02C4F20002106840F00100106040F637
:102094001002C4F20002106820F0010010601E203B
:1020A400019001F09BF80198FFF77AFE02B080BD21
:1020B40043F64001C4F20201086840F00050086091
:1020C40043F63001C4F20201086840F001000860E0
:1020D4000021C4F20201086840F44070086047F22D
:1020E4000041C4F20001086840F00100086047F2B2
:0C20F4000841C4F20001002008607047A1
:102100000021C4F20101086820F001000860704756
:1021100080B540F22030C1F2000000F0ADFC80BD7F
:1021200080B540F2EC20C1F2000040F20001C2F2A2
:08213000000100F001F880BD80
:102138008EB00C900B910C9908910D910B9808603A
:1021480000208880881D0C3109910A900A99099A03
:10215800002021F8020B084691420A90F6D108990E
:102168000020888101F10E0014310691079007992B
:10217800069A002021F8020B084691420790F6D1F2
:1021880008990020888201F116001C3104910590FD
:102198000599049A002021F8020B084691420590FF
:1021A800F6D108990020888301F11E00243102919C
:1021B80003900399029A002021F8020B08469142E5
:1021C8000390F6D108990020486201F128003431C3
:1021D800009101900199009A002041F8040B0846EB
:0C21E80091420190F6D10D980EB07047A6
:1021F40080B540F2C430C1F2000001F08BF880BD1C
:1022040080B540F20000C1F2000040F2EC21C1F2BE
:10221400000140F22032C1F20002FEF75BFE80BDF5
:1022240080B540F23C20C1F20000FEF7D7FF80BD2C
:1022340080B540F24830C1F2000040F20001C1F222
:08224400000100F0D9FA80BD91
:10224C0080B582B00020019000F0B4FA72B600F0B4
:10225C0049FF00F079FEFFF7B5FDFFF799FEFFF798
:10226C00DBFE00F0D7FFFFF71FFFFFF7E9FC40F2A2
:10227C00EC20C1F2000000F001FA68469FED1E0A46
:10228C0000F0EAFB40F20000C1F2000040F23C21F9
:10229C00C1F20001FEF77EFE62B601F003F840F2D7
:1022AC00CD30C1F200000078C00730B140F24830A8
:1022BC00C1F2000000F0FCFA12E040F2CE30C1F2A4
:1022CC000000007830B140F24830C1F2000000F05C
:1022DC00F7FA05E040F24830C1F2000000F0E8FAED
:1022EC0040F24830C1F2000000F0C0FA40F28C31EC
:0C22FC00C1F200010860D2E717B75139A9
:1023080080B5FFF701FFFFF707FFFFF76FFFFFF744
:0C23180075FFFFF783FFFFF789FF80BD12
:1023240010EE100AC10D4FF0FF3252FA81F1FE296E
:102334000FD2B5EE400AF1EE10FA52BF9FED0A1A21
:102344009FED081AB1EE400AF0EE400A002000F0BA
:102354002DB8C0F3C750FE2888BF9FED010A70470F
:0C2364000000C07F0000008000000000AE
:1023700010EE100AC0F3C750FE2802D99FED0B0AD9
:102380007047B5EE400A9FED081AF1EE10FA52BF01
:1023900070EE010A71EE400AB1EE400AB7EE001A83
:1023A000012000F005B800BFDB0FC93F0000C07F6F
:1023B00010B52DED048B9FED222A9FED223A30EED1
:1023C000822A82EE032ABDEEC22AB8EEC23ABEEEDF
:1023D000004A002818BF33EE043A9FED1B4AB0EEC6
:1023E000408A03EE048A9FED190A03EE008AB0EEDC
:1023F000C80A9FED173AB4EE430AF1EE10FAB0EEB8
:10240000419A12EE104A0ADB28EE080A42F25440C2
:10241000C0F60000052101F033FA08EE008AE0075B
:1024200018BFB1EE499A19EE100A18EE101A00F012
:102430000040484000EE100ABDEC048B10BD00BF08
:10244000DB0FC93FDB0F4940001049C07A771537D1
:04245000FFE6DB2E9A
:10245400ABAA2ABE9788083C281050B9932939366C
:04246400D4AAD5B26F
:0824680083F0004300F070BF97
:10247000F0B540F2FF7681EA030C16EA115E1EBF4A
:10248000B64516EA1355B54252D021EA465141F4F9
:102490008011A1FB024723EA465343F48013AE4464
:1024A000A0FB03650CF0004C36197D41A1FB0347EE
:1024B00047F10003A0FB0217F619654153F1000331
:1024C000094218BF46F0010640F2FE74B3F5007FE2
:1024D00013D2AEF5806EA64523D24CEA0331280311
:1024E00041EA155140EA16503203450872F10042A4
:1024F00050F1000051EB0E51F0BDAEF2FF3EA6458B
:102500000FD24CEAC321E80241EA555140EA565045
:10251000F202450872F1004250F1000051EB0E51F9
:10252000F0BD1EEA0E0F2DD50CF000410020F0BDCD
:1025300016EA115F04BF01F000410020004218BFFD
:1025400041F0010116EA135F04BF03F000430022CB
:10255000124218BF43F0010306EA1354B44218BFF5
:10256000B64503D00CF000410020F0BD21F0004141
:1025700023F00043B1EB065F0CD8B3EB065F09D83C
:1025800041B13BB10CF0004141F0FE4141F470011A
:102590000020F0BD40F20001C7F6F8710020F0BD48
:1025A0004FF4001C1CEB410F98BF1CEB430F0BD8E2
:1025B00050EA410C08BF52EA430C07D0904206BFD4
:1025C0009942012000207047002070470120704789
:1025D0004FF4001C1CEB410F98BF1CEB430F11D8AC
:1025E00051EA030C50EA4C0C5CEA020C0AD004D20B
:1025F0009042994180414042704782428B418041E4
:082600004042704700207047C2
:10260800C0F3C75191B142004FEA40704FEAD2017E
:102618004FEA310101F16051B2F17F4F38BF704785
:1026280001F1605118BF41F40021704710F00041DA
:0426380000207047C7
:10263C0001F000428B1AA3F16051B1F5801F0ADB47
:10264C00B1F17F6F09D242EAC102C10071F10041C0
:10265C0042EB507070471046704701285B4113F5F0
:10266C00001F02D842F0FF407047C90041EA507089
:0C267C00104340F4800040F080407047A4
:1026880081B000900098006846F21C41C4F2020133
:06269800086001B070476C
:02269E00FEE755
:1026A00084B0039046F21041C4F20201086820F0A1
:1026B0000100086042F21070029046F21040C4F22D
:1026C000020001680020C907009041B1029801385A
:1026D000029000284FF00000C8BF01200090009831
:1026E000C00708B100BFE8E746F20841C4F20201A2
:1026F0003920086046F21441C4F202010420086047
:1027000046F21041C4F20201086840F0010008607E
:1027100042F20800C4F201000068C00788B942F222
:102720000801C4F20101086840F0010008600020BF
:1027300001900198632804DC00BF019801300190EA
:10274000F7E742F20801C4F20101086840F0804056
:06275000086004B07047B0
:02275600FEE79C
:1027580082B001900198009040F2C030C1F20000B0
:102768000068042805D140F2C031C1F20001002000
:102778000860009A1068008840F2C031C1F2000178
:102788000B6802EB43039880106840880B6802EBE3
:1027980043039881106880880B6802EB4303988292
:1027A8001068C0880B6802EB430290830868013008
:0627B800086002B070474A
:0227BE00FEE734
:1027C0004EF68851CEF20001086840F470000860AF
:0227D000704750
:0227D200FEE720
:1027D40081B08DED000A9DED000AB0EEC00A01B093
:0227E40070473C
:0227E600FEE70C
:1027E80081B08DED000A9DED000AB0EEC00A01B07F
:0227F800704728
:0227FA00FEE7F8
:1027FC0080B586B005900491059803900021017076
:10280C00416008300090FEF79BFD0398103001905A
:10281C00FEF7A6FD039818300290FEF7B1FD009864
:10282C00039A049951600499FEF782FD019804996A
:10283C00FEF77EFD02980499FEF77AFD039806B028
:02284C0080BD4D
:02284E00FEE7A3
:1028500080B582B0019001984068FEF7A5FC02B0F7
:0228600080BD39
:02286200FEE78F
:1028640080B582B0019001984068FDF71BFE02B06C
:0228740080BD25
:02287600FEE77B
:1028780084B002900298009000780146019130B12E
:102888000198012807D00198022808D00BE0009889
:10289800083003900AE000981030039006E0009892
:1028A8001830039002E0009808300390039804B0B1
:0228B800704767
:0228BA00FEE737
:0E28BC0081B0009000990020087001B07047B4
:0228CA00FEE727
:0E28CC0081B0009000990120087001B07047A3
:0228DA00FEE717
:1028DC0081B00090009841F2D831C0F60001083167
:0A28EC0001600021416001B0704757
:0228F600FEE7FB
:1028F80085B004908DED030ACDED020A8DED011A25
:10290800CDED001A0498029941600399016001997C
:0A29180081600099C16005B07047AE
:02292200FEE7CE
:1029240081B0009000980021016041608160C16025
:0A29340001614161816101B070474B
:02293E00FEE7B2
:1029400080B584B003908DED020A0398019002993E
:10295000816190ED003A90ED010A90ED051A90ED3D
:10296000062A80EE030A20EE020A30EE010A40F247
:10297000BC31C1F2000181ED000A0A68026191EDEB
:10298000000AD0ED020A00F062FF019880ED050A0E
:10299000D0ED030A90ED050A00F040FF019880EDAC
:0629A000050A04B080BD31
:0229A600FEE74A
:0E29A80081B00090009890ED050A01B07047D4
:0229B600FEE73A
:1029B80082B001908DED000A01990098486102B03B
:0229C800704756
:0229CA00FEE726
:1029CC0080B582B001900091009800F003F802B03D
:0229DC0080BDBC
:0229DE00FEE712
:0A29E00081B00090009801B070472C
:0229EA00FEE706
:1029EC0080B584B08DF80F200290019102A800F000
:1029FC000FF80068009001A800F00AF80146009852
:0E2A0C0009680DF10F02FEF743FD04B080BD16
:022A1A00FEE7D5
:0A2A1C0081B00090009801B07047EF
:022A2600FEE7C9
:102A280080B584B00390029101920398029988427C
:102A380010D00398009000980430009002998842C2
:102A480008D001980399009AFEF710FD08B1009884
:0A2A58000390F0E7039804B080BD7E
:022A6200FEE78D
:102A640082B001908DED000A01980099016002B0D6
:022A74007047A9
:022A7600FEE779
:102A780081B000900098002101718160C1600174EB
:0E2A88004174416181610162416201B0704799
:022A9600FEE759
:0E2A980081B00090009890ED080A01B07047E0
:022AA600FEE749
:0E2AA80081B00090009890ED090A01B07047CF
:022AB600FEE739
:0E2AB80081B00090009890ED050A01B07047C3
:022AC600FEE729
:102AC80082B0019000910198009991ED000AB8EE4A
:0A2AD800C00A80ED050A02B0704745
:022AE200FEE70D
:102AE40082B0019000910198009991ED000AB8EE2E
:0A2AF400C00A80ED060A02B0704728
:022AFE00FEE7F1
:102B000082B00190019800901021C4F2020109687E
:102B100001F00E014174007C002800F083800098D1
:102B200090F91000082804D1009890F911000A28A3
:102B300031D0009890F910000A2804D1009890F93B
:102B40001100022827D0009890F91000022804D123
:102B5000009890F9110006281DD0009890F91000F7
:102B6000062804D1009890F91100042813D0009889
:102B700090F91000042804D1009890F911000C2855
:102B800009D0009890F910000C2808D1009890F90D
:102B90001100082803D10099012008713EE0009837
:102BA00090F91000022804D1009890F911000A2829
:102BB00031D0009890F910000A2804D1009890F9BB
:102BC0001100082827D0009890F91000082804D197
:102BD000009890F911000C281DD0009890F9100071
:102BE0000C2804D1009890F91100042813D0009803
:102BF00090F91000042804D1009890F911000628DB
:102C000009D0009890F91000062807D1009890F993
:102C10001100022802D10099FF2008710099487C18
:102C2000087404E00099487C08740020087102B020
:022C30007047EB
:022C3200FEE7BB
:102C340086B005908DED040ACDED030A8DED021AE0
:102C4400CDED011A8DED002A0598049901600399D0
:102C54004160029981600199C1600099016106B0E7
:022C64007047B7
:022C6600FEE787
:102C680081B0009000980021016041608160C160DE
:102C7800016141618161C16101624162816201B0AA
:022C8800704793
:022C8A00FEE763
:102C8C0082B001900091019900980068086000984A
:102C9C00406848600098806888600098C068C86088
:0A2CAC0000980069086102B070474B
:022CB600FEE737
:102CB80080B586B005908DED040ACDED030A059820
:102CC8000290049941610399816190ED010A90EDA8
:102CD800051A90ED062A31EE421A20EE010A80ED1F
:102CE800070A90ED001A90ED023A90ED072A90ED50
:102CF800080A81EE031A90ED093A32EE432A90ED64
:102D08000A3A32EE032A21EE021A30EE010A80ED69
:102D1800080A90ED071A90ED080A30EE010A80EDD6
:102D2800090AD0ED030A90ED090A00F08CFD02981B
:102D380040F2B831C1F20001019181ED000A91ED34
:102D4800000AD0ED040A00F065FD0199029881EDB2
:0E2D5800000A91ED000A80ED0A0A06B080BD67
:022D6600FEE786
:0E2D680081B00090009890ED0A0A01B070470B
:022D7600FEE776
:102D780080B588B007900691079800900699C968B1
:102D88004161069909688160069989680161069917
:102D98004968C16090ED021A90ED040AD0ED050A69
:102DA80020EE012AB7EE000A80EE020AF1EE411A7F
:102DB80002A80190FFF79CFD009801991830FEF7D2
:062DC8000DFB08B080BD08
:022DCE00FEE71E
:102DD00080B584B00390039801901C300090FEF7FA
:102DE00033FC0098019991ED020A8DED020A00F082
:102DF000A9F8019890ED061A30EE010AFFF792FA51
:102E00000198B0EE401A9DED020A20EE010A40F250
:102E10009431C1F2000181ED000A91ED000A90EDBC
:0E2E2000031A30EE010A80ED010A04B080BDF5
:022E2E00FEE7BD
:102E300080B588B007900798069028300190FFF77A
:102E4000C7FF069878300290FFF7C2FF0698C83097
:102E50000390FFF7BDFF019800F074F8029840F26C
:102E6000A431C1F20001049181ED000A00F06AF87A
:102E7000039840F2A031C1F20001059181ED000AF2
:102E800000F060F8049B059A069840F29C31C1F26C
:102E9000000181ED000A93ED000A90ED031A30EE77
:102EA000010A80ED070A92ED000A90ED031A30EE58
:102EB000010A80ED080A91ED000A90ED031A30EE48
:0A2EC000010A80ED090A08B080BD88
:022ECA00FEE721
:102ECC0085B004908DED030ACDED020A8DED011A4B
:102EDC00CDED001A04980399C16002990160019923
:0A2EEC0081600099416005B0704755
:022EF600FEE7F5
:102EF80081B00090009841F67C01C0F600010831CD
:102F08000160002141608160C1600161416101B0DF
:022F1800704700
:022F1A00FEE7D0
:102F1C0081B00090009940F29830C1F2000090ED21
:102F2C00000AB7EE001A30EE010A80ED000A0068C4
:062F3C00486001B070477F
:022F4200FEE7A8
:0E2F440081B00090009890ED010A01B0704736
:022F5200FEE798
:102F540043F63001C4F20201086840F00100086041
:102F6400086840F010000860086840F00400086039
:102F7400086840F00800086041F20001C4F2020150
:102F8400086820F400700860086820F08000086079
:102F94000021C4F20201086820F00200086041F236
:102FA4000C02C4F20202106840F4807010601068D1
:102FB40040F0400010600C22C4F20202106840F09D
:102FC40002001060086840F4805008601822C4F2BF
:102FD4000202106840F040001060086820F0080009
:102FE4000860086820F020000860086820F080006D
:102FF40008600821C4F20201086840F00800086073
:10300400086840F020000860086840F0800008600C
:1030140040F60001C4F20201086840F480700860C0
:1030240040F60C01C4F20201086840F480700860A4
:1030340040F60401C4F20201086840F01000086080
:1030440040F60041C4F20201086840F48050086070
:10305400086840F480400860086840F480300860E4
:10306400086840F480200860086840F48010086014
:10307400086840F48000086040F60C41C4F2020184
:10308400086840F400500860086840F40040086094
:10309400086840F400300860086840F400200860C4
:1030A400086840F400100860086840F400000860F4
:1030B40040F60841C4F20201086840F40050086078
:1030C400086840F400400860086840F40030086074
:1030D400086840F400200860086840F400100860A4
:0A30E400086840F40000086070471F
:0230EE00FEE7FB
:1030F00080B582B043F60001C4F20201086840F4D2
:103100008030086043F60000C4F2020000688003CB
:10311000002800D4F6E743F60001C4F20201086873
:1031200020F08070086043F60402C4F202020192AB
:10313000106840F480001060106820F03F001060BC
:10314000106840F004001060106847F6C0739843A0
:103150001060106840F428501060106820F440306F
:10316000106043F60802C4F2020210681060106892
:1031700040F4A0501060106840F4004010600868EF
:1031800040F08070086043F60000C4F2020000685E
:103190008001002800D4F6E743F60041C4F20201A2
:1031A000086840F203721043086043F60801C4F255
:1031B0000201086820F003000860086840F002007F
:1031C000086043F60800C4F20200006800F00C003A
:0E31D000082800D0F5E7FDF7EDFD02B080BD48
:0231DE00FEE70A
:1031E00082B08DF8070000919DF90700002809D4EE
:1031F000009800019DF907104EF20042CEF2000245
:1032000088540AE0009800019DF8071001F00F01B2
:0E3210004EF61452CEF20002885402B07047FF
:02321E00FEE7C9
:1032200080B584B043F60801C4F201010868086063
:10323000086808600868086043F61441C4F2010198
:10324000086840F00E00086043F60041C4F2010136
:10325000086840F00E00086043F60841C4F201011E
:10326000086840F00E00086043F60C41C4F201010A
:10327000086840F00E0008600720019001210091CD
:10328000FFF7AEFF009908200290FFF7A9FF009911
:1032900009200390FFF7A4FF0198FEF783FD029831
:0E32A000FEF780FD0398FEF77DFD04B080BDB3
:0232AE00FEE739
:1032B0000021C4F20101086840F0010008604FF0ED
:1032C0008041086840F0010008601421C4F2000148
:1032D000086840F00100086040F60001C4F20001F7
:0A32E000086840F001000860704724
:0232EA00FEE7FD
:1032EC000020C4F201000068C00768B90021C4F2D4
:1032FC000101086840F0010008601421C4F20001CB
:0A330C00086840F0010008607047F7
:02331600FEE7D0
:1033180080B584B00390039802900022014601F81A
:10332800072B01910130FEF7ADFA02980330FEF742
:10333800A9FA02980530FEF7A5FA0198FEF7A2FA55
:06334800029804B080BDF4
:02334E00FEE798
:1033500030B591EA030F00F18280841A71EB030CFF
:1033600005D2121953EB0C03001B71EB0C0140F258
:10337000000CCFF6E07C1CEA430F52D0BCEB410FAF
:103380005FD90C0DA4EB135E5FF0010C6CF31F51C1
:103390006CF31F53DEF1200C2AD303FA0CF540190D
:1033A00041F1000122FA0EF5401923FA0EF56941A8
:1033B00012FA0CF2CD0208D349085FEA30005FEA46
:1033C000320228BF42F00102641C641E5FEA500C06
:1033D00072F1004250F1000051EB04514FF4001320
:1033E00013EB410F38BF30BD6FF31301002030BD28
:1033F000BEF1200EBEF1200F1ED223FA0EF54019A9
:1034000041F10001CEF1200C124218BF012203FA53
:103410000CF52A43CEE711EA5C0F04BF002000211F
:1034200030BD1CEA410F04BF01F00041002030BD57
:1034300001F00041002030BD21F4801101EB045166
:1034400030BD004218BF41F00101BCEB410F08BF85
:1034500030BD4FF0FE4141F47801002030BD83F0D3
:103460000043841A71EB030E07D28EF0004E001B4E
:1034700071EB0E01121953EB0E0340F2000CCFF664
:10348000E07C1CEA430FC6D0BCEB410F72D90C0D97
:10349000A4EB135EC90241EA5051C00241F0004161
:1034A000DB0243EA5253D20243F00043DEF1200C28
:1034B00041D312FA0CF522FA0EF203FA0CF542EAA5
:1034C000050218BF42F0010223FA0EF3801A994157
:1034D000E30AC4F30A0411F0404F03D418D0641E69
:1034E00040004941641E23D44205C00A40EA4150CD
:1034F000C90A51EAC3715FEA500C72F1004250F1FF
:10350000000051EB045130BD01002FD00020203CC1
:103510000029F9D0B1FA81FCDCF1200E11FA0CF18E
:1035200030FA0EF510FA0CF02943A4EB0C04D9E79D
:103530000020D90730BDAEF1200EBEF1200F0DD214
:10354000CEF1200C03FA0CF533FA0EF32A4318BF20
:1035500043F00103C01A61F10001B9E721F0004115
:10356000C00A40EA4150C90A01EB045130BD0020B5
:10357000002130BD004218BF41F00101BCEB410FFA
:0E3580007FF467AFBCEB430F3FF463AF30BD89
:02358E00FEE756
:103590002DE9F04391EA030E0EF0004E40F20007D1
:1035A000CFF6E07717EA41051EBFBD4217EA430593
:1035B000BD4200F09F807F0D17EA135623EA475360
:1035C00043F4801317EA115521EA475141F4801161
:1035D000AD1B05F2FD354FEAD31C1CF1010C4FF079
:1035E0000047B7FBFCF77F01A2FB079C0024E3FB2D
:1035F00007C4D9F100096CEB4C0CA0FB076200205A
:10360000E1FB072000275FEAC628E0FB0987760D6B
:1036100046EAC226520DF61900277A41E0FB0C62F9
:103620005FEAC823E2FB09375FEA585848EAC62830
:10363000760D18EB070800214E41E2FB0C8602EBE9
:10364000C020DA02E6FB09215B0D43EAC8235FEAEA
:1036500058585B18002758EB0708E6FB0C38D102D6
:10366000E8FB0917520D42EAC3225B0DD21900276D
:103670007B41E8FB0C2308EBC6265FEAC128E3FB8D
:103680000987490D41EAC221520DC91942F10002D0
:10369000E3FB0C12470019EB08095CEB010C72EB21
:1036A000040453EBC62047EB56530026B3F5000F36
:1036B0007641AD19B61CD6F1200910FA09F4F04094
:1036C00013FA09F21043F340E40F001943F1000329
:1036D000B3F5001F24BF5B086D1C40F2FE77BD42AE
:1036E00004D24EEA05511944BDE8F0832D4224D599
:1036F000714626E0004218BF41F00101124218BF96
:1037000043F00103B7EB410F2CBFB7EB430F1BE0B6
:10371000B7EB410F04BFB7EB430F15E017EA410FBA
:1037200004BF17EA430F0FE017EA410FE0D017EA92
:10373000430F02D0B7EB430FDAD04EF0FE4141F415
:1037400070010020BDE8F08340F20001C7F6F87177
:02375000F7E799
:02375200FEE790
:1037540010F0004160B148BF40420A0D02F21D4220
:10376400B0FA80F3D21A9840C30A400503EB025121
:0237740070479C
:02377600FEE76C
:02377800FEE76A
:02377A00FEE768
:02377C00FEE766
:02377E00FEE764
:02378000FEE762
:02378200FEE760
:02378400FEE75E
:02378600FEE75C
:02378800FEE75A
:02378A00FEE758
:02378C00FEE756
:02378E00FEE754
:02379000FEE752
:02379200FEE750
:02379400FEE74E
:02379600FEE74C
:02379800FEE74A
:02379A00FEE748
:02379C00FEE746
:02379E00FEE744
:0237A000FEE742
:0237A200FEE740
:0237A400FEE73E
:0237A600FEE73C
:0237A800FEE73A
:0237AA00FEE738
:0237AC00FEE736
:0237AE00FEE734
:0237B000FEE732
:1037B20040F2A440C0F600000468204600F001F880
:0237C200FBE723
:1037C40080B505281FD840F2683CC1F2000C43F6CE
:1037D4001B035CF82010C0F600034CF82030A9B19C
:1037E40043F61902C0F6000291420CD0994208D067
:1037F40043F61703C0F60003994207D04CF8203073
:103804008847002008BD4FF0FF3008BD0120FEF7B7
:0238140004FAB4
:023816007047F9
:023818007047F7
:02381A007047F5
:10381C00B0EE401AB4EE400AF1EE10FAB0EE600AC7
:10382C000BD6B4EE400AF1EE10FA07D6B4EE401AFD
:10383C00F1EE10FAC8BFB0EE410A7047B0EE410A83
:02384C007047C3
:10384E00B0EE401AB4EE400AF1EE10FAB0EE600A95
:10385E000BD6B4EE400AF1EE10FA07D6B4EE401ACB
:10386E00F1EE10FA48BFB0EE410A7047B0EE410AD1
:02387E00704791
:10388000023900EB810090ED012A90ED001A00EE64
:10389000021AB0EE412A10ED011A0438013900EE87
:0A38A000021AF6D820EE010A704764
:0638AA00FFF782FFFEE7BC
:1038B000FEF786FF4EF68850CEF20000016851F404
:0838C00070010160FEF7A4F99C
:0C38C80043F6D400C0F60000FFF7EBFF51
:1038D40050757265207669727475616C2066756EB8
:0E38E4006374696F6E2063616C6C6564210013
:0438F400B50D000806
:0438F8000923000898
:1038FC000000000000000000010203040607080994
:10390C0000B506480649884205D00268043003B465
:10391C00904703BCF7E708BC18470000F4380008D0
:04392C00FC3800085B
:103930006539000800000010D00300006539000858
:10394000000000200800000077390008D0030010B4
:1039500060390008040000000D3900081B1C000835
:043960000024F4004B
:10396400206861680834002200E04254491EFCD5F6
:0239740070479A
:1039760020686168A2680C3401E08B5C8354521E97
:04398600FBD57047B6
:04000005080038B106
:00000001FF
