:020000040800F2
:1000000000000220592100088F140008A1090008EF
:100010009F140008F31400080315000800000000F6
:100020000000000000000000000000001B15000898
:100030005F150008000000006F150008A108000807
:100040007F1500089B150008C7150008E315000878
:100050004B1600085B1600086F160008911B00087D
:10006000DD1B0008291C00088F160008AB160008CD
:10007000C716000897170008CB18000823190008B6
:10008000831900081F1A00083D0900084B1A0008D0
:100090006F1A0008971A0008A71A0008CF1A00085C
:1000A000F71A00085F1B00088F1B0008DB1B000805
:1000B000B1080008271C0008611B0008731C000819
:1000C000631D0008531E0008CF1E00083B1F0008D8
:1000D000A71F0008E31F00080F20000847200008A2
:1000E000492000084B2000084D2000084F20000840
:1000F0005120000853200008552000085720000810
:10010000592000085B2000085D2000085F200008DF
:1001100061200008632000086520000867200008AF
:10012000692000086B2000086D2000086F2000087F
:10013000712000087320000875200008772000084F
:10014000792000087B2000087D2000087F2000081F
:1001500081200008832000088520000887200008EF
:10016000892000088B2000088D2000088F200008BF
:10017000912000089320000895200008000000004E
:080180009720000899200008F7
:1001880080B586B005900598049090F9040001F0B8
:1001980019F941EC100B9FED1C1B53EC112B51EC82
:1001A800100B00F095FF0246049801920A46019947
:1001B80042EC101B8DED020B90ED041A90ED050A30
:1001C80030EE410A10EE100A01F00EF941EC100B66
:1001D8009FED0F1B53EC112B51EC100B01F010F895
:1001E8009DED021B41EC100B51EC110B53EC102B45
:1001F80001F006F841EC100B51EC100B01F00EF970
:100208000499C86106B080BD0000000000001840D5
:080218000000000080842E416B
:1002200080B59CB01B901A911B9809901A99C968C7
:1002300041611A99096881601A99896801611A995E
:100240004968C1601A9909698161D0ED020A90ED8F
:10025000041A90ED050A90ED062A15A80790DFED27
:100260003E1ACDED061A00F045FA099890ED020A03
:100270008DED010A90ED040A8DED020A90ED050A5C
:100280008DED000A806901F0B3F841EC100B9FED91
:100290002E1B53EC112B51EC100B00F0FDFD41EC2B
:1002A000100B51EC100B01F0BDF89DED000ADDEDD7
:1002B000010A9DED021ADDED061A02EE100A10A8E1
:1002C000089000F017FA099890ED020A8DED040AE3
:1002D00090ED040A8DED050A90ED050A8DED030AF7
:1002E000806901F085F841EC100B9FED191B53EC70
:1002F000112B51EC100B00F0CFFD41EC100B51EC29
:10030000100B01F08FF89DED030ADDED040A9DED61
:10031000051ADDED061A02EE100A0BA80A9000F08D
:10032000E9F909980799283000F016FA0899099810
:10033000783000F011FA09980A99C83000F00CFAE8
:100340001CB080BD00BF00BF65732D3852C100C016
:0C03500065732D3852C110C00000000081
:10035C0081B00090009846F21C01C4F202010860C2
:10036C0046F21001C4F20201086840F00100086076
:04037C0001B0704715
:1003800081B000900098018800EE101AB8EE400A83
:100390009FED0C1A20EE010A80ED020A418800EE62
:1003A000101AB8EE400A20EE010A80ED030A818897
:1003B00000EE101AB8EE400A20EE010A80ED040AA1
:0803C00001B070476740533A99
:1003C80086B00021059104910220039002910190CA
:1003D80043F60800C4F20200006800F00C00059023
:1003E8000598009030B1009804280DD0009808288E
:1003F80014D057E040F21021C1F2000142F200404F
:10040800C0F2F400086056E040F21021C1F2000189
:1004180047F64000C0F27D1008604CE043F6040047
:10042800C4F202000168C1F380510291006800F033
:100438003F000190029880B1019947F64000C0F250
:100448007D10B0FBF1F043F60401C4F20201096823
:10045800C1F38811484304900FE0019942F200402B
:10046800C0F2F400B0FBF1F043F60401C4F202015B
:100478000968C1F388114843049043F60400C4F2A4
:100488000200006800F44031022000EBD1300390F4
:1004980004980399B0FBF1F040F21021C1F2000179
:1004A800086008E040F21021C1F2000142F2004069
:1004B800C0F2F400086043F60800C4F202000068C5
:1004C800C0B2010942F2E410C0F60000405C059099
:1004D800059A40F21021C1F200010868D040086076
:0404E80006B07047A3
:1004EC0082B00190009101990098486002B0704769
:1004FC0080B582B001900198009001F03BF8009813
:10050C0040F27C51C0F600010831016002B080BDA0
:10051C0080B582B001900198009001F02BF8009802
:10052C0040F28851C0F600010831016002B080BD74
:10053C0080B582B001900198009001F01BF80098F2
:10054C0040F29451C0F600010831016002B080BD48
:10055C0080B582B00190019840F2D812C1F200022D
:10056C00116801311160406800F08CFF02B080BD51
:0C057C000000000000000000F514000862
:0C05880000000000000000005D050008FD
:0C05940000000000000000000515000839
:0C05A000000000000000000071140008C2
:1005AC0082B00190009101990098406848600098D1
:1005BC00006808600098806888600098C068C8600F
:0405CC0002B07047C2
:1005D00081B00090009900204861086101B0704727
:1005E00080B586B005908DED040ACDED030A8DED42
:1005F000021ACDED011A059800909DED040ADDED7B
:10060000030A9DED021ADDED011A01F009FA0098C6
:0406100006B080BDF3
:1006140080B582B001900198009001F015FA00981D
:1006240040F2E461C0F60001083140F8181B00F004
:08063400C9FF009802B080BD6F
:10063C0080B584B003900398019090ED040A90ED7E
:10064C00051A20EE011AB7EE000A80EE010ABDEE83
:10065C00C00A8DED020A0298132806DC40F2E8115C
:10066C00C1F20001002008600FE0019818300090E2
:10067C00B7EE000A00F0B0FF009800F0E1FF40F286
:10068C00E810C1F2000080ED000A019840F2E81178
:10069C00C1F2000191ED000A90ED021AB4EE410A8C
:1006AC00F1EE10FA09DB01981830FFF78BFF40F2DE
:1006BC00E811C1F2000100200860019840F2E81135
:1006CC00C1F2000191ED000A90ED031A30EE010A1F
:0806DC0080ED010A04B080BDAD
:1006E40000000000000000004D0800083D0600085E
:1006F40080B588B007908DED060ACDED050A8DED25
:10070400041ACDED031A8DED022A079801909DED90
:10071400060ADDED050A9DED041ADDED031A01F06C
:0C0724007DF901980299016108B080BDC8
:1007300080B582B001900198009001F087F900988F
:1007400040F2B071C0F60001083140F81C1BFFF701
:0807500061FF009802B080BDBA
:1007580080B588B007900691079800900699C968F7
:10076800416106990968816006998968016106995D
:100778004968C16006990969816190ED041A90ED94
:10078800050A02A80190DFED060ADFED061AFFF759
:1007980023FF009801991C3001F094F808B080BD3F
:0807A800DB0FC9400000000056
:1007B00000000000000000004D0800082519000896
:1007C00080B588B007908DED060ACDED050A8DED58
:1007D000041ACDED031A8DED022A079801909DEDC4
:1007E000060ADDED050A9DED041ADDED031A01F0A0
:0C07F00017F901980299016108B080BD62
:1007FC0080B582B001900198009001F021F9009829
:10080C0040F63C01C0F60001083101602830FFF7CA
:10081C0089FF00987830FFF785FF0098C830FFF704
:10082C0081FF00980021C1610162416202B080BD6C
:10083C0000000000000000004D08000885190008A9
:10084C0082B001900091019900980068886000982E
:10085C004068C8600098806808610098C06848616A
:04086C0002B070471F
:1008700000000000000000004D080008711A000888
:1008800081B00090009800210170417001B0704764
:1008900081B000900098007800F0010001B070472E
:1008A00040F2DC11C1F200010868013008607047B5
:1008B00080B51020C4F200000068400700283CD535
:1008C00040F2E010C1F200000168013101600068EF
:1008D00041F2883188421BD11420C4F20200006822
:1008E0004006002807D51821C4F20201086840F428
:1008F0008000086006E01821C4F20201086840F098
:100900004000086040F2E011C1F2000100200860E0
:1009100040F2E410C1F20000006838B140F2E41087
:10092000C1F2000000680168096888471021C4F21C
:0C0930000001086820F00400086080BD91
:10093C0080B542F24C00C4F20100006846F66051EA
:10094C004843000B3421C4F201010860122000F06E
:04095C0001F880BD61
:1009600081B08DF803009DF9030000280CD49DF997
:10097000031001F01F02012090404A094EF280212D
:0C098000CEF2000141F8220001B07047E7
:10098C00034C206804348047FBE700F057F9FEE77E
:04099C001822000815
:1009A00008490A68002AFED41EF0040F0CBFEFF3BA
:1009B0000880EFF3098042F000420A608169023149
:0809C000816170472CED00E09D
:1009C80081B08DF803009DF9030000280CD49DF92F
:1009D800031001F01F02012090404A094EF2001155
:0C09E800CEF2000141F8220001B070477F
:1009F40043F63001C4F20201086840F001000860C7
:100A0400086840F01000086041F20001C4F20201DD
:100A1400086820F400700860086820F0800008600E
:100A24000021C4F20201086820F00200086041F2CB
:100A34000C02C4F20202106840F480701060106866
:100A440040F0400010600C22C4F20202106840F032
:100A540002001060086840F4805008601822C4F254
:100A64000202106840F040001060086820F008009E
:100A74000860086820F020000860086820F0800002
:040A8400086070474F
:100A880043F64401C4F20201086840F0010008601E
:100A980043F63001C4F20201086840F01000086013
:100AA80041F20001C4F20201086840F40030086015
:100AB800086840F40020086041F20801C4F202010D
:100AC800086840F400300860086840F400200860B6
:100AD80041F22401C4F20201086840F001000860F4
:100AE800086840F0100008602821C4F201010020C5
:100AF80008600022C4F20102116841F0600111602F
:100B08002C22C4F2010244F29F1111603422C4F273
:100B1800010242F2D00111603821C4F201010860DB
:100B28003C21C4F2010108600821C4F201010868EF
:100B380040F010000860086840F0040008601822BF
:100B4800C4F20102106840F060001060106820F0E4
:100B580003001060106840F0080010602021C4F203
:100B68000101086840F001000860086840F00400CE
:100B78000860106840F4C0401060106820F44070AD
:100B88001060106840F400601060086840F01000C1
:100B98000860086840F0400008601C22C4F20102A6
:100BA800106840F060001060106820F003001060CA
:100BB800106840F008001060086840F48070086011
:100BC800086840F4806008604421C4F201010868A4
:080BD80040F400400860704782
:100BE0000021C4F20101086820F00100086070478C
:100BF00080B540F21810C1F20000FFF799FD80BDEA
:100C000080B540F20000C1F20000FFF7F7FD80BDA3
:100C100080B540F28810C1F2000000F029FD80BDCF
:100C200080B540F20420C1F2000001F0F1F980BD6E
:100C300080B540F26810C1F2000040F20D21C1F20F
:080C4000000100F02DFC80BD55
:100C480080B592B00020119000F014FC72B601F04B
:100C580085F8FFF7CBFEFFF713FF01F0F7F801F077
:100C680033F901F067F901F001F840F2C010C1F260
:100C78000000FFF76FFB0CA800909FED390A8DED7F
:100C8800010A9FED381A8DED021AF1EE041ACDED26
:100C9800031A9FED352A8DED042AF0EE610AFFF75D
:100CA80025FD009940F21810C1F20000FFF750FD31
:100CB8009DED010A9DED021ADDED031A9DED042A52
:100CC80007A80590F0EE610AFFF776FD059940F256
:100CD8000000C1F20000FFF79FFA06A89FED230A63
:100CE80000F0B8FC62B601F05BF940F2C010C1F246
:100CF8000000FFF741FB40F20420C1F2000000F0C1
:100D0800F7FE40F20E20C1F200000078C00730B1B3
:100D180040F26810C1F2000000F01EFC13E040F23F
:100D28000F20C1F200000078C00730B140F268100F
:100D3800C1F2000000F018FC05E040F26810C1F2B2
:100D4800000000F009FC40F26810C1F2000000F059
:100D5800E1FB40F2E411C1F200010860C5E700BF01
:100D68006F12833A000048420000000017B751395B
:100D780080B5FFF739FFFFF73FFFFFF745FFFFF7A4
:080D88004BFFFFF751FF80BD96
:040D9000000000005F
:100D940010EE100AC10D4FF0FF3252FA81F1FE2914
:100DA4000FD2B5EE400AF1EE10FA52BF9FED0A1AC7
:100DB400B1EE400A9FED071AF0EE400A002000F061
:100DC4000DB8C0F3C750FE2888BF9FED010A7047D5
:0C0DD4000000C07F000000800000000054
:100DE00010B52DED048BB0EE418AB0EE409A00288C
:100DF0009FED1F0A9FED1F1A30EE800A80EE010A58
:100E0000BDEEC00AB8EEC01ABEEE002A18BF31EE21
:100E1000021A9FED192A01EE029A9FED182A10EE90
:100E2000104A01EE029A9FED160AB0EEC91AB4EE0E
:100E3000401AF1EE10FA0ADB29EE090A40F6846046
:100E4000C0F60000052101F09DF909EE009AE007C7
:100E500018BFB1EE488A18EE100A19EE101A00F009
:100E60000040484000EE100ABDEC048B10BD00BFEE
:100E7000DB0FC93FDB0F4940001049C07A771537B7
:040E8000FFE6DB2E80
:100E8400ABAA2ABE9788083C281050B99329393652
:040E9400D4AAD5B255
:100E980030B591EA030F00F18280841A71EB030CDC
:100EA80005D2121953EB0C03001B71EB0C0140F235
:100EB800000CCFF6E07C1CEA430F52D0BCEB410F8C
:100EC8005FD90C0DA4EB135E5FF0010C6CF31F519E
:100ED8006CF31F53DEF1200C2AD303FA0CF54019EA
:100EE80041F1000122FA0EF5401923FA0EF5694185
:100EF80012FA0CF2CD0208D349085FEA30005FEA23
:100F0800320228BF42F001020134013C5FEA500C72
:100F180072F1004250F1000051EB04514FF40013FC
:100F280013EB410F38BF30BD6FF31301002030BD04
:100F3800BEF1200EBEF1200F1ED223FA0EF5401985
:100F480041F10001CEF1200C124218BF012203FA30
:100F58000CF52A43CEE711EA5C0F04BF00200021FC
:100F680030BD1CEA410F04BF01F00041002030BD34
:100F780001F00041002030BD21F4801101EB045143
:100F880030BD004218BF41F00101BCEB410F08BF62
:100F980030BD4FF0FE4141F47801002030BD83F0B0
:100FA8000043841A71EB030E07D28EF0004E001B2B
:100FB80071EB0E01121953EB0E0340F2000CCFF641
:100FC800E07C1CEA430FC6D0BCEB410F72D90C0D74
:100FD800A4EB135EC90241EA5051C00241F000413E
:100FE800DB0243EA5253D20243F00043DEF1200C05
:100FF80041D312FA0CF522FA0EF203FA0CF542EA82
:10100800050218BF42F0010223FA0EF3801A994133
:10101800E30AC4F30A0411F0404F03D418D0013C8A
:1010280040004941013C23D44205C00A40EA4150EE
:10103800C90A51EAC3715FEA500C72F1004250F1DB
:10104800000051EB045130BD01002FD00020203C9E
:101058000029F9D0B1FA81FCDCF1200E11FA0CF16B
:1010680030FA0EF510FA0CF02943A4EB0C04D9E77A
:101078000020D90730BDAEF1200EBEF1200F0DD2F1
:10108800CEF1200C03FA0CF533FA0EF32A4318BFFD
:1010980043F00103C01A61F10001B9E721F00041F2
:1010A800C00A40EA4150C90A01EB045130BD002092
:1010B800002130BD004218BF41F00101BCEB410FD7
:1010C8007FF467AFBCEB430F3FF463AF30BD00BFA5
:1010D800F0B540F2FF7681EA030C16EA115E1EBFF6
:1010E800B64516EA1355B54252D021EA465141F4A5
:1010F8008011A1FB024723EA465343F48013AE4410
:10110800A0FB03650CF0004C36197D41A1FB034799
:1011180047F10003A0FB0217F619654153F10003DC
:10112800094218BF46F0010640F2FE74B3F5007F8D
:1011380013D2AEF5806EA64523D24CEA03312803BC
:1011480041EA155140EA16503203450872F100424F
:1011580050F1000051EB0E51F0BDAEF2FF3EA64536
:101168000FD24CEAC321E80241EA555140EA5650F1
:10117800F202450872F1004250F1000051EB0E51A5
:10118800F0BD1EEA0E0F2DD50CF000410020F0BD79
:1011980016EA115F04BF01F000410020004218BFA9
:1011A80041F0010116EA135F04BF03F00043002277
:1011B800124218BF43F0010306EA1354B44218BFA1
:1011C800B64503D00CF000410020F0BD21F00041ED
:1011D80023F00043B1EB065F0CD8B3EB065F09D8E8
:1011E80041B13BB10CF0004141F0FE4141F47001C6
:1011F8000020F0BD40F20001C7F6F8710020F0BDF4
:101208002DE9F04391EA030E0EF0004E40F200077C
:10121800CFF6E07717EA41051EBFBD4217EA43053E
:10122800BD4200F09F807F0D17EA135623EA47530B
:1012380043F4801317EA115521EA475141F480110C
:10124800AD1B05F2FD354FEAD31C1CF1010C4FF024
:101258000047B7FBFCF77F01A2FB079C0024E3FBD8
:1012680007C4D9F100096CEB4C0CA0FB0762002005
:10127800E1FB072000275FEAC628E0FB0987760D17
:1012880046EAC226520DF61900277A41E0FB0C62A5
:101298005FEAC823E2FB09375FEA585848EAC628DC
:1012A800760D18EB070800214E41E2FB0C8602EB95
:1012B800C020DA02E6FB09215B0D43EAC8235FEA96
:1012C80058585B18002758EB0708E6FB0C38D10282
:1012D800E8FB0917520D42EAC3225B0DD219002719
:1012E8007B41E8FB0C2308EBC6265FEAC128E3FB39
:1012F8000987490D41EAC221520DC91942F100027C
:10130800E3FB0C12470019EB08095CEB010C72EBCC
:10131800040453EBC62047EB56530026B3F5000FE1
:101328007641AD190236D6F1200910FA09F4F040D9
:1013380013FA09F21043F340E40F001943F10003D4
:10134800B3F5001F24BF5B08013540F2FE77BD42AC
:1013580004D24EEA05511944BDE8F0832D4224D544
:10136800714626E0004218BF41F00101124218BF41
:1013780043F00103B7EB410F2CBFB7EB430F1BE062
:10138800B7EB410F04BFB7EB430F15E017EA410F66
:1013980004BF17EA430F0FE017EA410FE0D017EA3E
:1013A800430F02D0B7EB430FDAD04EF0FE4141F4C1
:1013B80070010020BDE8F08340F20001C7F6F87123
:0413C800F7E700BF84
:1013CC0010F0004160B148BF40420A0D02F21D42CC
:1013DC00B0FA80F3D21A9840C30A400503EB0251CD
:0413EC00704700BF87
:1013F000C0F3C75191B142004FEA40704FEAD201A9
:101400004FEA310101F16051B2F17F4F38BF7047AF
:1014100001F1605118BF41F40021704710F0004104
:0414200000207047F1
:1014240001F000428B1AA3F16051B1F5801F0ADB71
:10143400B1F17F6F09D242EAC102C10071F10041EA
:1014440042EB507070471046704701285B4113F51A
:10145400001F02D842F0FF407047C90041EA5070B3
:0C146400104340F4800040F080407047CE
:0C14700008B5014800F06BFEBC2100082C
:10147C004EF68851CEF20001086840F47000086006
:02148C007047A7
:02148E00FEE777
:0E14900080B582B0019000F0A5FD02B080BDD5
:02149E00FEE767
:1014A00080B586B0059004910598039000210170E5
:1014B000416008300090FFF721F803981030019048
:1014C000FFF72CF8039818300290FFF737F80098D0
:1014D000039A049951600499FFF708F80198049958
:1014E000FFF704F802980499FFF700F8039806B094
:0214F00080BDBD
:0214F200FEE713
:0E14F40080B582B00190FFF771FB02B080BDA1
:02150200FEE702
:1015040081B0009040F2D811C1F20001086801389E
:06151400086001B0704701
:02151A00FEE7EA
:10151C0084B002900298009000780146019130B19D
:10152C000198012807D00198022808D00BE00098F8
:10153C00083003900AE000981030039006E0009801
:10154C001830039002E0009808300390039804B020
:02155C007047D6
:02155E00FEE7A6
:0E15600081B0009000990020087001B0704723
:02156E00FEE796
:0E15700081B0009000990120087001B0704712
:02157E00FEE786
:1015800081B00090009840F2A051C0F600010831EF
:0A15900001600021416001B07047C6
:02159A00FEE76A
:10159C0085B004908DED030ACDED020A8DED011A94
:1015AC00CDED001A049802994160039901600199EC
:0A15BC0081600099C16005B070471E
:0215C600FEE73E
:1015C80081B0009000980021016041608160C16095
:0A15D80001614161816101B07047BB
:0215E200FEE722
:1015E40080B584B003908DED020A039801900299AE
:1015F400816190ED003A90ED010A90ED051A90EDAD
:10160400062A80EE030A20EE020A30EE010A40F2B6
:101614000021C1F2000181ED000A0A68026191ED26
:10162400000AD0ED020A00F079FD019880ED050A68
:10163400D0ED030A90ED050A00F059FD019880ED04
:06164400050A04B080BDA0
:02164A00FEE7B9
:0E164C0081B00090009890ED050A01B0704743
:02165A00FEE7A9
:10165C0082B001908DED000A01980099016002B0F2
:02166C007047C5
:02166E00FEE795
:1016700081B0009000980021017141718160017377
:0E1680004173016141618161C16101B0704738
:02168E00FEE775
:1016900082B0019000910198009991ED000AB8EE96
:0A16A000C00A80ED040A02B0704792
:0216AA00FEE759
:1016AC0082B0019000910198009991ED000AB8EE7A
:0A16BC00C00A80ED050A02B0704775
:0216C600FEE73D
:1016C80082B001900198009090F9040001281CD183
:1016D800009841790131417190F9050048F6880276
:1016E800C0F688024EF6EF61CEF6EE6100FB0120EF
:1016F8004FEAB00044F24441C0F24441884203D862
:10170800009988680130886021E0009890F9040009
:101718000130E0B9009841790139417190F905002B
:1017280048F68802C0F688024EF6EF61CEF6EE6102
:1017380000FB01204FEAB00044F24441C0F24441AA
:10174800884203D80099886801388860FFE70098C4
:1017580090F905003C2804D0009890F905003C3029
:1017680010B9009900204871009881684FF4B4724C
:10177800514390F9052002EB420201EB420100EED1
:0E178800101AB8EEC00A80ED060A02B07047D3
:02179600FEE76C
:1017980082B00190019800901021C4F202010968FA
:1017A80001F00E014173007B002800F0838000984F
:1017B80090F90C00082804D1009890F90D000A2827
:1017C80031D0009890F90C000A2804D1009890F9BB
:1017D8000D00022827D0009890F90C00022804D1A7
:1017E800009890F90D0006281DD0009890F90C007B
:1017F800062804D1009890F90D00042813D0009809
:1018080090F90C00042804D1009890F90D000C28D8
:1018180009D0009890F90C000C2808D1009890F98C
:101828000D00082803D10099012008713EE00098B6
:1018380090F90C00022804D1009890F90D000A28AC
:1018480031D0009890F90C000A2804D1009890F93A
:101858000D00082827D0009890F90C00082804D11A
:10186800009890F90D000C281DD0009890F90C00F4
:101878000C2804D1009890F90D00042813D0009882
:1018880090F90C00042804D1009890F90D0006285E
:1018980009D0009890F90C00062807D1009890F913
:1018A8000D00022802D10099FF2008710099487B99
:1018B800087304E00099487B08730020087102B09F
:0218C800704767
:0218CA00FEE737
:1018CC0080B588B007900691079800900699C96872
:1018DC0041610699096881600699896801610699D8
:1018EC004968C16090ED021A90ED040AD0ED050A2A
:1018FC0020EE012AB7EE000A80EE020AF1EE411A40
:10190C0002A80190FFF744FE009801991830FEF7E9
:06191C0047FE08B080BD8B
:02192200FEE7DE
:1019240080B584B00390039801901C300090FEF7BA
:1019340083FE0098019991ED020A8DED020A00F0F0
:10194400A9F8019890ED061A30EE010AFFF720FA83
:101954000198B0EE401A9DED020A20EE010A40F211
:10196400EC11C1F2000181ED000A91ED000A90ED45
:0E197400031A30EE010A80ED010A04B080BDB6
:02198200FEE77E
:1019840080B588B007900798069028300190FFF73B
:10199400C7FF069878300290FFF7C2FF0698C83058
:1019A4000390FFF7BDFF019800F074F8029840F22D
:1019B400FC11C1F20001049181ED000A00F06AF803
:1019C400039840F2F811C1F20001059181ED000A7B
:1019D40000F060F8049B059A069840F2F411C1F2F5
:1019E400000181ED000A93ED000A90ED031A30EE38
:1019F400010A80ED070A92ED000A90ED031A30EE19
:101A0400010A80ED080A91ED000A90ED031A30EE08
:0A1A1400010A80ED090A08B080BD48
:021A1E00FEE7E1
:101A200085B004908DED030ACDED020A8DED011A0B
:101A3000CDED001A04980399C160029901600199E3
:0A1A400081600099416005B0704715
:021A4A00FEE7B5
:101A4C0081B00090009840F67001C0F6000108319A
:101A5C000160002141608160C1600161416101B0A0
:021A6C007047C1
:021A6E00FEE791
:101A700081B00090009940F2F010C1F2000090EDAA
:101A8000000AB7EE001A30EE010A80ED000A006885
:061A9000486001B0704740
:021A9600FEE769
:0E1A980081B00090009890ED010A01B07047F7
:021AA600FEE759
:101AA80083B002908DF80710029800909DF8070007
:101AB800C00730B10099087800F001004870012093
:061AC800087003B0704736
:021ACE00FEE731
:101AD00083B002908DF80710029800909DF80700DF
:101AE000C00730B10099087800F00100487000206C
:061AF000087003B070470E
:021AF600FEE709
:101AF80080B582B00190019800900330FEF7C4FED3
:101B080030B10098012100F8011BFFF7DDFF20E04C
:101B180000980530FEF7B8FE38B10098022100F8A9
:101B2800011B0121FFF7D0FF13E000980730FEF7F3
:101B3800ABFE38B10098032100F8011B0121FFF723
:101B4800C3FF06E00098002100F8011B0121FFF700
:061B5800A7FF02B080BDF2
:021B5E00FEE7A0
:101B600040F61000C4F200000068C00730B140F237
:101B7000D411C1F2000108680130086040F610017C
:0E1B8000C4F20001086820F001000860704700
:021B8E00FEE770
:101B900080B582B043F61441C4F20101086840F0F8
:101BA0000200086040F28810C1F20000009040F28C
:101BB000D411C1F200010191FFF778FD0098FFF701
:101BC000EBFD0098FFF780FD0098FEF7DDFA009826
:0A1BD0000199FFF75DFD02B080BD32
:021BDA00FEE724
:101BDC0080B582B043F61441C4F20101086840F0AC
:101BEC000400086040F28810C1F20000009040F23E
:101BFC00D411C1F200010191FFF752FD0098FFF7DB
:101C0C00C5FD0098FFF75AFD0098FEF7B7FA00984B
:0A1C1C000199FFF737FD02B080BD0B
:021C2600FEE7D7
:101C280080B582B043F61441C4F20101086840F05F
:101C38000800086040F28810C1F20000009040F2ED
:101C4800D411C1F200010191FFF72CFD0098FFF7B4
:101C58009FFD0098FFF734FD0098FEF791FA009871
:0A1C68000199FFF711FD02B080BDE5
:021C7200FEE78B
:101C740043F63001C4F20201086840F00400086031
:101C840043F64402C4F20202106840F4807010600B
:101C9400086840F40010086040F60001C4F2020134
:101CA400086820F03F000860086840F03F000860C2
:101CB40046F21002C4F202020020106046F2180339
:101CC400C4F2020342F24C01C4F20101196046F26B
:101CD4001403C4F2020303211960116841F4806102
:101CE4001160116841F420511160116841F4807150
:101CF400116011681160116841F04001116042F2F5
:101D04000402C4F20102106042F20801C4F20101AB
:101D14000860106840F480701060086840F00200A9
:101D24000860086840F48070086042F22C02C4F233
:101D34000102106820F470001060106840F4001074
:101D4400106042F20C02C4F20102106840F2FF1368
:0E1D540098431060086840F001000860704776
:021D6200FEE79A
:101D640080B582B043F60001C4F20201086840F471
:101D74008030086043F60000C4F20200006880036B
:101D8400002800D4F6E743F60001C4F20201086813
:101D940020F08070086043F60402C4F2020201924B
:101DA400106840F480001060106820F03F0010605C
:101DB400106840F004001060106847F6C073984340
:101DC4001060106840F428501060106820F440300F
:101DD400106043F60802C4F2020210681060106832
:101DE40040F4A0501060106840F40040106008688F
:101DF40040F08070086043F60000C4F202000068FE
:101E04008001002800D4F6E743F60041C4F2020141
:101E1400086840F203721043086043F60801C4F2F4
:101E24000201086820F003000860086840F002001E
:101E3400086043F60800C4F20200006800F00C00D9
:0E1E4400082800D0F5E7FEF7BDFA02B080BD19
:021E5200FEE7A9
:101E540080B543F64001C4F20201086840F0010075
:101E640008602821C4F20001002008604FF080417E
:101E7400086820F060000860086840F010000860FE
:101E84002C21C4F2000144F29F1008603821C4F2EE
:101E9400000142F2107008600421C4F200010868D5
:101EA40040F0200008600C21C4F20001086840F0F2
:101EB400040008601021C4F20001086820F0040046
:0A1EC40008601C20FEF77EFD80BDC3
:021ECE00FEE72D
:101ED00080B543F64001C4F20201086840F00400F6
:101EE000086040F62801C4F200010020086040F6B6
:101EF0000001C4F20001086820F060000860086872
:101F000040F01000086040F62C01C4F2000153209C
:101F1000086040F60C01C4F20001086840F00100BE
:101F2000086040F61001C4F20001086820F00100CA
:0A1F300008601E20FEF748FD80BD8A
:021F3A00FEE7C0
:101F3C0080B543F60801C4F201010868086008681E
:101F4C0008600868086043F61441C4F2010108688F
:101F5C0040F00E00086043F60041C4F2010108682D
:101F6C0040F00E00086043F60841C4F20101086815
:101F7C0040F00E00086043F60C41C4F20101086801
:101F8C0040F00E0008600720FEF718FD0820FEF751
:0A1F9C0015FD0920FEF712FD80BDBF
:021FA600FEE754
:101FA8000021C4F20101086840F0010008604FF008
:101FB8008041086840F0010008601421C4F2000163
:101FC800086840F00100086040F60001C4F2000112
:0A1FD800086840F00100086070473F
:021FE200FEE718
:101FE4000020C4F201000068C00768B90021C4F2EF
:101FF4000101086840F0010008601421C4F20001E6
:0A200400086840F001000860704712
:02200E00FEE7EB
:1020100080B584B00390039802900022014601F835
:10202000072B01910130FEF72BFC02980330FEF7DD
:1020300027FC02980530FEF723FC0198FEF720FCF0
:06204000029804B080BD0F
:02204600FEE7B3
:02204800FEE7B1
:02204A00FEE7AF
:02204C00FEE7AD
:02204E00FEE7AB
:02205000FEE7A9
:02205200FEE7A7
:02205400FEE7A5
:02205600FEE7A3
:02205800FEE7A1
:02205A00FEE79F
:02205C00FEE79D
:02205E00FEE79B
:02206000FEE799
:02206200FEE797
:02206400FEE795
:02206600FEE793
:02206800FEE791
:02206A00FEE78F
:02206C00FEE78D
:02206E00FEE78B
:02207000FEE789
:02207200FEE787
:02207400FEE785
:02207600FEE783
:02207800FEE781
:02207A00FEE77F
:02207C00FEE77D
:02207E00FEE77B
:02208000FEE779
:02208200FEE777
:02208400FEE775
:02208600FEE773
:02208800FEE771
:02208A00FEE76F
:02208C00FEE76D
:02208E00FEE76B
:02209000FEE769
:02209200FEE767
:02209400FEE765
:02209600FEE763
:02209800FEE761
:10209A0080B505281FD840F2A812C1F2000242F208
:1020AA00F10C52F82010C0F6000C42F820C0A9B179
:1020BA0042F2EF03C0F6000399420CD0614508D002
:1020CA0042F2ED03C0F60003994207D042F82030ED
:1020DA008847002008BD4FF0FF3008BD0120FEF7F9
:0220EA0057FCA1
:0220EC0070473B
:0220EE00704739
:0220F000704737
:1020F200B4EE400AF1EE10FA0BD6F4EE600AF1EEFD
:1021020010FA09D6B4EE600AF1EE10FAC8BFF0EE8A
:0E211200400AB0EE600A7047F0EE400AF9E7AE
:10212000B4EE400AF1EE10FA0BD6F4EE600AF1EECE
:1021300010FA09D6B4EE600AF1EE10FA48BFF0EEDC
:0E214000400AB0EE600A7047F0EE400AF9E780
:0A214E000FB408B500F00DF8FEE72D
:10215800FFF790F94EF68850CEF20000016851F46E
:0821680070010160FEF70EFC9E
:1021700010B540F69050C0F6000004682046FFF706
:042180008CFFFBE7EE
:1021840000EB8100032910ED021A10ED012A02EE82
:10219400001A0CDB0C380139013990ED002A01EEEC
:1021A400002A04380139B0EE421AF6D801E0B0EE44
:0821B400412A22EE000A7047E7
:1021BC0050757265207669727475616C2066756EE7
:0E21CC006374696F6E2063616C6C6564210042
:0421DC00C90300082B
:0421E000790D00086D
:1021E40000000000000000000102030406070809C3
:1021F40000B506480649884205D00268043003B495
:10220400904703BCF7E708BC18470000DC2100082E
:04221400E4210008B9
:1022180041220008000000101002000053220008AC
:10222800100200103C22000804000000F5210008FC
:0422380097090008FA
:04223C000024F40086
:10224000206861680834002200E042540139FCD55E
:022250007047D5
:1022520020686168A2680C3401E08B5C8354013A07
:04226200FBD57047F1
:040000050800215975
:00000001FF
