:020000040800F2
:100000000000022021260008EF1200082D0B000836
:10001000A7130008031400081714000800000000CC
:100020000000000000000000000000002F14000885
:100030004F14000800000000A3140008350A00084F
:10004000B7140008CB1400080F1500081F1500088E
:100050002F1500084B15000877150008DD1A000859
:10006000291B0008751B000893150008FB150008E4
:100070000B1600081F1600083F1600085B16000844
:1000800077160008471700087B180008AF1800080B
:10009000D3180008FF18000857190008B7190008FE
:1000A000531A00087F1A0008A31A0008CB1A000888
:1000B000450A0008DB1A0008DD0A0008271B0008B3
:1000C000731B0008BF1B00083F1C0008871D0008A9
:1000D000771E0008F31E00085F1F00089B1F000822
:1000E000C71F0008632000089B200008B7200008F5
:1000F000F7220008BB240008DF240008E1240008E0
:10010000E3240008E5240008E7240008E9240008A7
:10011000EB240008ED240008EF240008F124000877
:10012000C11B0008F3240008F5240008F724000888
:10013000F9240008FB240008FD240008FF2400081F
:1001400001250008032500080525000807250008EB
:10015000092500080B2500080D2500080F250008BB
:10016000112500081325000815250008172500088B
:10017000192500081B2500081D25000800000000A7
:080180001F25000821250008DD
:1001880080B58CB00B900B9907918888CA88104469
:100198000A8910444A891044A0F50050C21700EBA0
:1001A800927080100A908889CA8910440A8A10447B
:1001B8004A8A1044A0F50050C21700EB92708010D4
:1001C8000990888ACA8A10440A8B1044498B0844CB
:1001D800A0F50050C11700EB9170801008909DEDBC
:1001E8000A0AB8EEC00A10EE100A01F031F841EC24
:1001F800100B51EC100B9FED3E0B53EC102B0293A0
:10020800019200F07BFF41EC100B51EC100B9FEDBD
:100218003A0B53EC102B0493039200F06FFF41EC60
:10022800100B51EC100B9FED360B53EC102B069373
:10023800059202F05DF841EC100B51EC100B01F047
:1002480021F80799C8619DED090AB8EEC00A10EEB9
:10025800100A00F0FDFF019A029B41EC100B51ECD3
:10026800100B00F04BFF039A049B41EC100B51EC70
:10027800100B00F043FF059A069B41EC100B51EC64
:10028800100B02F035F841EC100B51EC100B00F09C
:10029800F9FF079908629DED080AB8EEC00A10EE4A
:1002A800100A00F0D5FF019A029B41EC100B51ECAB
:1002B800100B00F023FF039A049B41EC100B51EC48
:1002C800100B00F01BFF059A069B41EC100B51EC3C
:1002D800100B02F00DF841EC100B51EC100B00F074
:1002E800D1FF079948620CB080BD00BF00BF00BFB6
:1002F800000000000000403F666666666666FA3FDA
:080308009A9999999999B93F5E
:1003100080B582B001900198009001F03FFE0098F6
:1003200040F61802C4F20202116821F48011116033
:10033000006800F091FF41EC100B9FED0F1B53EC98
:10034000112B51EC100B01F0D7FF41EC100B51ECCD
:10035000100B9FED0B0B53EC102B00F0D3FE41EC78
:10036000100B51EC100B00F065FF3421C4F20101B9
:10037000086002B080BD00BF0000000000005940CE
:08038000000000000068D040FD
:1003880080B586B005900598049090F9040002F0B5
:1003980091F841EC100B9FED1C1B53EC112B51EC09
:1003A800100B00F0ABFE0246049801920A46019930
:1003B80042EC101B8DED020B90ED041A90ED050A2E
:1003C80030EE410A10EE100A00F042FF41EC100B2B
:1003D8009FED0F1B53EC112B51EC100B01F088FF14
:1003E8009DED021B41EC100B51EC110B53EC102B43
:1003F80001F07EFF41EC100B51EC100B00F042FFB6
:100408000499C86106B080BD0000000000001840D3
:080418000000000080842E4169
:1004200080B59CB01B901A911B9809901A99C968C5
:1004300041611A99096881601A99896801611A995C
:100440004968C1601A9909698161D0ED020A90ED8D
:10045000041A90ED050A90ED062A15A80790DFED25
:100460003E1ACDED061A00F017FA099890ED020A2F
:100470008DED010A90ED040A8DED020A90ED050A5A
:100480008DED000A806900F0E7FE41EC100B9FED56
:100490002E1B53EC112B51EC100B01F00DFE41EC17
:1004A000100B51EC100B00F0F1FE9DED000ADDED9C
:1004B000010A9DED021ADDED061A02EE100A10A8DF
:1004C000089000F0E9F9099890ED020A8DED040A10
:1004D00090ED040A8DED050A90ED050A8DED030AF5
:1004E000806900F0B9FE41EC100B9FED191B53EC35
:1004F000112B51EC100B01F0DFFD41EC100B51EC16
:10050000100B00F0C3FE9DED030ADDED040A9DED26
:10051000051ADDED061A02EE100A0BA80A9000F08B
:10052000BBF909980799283000F0E8F9089909986B
:10053000783000F0E3F909980A99C83000F0DEF944
:100540001CB080BD00BF00BF65732D3852C100C014
:0C05500065732D3852C110C0000000007F
:10055C0086B0002105910491022003900291019034
:10056C0043F60800C4F20200006800F00C0005908D
:10057C000598009030B1009804280DD000980828F8
:10058C0014D057E040F27021C1F2000142F2004059
:10059C00C0F2F400086056E040F27021C1F2000194
:1005AC0047F64000C0F27D1008604CE043F60400B2
:1005BC00C4F202000168C1F380510291006800F09E
:1005CC003F000190029880B1019947F64000C0F2BB
:1005DC007D10B0FBF1F043F60401C4F2020109688E
:1005EC00C1F38811484304900FE0019942F2004096
:1005FC00C0F2F400B0FBF1F043F60401C4F20201C6
:10060C000968C1F388114843049043F60400C4F20E
:10061C000200006800F44031022000EBD13003905E
:10062C0004980399B0FBF1F040F27021C1F2000183
:10063C00086008E040F27021C1F2000142F2004073
:10064C00C0F2F400086043F60800C4F2020000682F
:10065C00C0B2010942F26C60C0F60000405C05902B
:10066C00059A40F27021C1F200010868D040086080
:04067C0006B070470D
:1006800080B582B0019001980090B7EE002AB0EEDC
:10069000420AF0EE420AB0EE421AF0EE421A01F0BF
:0806A000EDF8009802B080BDE6
:1006A80082B00190009101990098486002B07047AB
:1006B80080B582B001900198009000F035FF009855
:1006C80040F22071C0F600010831016002B080BD1F
:1006D80080B582B001900198009000F025FF009845
:1006E80040F22C71C0F600010831016002B080BDF3
:1006F80080B582B001900198009000F015FF009835
:1007080040F23871C0F600010831016002B080BDC6
:0807180081B0009001B07047B0
:0C0720000000000000000000A51400080C
:0C072C000000000000000000B9140008EC
:0C0738000000000000000000190700088D
:0C07440000000000000000003926000842
:1007500082B001900091019900984068486000982B
:10076000006808600098806888600098C068C86069
:0407700002B070471C
:1007740081B00090009900204861086101B0704781
:1007840080B586B005908DED040ACDED030A8DED9C
:10079400021ACDED011A059800909DED040ADDEDD5
:1007A400030A9DED021ADDED011A01F051F90098DA
:0407B40006B080BD4E
:1007B80080B582B001900198009001F05DF9009831
:1007C80040F68801C0F60001083140F8181B00F017
:0807D800CFFE009802B080BDC5
:1007E00080B584B003900398019090ED040A90EDD9
:1007F000051A20EE011AB7EE000A80EE010ABDEEDE
:10080000C00A8DED020A0298132806DC40F23C2152
:10081000C1F20001002008600FE00198183000903C
:10082000B7EE000A00F0B6FE009800F0E7FE40F2D6
:100830003C20C1F2000080ED000A019840F23C210A
:10084000C1F2000191ED000A90ED021AB4EE410AE6
:10085000F1EE10FA09DB01981830FFF78BFF40F238
:100860003C21C1F2000100200860019840F23C21C7
:10087000C1F2000191ED000A90ED031A30EE010A79
:0808800080ED010A04B080BD07
:100888000000000000000000F1090008E10700086E
:1008980080B588B007908DED060ACDED050A8DED7F
:1008A800041ACDED031A8DED022A079801909DEDEB
:1008B800060ADDED050A9DED041ADDED031A01F0C7
:0C08C800C5F801980299016108B080BDDC
:1008D40080B582B001900198009001F0CFF80098A3
:1008E40040F65411C0F60001083140F81C1BFFF714
:0808F40061FF009802B080BD15
:1008FC0080B588B007900691079800900699C96852
:10090C0041610699096881600699896801610699B7
:10091C004968C16006990969816190ED041A90EDEE
:10092C00050A02A80190DFED060ADFED061AFFF7B3
:10093C0023FF009801991C3000F0DCFF08B080BD4B
:08094C00DB0FC94000000000B0
:100954000000000000000000F10900085919000817
:1009640080B588B007908DED060ACDED050A8DEDB2
:10097400041ACDED031A8DED022A079801909DED1E
:10098400060ADDED050A9DED041ADDED031A01F0FA
:0C0994005FF801980299016108B080BD75
:1009A00080B582B001900198009001F069F800983C
:1009B00040F6E011C0F60001083101602830FFF771
:1009C00089FF00987830FFF785FF0098C830FFF75F
:1009D00081FF00980021C1610162416202B080BDC7
:1009E0000000000000000000F1090008B91900082B
:1009F00082B0019000910199009800688860009889
:100A00004068C8600098806808610098C0684861C4
:040A100002B0704779
:100A14000000000000000000F1090008A51A000809
:100A240081B00090009800210170417001B07047BE
:100A340040F23021C1F200010868013008607047BB
:100A440080B51020C4F2000000684007002842D599
:100A540040F23420C1F200000168013101600068F5
:100A640041F2883188421BD11420C4F2020000688C
:100A74004006002807D51821C4F20201086840F492
:100A84008000086006E01821C4F20201086840F002
:100A94004000086040F23421C1F2000100200860E7
:100AA40040F29810C1F20000FFF76CFB40F23820CE
:100AB400C1F20000006838B140F23820C1F20000F1
:100AC40000680168096888471021C4F200010868B9
:080AD40020F00400086080BD61
:100ADC0080B540F61000C4F200000068C00760B199
:100AEC0040F29810C1F2000000F0FCFB40F22C2107
:100AFC00C1F2000108683230086040F61001C4F2FF
:0C0B0C000001086820F00100086080BDB6
:100B1800034C206804348047FBE700F0C3F9FEE784
:040B2800A0260008FB
:100B2C0008490A68002AFED41EF0040F0CBFEFF32C
:100B3C000880EFF3098042F000420A6081690231BB
:080B4C00816170472CED00E00F
:100B540081B08DF803009DF9030000280CD49DF9A1
:100B6400031001F01F02012090404A094EF20011C7
:0C0B7400CEF2000141F8220001B07047F1
:100B800043F63001C4F20201086840F00100086039
:100B9000086840F010000860086840F00400086031
:100BA00041F20001C4F20201086820F400700860FC
:100BB000086820F0800008600021C4F20201086883
:100BC00020F00200086041F20C02C4F20202106838
:100BD00040F480701060106840F0400010600C22FB
:100BE000C4F20202106840F002001060086840F48D
:100BF000805008601822C4F20202106840F04000E1
:100C00001060086820F008000860086820F02000E4
:100C10000860086820F08000086040F60001C4F217
:100C20000201086840F48070086040F60C01C4F2CC
:100C30000201086840F48070086040F60401C4F2C4
:0C0C40000201086840F0100008607047D6
:100C4C0043F64401C4F20201086840F00100086058
:100C5C0043F63001C4F20201086840F0100008604D
:100C6C0041F20001C4F20201086840F4003008604F
:100C7C0041F20801C4F20201086840F40030086037
:100C8C0041F22401C4F20201086840F0010008603E
:100C9C002821C4F20101002008600022C4F20102E4
:100CAC00116841F0600111602C22C4F2010244F27F
:100CBC009F1111603421C4F2010108603821C4F283
:100CCC00010108603C21C4F2010108600821C4F252
:100CDC000101086840F010000860086840F004004A
:100CEC0008601822C4F20102106840F06000106025
:100CFC00106820F003001060106840F008001060CD
:100D0C002021C4F20101086840F001000860086865
:100D1C0040F004000860106840F4C0401060106897
:100D2C0020F440701060106840F400601060086897
:100D3C0040F010000860086840F0400008601C2279
:100D4C00C4F20102106840F060001060106820F0DE
:100D5C0003001060106840F008001060086840F450
:100D6C0080700860086840F4806008604421C4F218
:0C0D7C000101086840F400400860704766
:100D880080B543F64001C4F20201086840F004004F
:100D9800086040F62801C4F200010020086040F60F
:100DA8000001C4F20001086820F0600008600868CB
:100DB80040F01000086040F62C01C4F2000141F236
:100DC8006700086040F60801C4F20001086840F0B6
:100DD80010000860086840F00400086040F60C0144
:100DE800C4F20001086840F00100086040F61001F4
:100DF800C4F20001086820F0010008601E20FFF717
:040E0800A5FE80BD06
:100E0C000021C4F20101086820F00100086070475D
:100E1C0080B540F21810C1F20000FFF755FD80BDFF
:100E2C0080B540F20000C1F20000FFF7B3FD80BDB9
:100E3C0080B540F2E010C1F2000000F0EBFB80BD89
:100E4C0080B540F29810C1F2000040F25C21C1F272
:080E5C00000101F0B3F880BDB4
:100E640080B540F26220C1F2000001F0F9F880BDC3
:100E740080B540F26810C1F2000001F00DF980BDA8
:100E840080B540F21820C1F20000FFF7F7FB80BDE7
:100E940080B540F2C010C1F2000040F26811C1F206
:080EA400000100F0D3FA80BD4B
:100EAC0080B592B00020119000F0A6FA72B600F056
:100EBC0065FFFFF75FFEFFF7C3FE00F0D7FFFFF7FC
:100ECC005DFF01F011F800F0B5FE40F29810C1F290
:100EDC00000000F0FBF90CA800909FED380A8DED96
:100EEC00010A9FED371A8DED021AF1EE041ACDEDC1
:100EFC00031A9FED342A8DED042AF0EE610AFFF7F8
:100F0C00C5FC009940F21810C1F20000FFF7F0FC8C
:100F1C009DED010A9DED021ADDED031A9DED042AEB
:100F2C0007A80590F0EE610AFFF716FD059940F24F
:100F3C000000C1F20000FFF76DFA06A89FED220A2F
:100F4C0000F05EFB40F26810C1F2000040F2182184
:100F5C00C1F2000100F05AFA62B600F0FBFF40F259
:100F6C006B20C1F200000078C00730B140F2C01015
:100F7C00C1F2000000F0C6FA13E040F26C20C1F29E
:100F8C0000000078C00730B140F2C010C1F2000080
:100F9C0000F0C0FA05E040F2C010C1F2000000F011
:100FAC00B1FA40F2C010C1F2000000F089FA40F230
:100FBC003821C1F200010860D1E700BF6F12833AFB
:0C0FCC00000048420000000017B7513937
:100FD80080B5FFF71FFFFFF725FFFFF72BFFFFF790
:100FE80031FFFFF73BFFFFF741FFFFF747FFFFF731
:040FF8004DFF80BD6C
:040FFC0000000000F1
:1010000010EE100AC10D4FF0FF3252FA81F1FE29A5
:101010000FD2B5EE400AF1EE10FA52BF9FED0A1A58
:101020009FED081AB1EE400AF0EE400A002000F0F1
:101030000DB8C0F3C750FE2888BF9FED010A704766
:0C1040000000C07F0000008000000000E5
:10104C0010B52DED048B9FED222A9FED223A30EE48
:10105C00822A82EE032ABDEEC22AB8EEC23ABEEE56
:10106C00004A002818BF33EE043A9FED1B4AB0EE3D
:10107C00408A03EE048A9FED190A03EE008AB0EE53
:10108C00C80A9FED173AB4EE430AF1EE10FAB0EE2F
:10109C00419A12EE104A0ADB28EE080A41F2F000DF
:1010AC00C0F60000052101F09DFA08EE008AE00769
:1010BC0018BFB1EE499A19EE100A18EE101A00F08A
:1010CC000040484000EE100ABDEC048B10BD00BF80
:1010DC00DB0FC93FDB0F4940001049C07A77153749
:0410EC00FFE6DB2E12
:1010F000ABAA2ABE9788083C281050B993293936E4
:04110000D4AAD5B2E6
:10110400F0B540F2FF7681EA030C16EA115E1EBFC9
:10111400B64516EA1355B54252D021EA465141F478
:101124008011A1FB024723EA465343F48013AE44E3
:10113400A0FB03650CF0004C36197D41A1FB03476D
:1011440047F10003A0FB0217F619654153F10003B0
:10115400094218BF46F0010640F2FE74B3F5007F61
:1011640013D2AEF5806EA64523D24CEA0331280390
:1011740041EA155140EA16503203450872F1004223
:1011840050F1000051EB0E51F0BDAEF2FF3EA6450A
:101194000FD24CEAC321E80241EA555140EA5650C5
:1011A400F202450872F1004250F1000051EB0E5179
:1011B400F0BD1EEA0E0F2DD50CF000410020F0BD4D
:1011C40016EA115F04BF01F000410020004218BF7D
:1011D40041F0010116EA135F04BF03F0004300224B
:1011E400124218BF43F0010306EA1354B44218BF75
:1011F400B64503D00CF000410020F0BD21F00041C1
:1012040023F00043B1EB065F0CD8B3EB065F09D8BB
:1012140041B13BB10CF0004141F0FE4141F4700199
:101224000020F0BD40F20001C7F6F8710020F0BDC7
:101234000B0D40F21E42D21A09DBCB0243EA505096
:1012440040F00040202A28BF2022D04070474900A7
:04125400804170471E
:10125800C0F3C75191B142004FEA40704FEAD20142
:101268004FEA310101F16051B2F17F4F38BF704749
:1012780001F1605118BF41F40021704710F000419E
:04128800002070478B
:10128C0001F000428B1AA3F16051B1F5801F0ADB0B
:10129C00B1F17F6F09D242EAC102C10071F1004184
:1012AC0042EB507070471046704701285B4113F5B4
:1012BC00001F02D842F0FF407047C90041EA50704D
:0C12CC00104340F4800040F08040704768
:1012D80081B000900098006846F21C41C4F20201F7
:0612E800086001B0704730
:0212EE00FEE719
:1012F00084B0039046F21041C4F20201086820F065
:101300000100086042F21070029046F21040C4F2F0
:10131000020001680020C907009041B1029801381D
:10132000029000284FF00000C8BF012000900098F4
:10133000C00708B100BFE8E746F20841C4F2020165
:101340003920086046F21441C4F20201032008600B
:1013500046F21041C4F20201086840F00100086042
:1013600042F20800C4F201000068C00788B942F2E6
:101370000801C4F20101086840F001000860002083
:1013800001900198632804DC00BF019801300190AE
:10139000F7E742F20801C4F20101086840F080401A
:0613A000086004B0704774
:0213A600FEE760
:1013A80082B001900198009040F25820C1F20000EC
:1013B8000068042805D140F25821C1F2000100203C
:1013C8000860009A1068008840F25821C1F20001B4
:1013D8000B6802EB43039880106840880B6802EBA7
:1013E80043039881106880880B6802EB430290825F
:0A13F80008680130086002B0704779
:02140200FEE703
:101404004EF68851CEF20001086840F4700008607E
:0214140070471F
:02141600FEE7EF
:1014180080B582B00190009101980430009900F0E5
:0614280055FA02B080BD80
:02142E00FEE7D7
:1014300080B582B00190FFF7E9FC41F21801C4F2D7
:0E1440000201086820F07C50086002B080BDF8
:02144E00FEE7B7
:1014500080B586B005900491059803900021017035
:10146000416008300090FFF727F903981030019091
:10147000FFF732F9039818300290FFF73DF9009812
:10148000039A049951600499FFF70EF901980499A1
:10149000FFF70AF902980499FFF706F9039806B0D6
:0214A00080BD0D
:0214A200FEE763
:1014A40080B582B0019001984068FFF7BFFF02B099
:0214B40080BDF9
:0214B600FEE74F
:1014B80080B582B0019001984068FEF725FF02B020
:0214C80080BDE5
:0214CA00FEE73B
:1014CC0084B002900298009000780146019130B1EE
:1014DC000198012807D00198022808D00BE0009849
:1014EC00083003900AE000981030039006E0009852
:1014FC001830039002E0009808300390039804B071
:02150C00704726
:02150E00FEE7F6
:0E15100081B0009000990020087001B0704773
:02151E00FEE7E6
:0E15200081B0009000990120087001B0704762
:02152E00FEE7D6
:1015300081B00090009840F24471C0F6000108317B
:0A15400001600021416001B0704716
:02154A00FEE7BA
:10154C0085B004908DED030ACDED020A8DED011AE4
:10155C00CDED001A0498029941600399016001993C
:0A156C0081600099C16005B070476E
:02157600FEE78E
:1015780081B0009000980021016041608160C160E5
:0A15880001614161816101B070470B
:02159200FEE772
:1015940080B584B003908DED020A039801900299FE
:1015A400816190ED003A90ED010A90ED051A90EDFD
:1015B400062A80EE030A20EE020A30EE010A40F207
:1015C4005421C1F2000181ED000A0A68026191ED23
:1015D400000AD0ED020A00F0F0FF019880ED050A40
:1015E400D0ED030A90ED050A00F0CEFF019880EDDE
:0615F400050A04B080BDF1
:0215FA00FEE70A
:0E15FC0081B00090009890ED050A01B0704794
:02160A00FEE7F9
:10160C0082B001908DED000A01980099016002B042
:02161C00704715
:02161E00FEE7E5
:1016200081B00090009800210171417181600173C7
:0E1630004173016141618161C16101B0704788
:02163E00FEE7C5
:1016400082B0019000910198009991ED000AB8EEE6
:0A165000C00A80ED040A02B07047E2
:02165A00FEE7A9
:10165C0082B0019000910198009991ED000AB8EECA
:0A166C00C00A80ED050A02B07047C5
:02167600FEE78D
:1016780082B001900198009090F9040001281CD1D3
:10168800009841790131417190F9050048F68802C6
:10169800C0F688024EF6EF61CEF6EE6100FB01203F
:1016A8004FEAB00044F24441C0F24441884203D8B2
:1016B800009988680130886021E0009890F904005A
:1016C8000130E0B9009841790139417190F905007C
:1016D80048F68802C0F688024EF6EF61CEF6EE6153
:1016E80000FB01204FEAB00044F24441C0F24441FB
:1016F800884203D80099886801388860FFE7009815
:1017080090F905003C2804D0009890F905003C3079
:1017180010B9009900204871009881684FF4B4729C
:10172800514390F9052002EB420201EB420100EE21
:0E173800101AB8EEC00A80ED060A02B0704723
:02174600FEE7BC
:1017480082B00190019800901021C4F2020109684A
:1017580001F00E014173007B002800F0838000989F
:1017680090F90C00082804D1009890F90D000A2877
:1017780031D0009890F90C000A2804D1009890F90B
:101788000D00022827D0009890F90C00022804D1F7
:10179800009890F90D0006281DD0009890F90C00CB
:1017A800062804D1009890F90D00042813D0009859
:1017B80090F90C00042804D1009890F90D000C2829
:1017C80009D0009890F90C000C2808D1009890F9DD
:1017D8000D00082803D10099012008713EE0009807
:1017E80090F90C00022804D1009890F90D000A28FD
:1017F80031D0009890F90C000A2804D1009890F98B
:101808000D00082827D0009890F90C00082804D16A
:10181800009890F90D000C281DD0009890F90C0044
:101828000C2804D1009890F90D00042813D00098D2
:1018380090F90C00042804D1009890F90D000628AE
:1018480009D0009890F90C00062807D1009890F963
:101858000D00022802D10099FF2008710099487BE9
:10186800087304E00099487B08730020087102B0EF
:021878007047B7
:02187A00FEE787
:10187C0086B005908DED040ACDED030A8DED021AAC
:10188C00CDED011A8DED002A05980499016003999C
:10189C004160029981600199C1600099016106B0B3
:0218AC00704783
:0218AE00FEE753
:1018B00081B0009000980021016041608160C160AA
:1018C000016141618161C16101624162816201B076
:0218D00070475F
:0218D200FEE72F
:1018D40082B0019000910199009800680860009816
:1018E400406848600098806888600098C068C86054
:0A18F40000980069086102B0704717
:0218FE00FEE703
:1019000080B588B007900691079800900699C9683D
:1019100041610699096881600699896801610699A3
:101920004968C16090ED021A90ED040AD0ED050AF5
:1019300020EE012AB7EE000A80EE020AF1EE411A0B
:1019400002A80190FFF702FE009801991830FEF7F7
:06195000FFFE08B080BD9F
:02195600FEE7AA
:1019580080B584B00390039801901C300090FEF786
:101968003BFF0098019991ED020A8DED020A00F003
:10197800A9F8019890ED061A30EE010AFFF73CFB32
:101988000198B0EE401A9DED020A20EE010A40F2DD
:101998004021C1F2000181ED000A91ED000A90EDAD
:0E19A800031A30EE010A80ED010A04B080BD82
:0219B600FEE74A
:1019B80080B588B007900798069028300190FFF707
:1019C800C7FF069878300290FFF7C2FF0698C83024
:1019D8000390FFF7BDFF019800F074F8029840F2F9
:1019E8005021C1F20001049181ED000A00F06AF86B
:1019F800039840F24C21C1F20001059181ED000AE3
:101A080000F060F8049B059A069840F24821C1F25C
:101A1800000181ED000A93ED000A90ED031A30EE03
:101A2800010A80ED070A92ED000A90ED031A30EEE4
:101A3800010A80ED080A91ED000A90ED031A30EED4
:0A1A4800010A80ED090A08B080BD14
:021A5200FEE7AD
:101A540085B004908DED030ACDED020A8DED011AD7
:101A6400CDED001A04980399C160029901600199AF
:0A1A740081600099416005B07047E1
:021A7E00FEE781
:101A800081B00090009840F61421C0F600010831A2
:101A90000160002141608160C1600161416101B06C
:021AA00070478D
:021AA200FEE75D
:101AA40081B00090009940F24420C1F2000090ED12
:101AB400000AB7EE001A30EE010A80ED000A006851
:061AC400486001B070470C
:021ACA00FEE735
:0E1ACC0081B00090009890ED010A01B07047C3
:021ADA00FEE725
:101ADC0080B582B043F61441C4F20101086840F0AD
:101AEC000200086040F2E010C1F20000009040F2E9
:101AFC002C21C1F200010191FFF7AAFD0098FFF71C
:101B0C001DFE0098FFF7B2FD0098FEF737FC009819
:0A1B1C000199FFF78FFD02B080BDB4
:021B2600FEE7D8
:101B280080B582B043F61441C4F20101086840F060
:101B38000400086040F2E010C1F20000009040F29A
:101B48002C21C1F200010191FFF784FD0098FFF7F5
:101B5800F7FD0098FFF78CFD0098FEF711FC009840
:0A1B68000199FFF769FD02B080BD8E
:021B7200FEE78C
:101B740080B582B043F61441C4F20101086840F014
:101B84000800086040F2E010C1F20000009040F24A
:101B94002C21C1F200010191FFF75EFD0098FFF7CF
:101BA400D1FD0098FFF766FD0098FEF7EBFB009867
:0A1BB4000199FFF743FD02B080BD68
:021BBE00FEE740
:101BC00080B546F20040C4F202000068800600289A
:101BD0000BD546F20841C4F202012020086040F211
:101BE0009810C1F20000FFF7DFFB46F20040C4F29C
:101BF00002000068C006002805D546F20841C4F27C
:101C000002011020086046F20040C4F202000068A1
:101C10000007002805D546F20841C4F20201082059
:101C2000086046F20040C4F202000068C00728B114
:0E1C300046F20841C4F202010120086080BDA6
:021C3E00FEE7BF
:101C400080B584B043F63001C4F20201086840F068
:101C50000400086043F64402C4F20202106840F433
:101C600080701060086840F48000086040F6000151
:101C7000C4F20201086820F03F000860086840F0E4
:101C80003F00086046F21041C4F2020101910020B9
:101C90000290086046F21842C4F2020242F24C007E
:101CA000C4F20100106046F21442C4F202020320A2
:101CB0001060086840F480600860086840F42050B4
:101CC000086008680860086820F0C00008600868BC
:101CD00040F0100008603820FEF73CFF029842F206
:101CE0000403C4F20103186042F20802C4F20102C4
:101CF0001060196841F480711960116821F00201C7
:101D00001160116841F48071116042F22C0CC4F230
:101D1000010CDCF8001021F47001CCF80010DCF8A4
:101D2000001041F40011CCF8001042F2340CC4F25F
:101D3000010C43F26A11CCF8001042F20C0CC4F210
:101D4000010CDCF8001040F2FF1E21EA0E01CCF875
:101D50000010DCF8001041F0DB01CCF8001019682D
:101D600021F020011960116841F001011160039018
:101D70000398B0F57A7F04DA00BF0398013003902E
:061D8000F6E704B080BD8F
:021D8600FEE776
:101D880080B582B043F60001C4F20201086840F44D
:101D98008030086043F60000C4F202000068800347
:101DA800002800D4F6E743F60001C4F202010868EF
:101DB80020F08070086043F60402C4F20202019227
:101DC800106840F480001060106820F03F00106038
:101DD800106840F004001060106847F6C07398431C
:101DE8001060106840F428501060106820F44030EB
:101DF800106043F60802C4F202021068106010680E
:101E080040F4A0501060106840F40040106008686A
:101E180040F08070086043F60000C4F202000068D9
:101E28008001002800D4F6E743F60041C4F202011D
:101E3800086840F203721043086043F60801C4F2D0
:101E48000201086820F003000860086840F00200FA
:101E5800086043F60800C4F20200006800F00C00B5
:0E1E6800082800D0F5E7FEF775FB02B080BD3C
:021E7600FEE785
:101E780080B543F64001C4F20201086840F0010051
:101E880008602821C4F20001002008604FF080415A
:101E9800086820F060000860086840F010000860DA
:101EA8002C21C4F2000144F29F1008603821C4F2CA
:101EB800000142F2107008600421C4F200010868B1
:101EC80040F0200008600C21C4F20001086840F0CE
:101ED800040008601021C4F20001086820F0040022
:0A1EE80008601C20FEF732FE80BDEA
:021EF200FEE709
:101EF40080B543F60801C4F2010108680860086867
:101F040008600868086043F61441C4F201010868D7
:101F140040F00E00086043F60041C4F20101086875
:101F240040F00E00086043F60841C4F2010108685D
:101F340040F00E00086043F60C41C4F20101086849
:101F440040F00E0008600720FEF702FE0820FEF7AE
:0A1F5400FFFD0920FEF7FCFD80BD33
:021F5E00FEE79C
:101F60000021C4F20101086840F0010008604FF050
:101F70008041086840F0010008601421C4F20001AB
:101F8000086840F00100086040F60001C4F200015A
:0A1F9000086840F001000860704787
:021F9A00FEE760
:101F9C000020C4F201000068C00768B90021C4F237
:101FAC000101086840F0010008601421C4F200012E
:0A1FBC00086840F00100086070475B
:021FC600FEE734
:101FC8008CB00A9009910A9906910B9109980860BA
:101FD80000208880881D0C31079108900899079A7D
:101FE800002021F8020B084691420890F6D1069984
:101FF8000020888101F10E001431049105900599A3
:10200800049A002021F8020B084691420590F6D167
:1020180006990020888201F116001C310291039074
:102028000399029A002021F8020B08469142039076
:10203800F6D106990020C86101F1200028310091ED
:1020480001900199009A002041F8040B084691423A
:0A2058000190F6D10B980CB0704710
:02206200FEE797
:1020640080B584B00390039802900022014601F8E1
:10207400072B01910130FEF7D3FC02980330FEF7E1
:10208400CFFC02980530FEF7CBFC0198FEF7C8FCA4
:06209400029804B080BDBB
:02209A00FEE75F
:10209C0080B582B0019001980090002140F8041B9B
:0A20AC00FFF700FC009802B080BDB1
:0220B600FEE743
:1020B80030B591EA030F00F18280841A71EB030CAA
:1020C80005D2121953EB0C03001B71EB0C0140F203
:1020D800000CCFF6E07C1CEA430F52D0BCEB410F5A
:1020E8005FD90C0DA4EB135E5FF0010C6CF31F516C
:1020F8006CF31F53DEF1200C2AD303FA0CF54019B8
:1021080041F1000122FA0EF5401923FA0EF5694152
:1021180012FA0CF2CD0208D349085FEA30005FEAF0
:10212800320228BF42F00102641C641E5FEA500CB0
:1021380072F1004250F1000051EB04514FF40013CA
:1021480013EB410F38BF30BD6FF31301002030BDD2
:10215800BEF1200EBEF1200F1ED223FA0EF5401953
:1021680041F10001CEF1200C124218BF012203FAFE
:102178000CF52A43CEE711EA5C0F04BF00200021CA
:1021880030BD1CEA410F04BF01F00041002030BD02
:1021980001F00041002030BD21F4801101EB045111
:1021A80030BD004218BF41F00101BCEB410F08BF30
:1021B80030BD4FF0FE4141F47801002030BD83F07E
:1021C8000043841A71EB030E07D28EF0004E001BF9
:1021D80071EB0E01121953EB0E0340F2000CCFF60F
:1021E800E07C1CEA430FC6D0BCEB410F72D90C0D42
:1021F800A4EB135EC90241EA5051C00241F000410C
:10220800DB0243EA5253D20243F00043DEF1200CD2
:1022180041D312FA0CF522FA0EF203FA0CF542EA4F
:10222800050218BF42F0010223FA0EF3801A994101
:10223800E30AC4F30A0411F0404F03D418D0641E13
:1022480040004941641E23D44205C00A40EA415077
:10225800C90A51EAC3715FEA500C72F1004250F1A9
:10226800000051EB045130BD01002FD00020203C6C
:102278000029F9D0B1FA81FCDCF1200E11FA0CF139
:1022880030FA0EF510FA0CF02943A4EB0C04D9E748
:102298000020D90730BDAEF1200EBEF1200F0DD2BF
:1022A800CEF1200C03FA0CF533FA0EF32A4318BFCB
:1022B80043F00103C01A61F10001B9E721F00041C0
:1022C800C00A40EA4150C90A01EB045130BD002060
:1022D800002130BD004218BF41F00101BCEB410FA5
:0E22E8007FF467AFBCEB430F3FF463AF30BD34
:0222F600FEE701
:1022F8002DE9F04391EA030E0EF0004E40F200077C
:10230800CFF6E07717EA41051EBFBD4217EA43053D
:10231800BD4200F09F807F0D17EA135623EA47530A
:1023280043F4801317EA115521EA475141F480110B
:10233800AD1B05F2FD354FEAD31C1CF1010C4FF023
:102348000047B7FBFCF77F01A2FB079C0024E3FBD7
:1023580007C4D9F100096CEB4C0CA0FB0762002004
:10236800E1FB072000275FEAC628E0FB0987760D16
:1023780046EAC226520DF61900277A41E0FB0C62A4
:102388005FEAC823E2FB09375FEA585848EAC628DB
:10239800760D18EB070800214E41E2FB0C8602EB94
:1023A800C020DA02E6FB09215B0D43EAC8235FEA95
:1023B80058585B18002758EB0708E6FB0C38D10281
:1023C800E8FB0917520D42EAC3225B0DD219002718
:1023D8007B41E8FB0C2308EBC6265FEAC128E3FB38
:1023E8000987490D41EAC221520DC91942F100027B
:1023F800E3FB0C12470019EB08095CEB010C72EBCC
:10240800040453EBC62047EB56530026B3F5000FE0
:102418007641AD19B61CD6F1200910FA09F4F0403E
:1024280013FA09F21043F340E40F001943F10003D3
:10243800B3F5001F24BF5B086D1C40F2FE77BD4258
:1024480004D24EEA05511944BDE8F0832D4224D543
:10245800714626E0004218BF41F00101124218BF40
:1024680043F00103B7EB410F2CBFB7EB430F1BE061
:10247800B7EB410F04BFB7EB430F15E017EA410F65
:1024880004BF17EA430F0FE017EA410FE0D017EA3D
:10249800430F02D0B7EB430FDAD04EF0FE4141F4C0
:1024A80070010020BDE8F08340F20001C7F6F87122
:0224B800F7E744
:0224BA00FEE73B
:1024BC0010F0004160B148BF40420A0D02F21D42CB
:1024CC00B0FA80F3D21A9840C30A400503EB0251CC
:0224DC00704747
:0224DE00FEE717
:0224E000FEE715
:0224E200FEE713
:0224E400FEE711
:0224E600FEE70F
:0224E800FEE70D
:0224EA00FEE70B
:0224EC00FEE709
:0224EE00FEE707
:0224F000FEE705
:0224F200FEE703
:0224F400FEE701
:0224F600FEE7FF
:0224F800FEE7FD
:0224FA00FEE7FB
:0224FC00FEE7F9
:0224FE00FEE7F7
:02250000FEE7F4
:02250200FEE7F2
:02250400FEE7F0
:02250600FEE7EE
:02250800FEE7EC
:02250A00FEE7EA
:02250C00FEE7E8
:02250E00FEE7E6
:02251000FEE7E4
:02251200FEE7E2
:02251400FEE7E0
:02251600FEE7DE
:02251800FEE7DC
:02251A00FEE7DA
:02251C00FEE7D8
:02251E00FEE7D6
:02252000FEE7D4
:1025220040F6FC70C0F600000468204600F001F896
:02253200FBE7C5
:1025340080B505281FD840F2002CC1F2000C42F2ED
:102544008B535CF82010C0F600034CF82030A9B17E
:1025540042F28952C0F6000291420CD0994208D04E
:1025640042F28753C0F60003994207D04CF820305A
:102574008847002008BD4FF0FF3008BD0120FEF75A
:02258400D0FA8B
:0225860070479C
:0225880070479A
:02258A00704798
:10258C00B0EE401AB4EE400AF1EE10FAB0EE600A6A
:10259C000BD6B4EE400AF1EE10FA07D6B4EE401AA0
:1025AC00F1EE10FAC8BFB0EE410A7047B0EE410A26
:0225BC00704766
:1025BE00B0EE401AB4EE400AF1EE10FAB0EE600A38
:1025CE000BD6B4EE400AF1EE10FA07D6B4EE401A6E
:1025DE00F1EE10FA48BFB0EE410A7047B0EE410A74
:0225EE00704734
:1025F000023900EB810090ED012A90ED001A00EE07
:10260000021AB0EE412A10ED011A0438013900EE29
:0A261000021AF6D820EE010A704706
:06261A00FFF782FFFEE75E
:10262000FEF7F0FE4EF68850CEF20000016851F43D
:0826300070010160FEF770FA71
:0C26380042F24460C0F60000FFF7EBFF28
:1026440050757265207669727475616C2066756E5A
:0E2654006374696F6E2063616C6C65642100B5
:042664005D05000808
:04266800D90F00087E
:10266C000000000000000000010203040607080936
:10267C0000B506480649884205D00268043003B408
:10268C00904703BCF7E708BC184700006426000815
:04269C006C260008A0
:1026A000C9260008000000106D020000DB260008AB
:1026B00070020010C4260008040000007D260008F7
:0426C000230B0008E0
:0426C4000024F400FA
:1026C800206861680834002200E04254491EFCD5A5
:0226D800704749
:1026DA0020686168A2680C3401E08B5C8354521E46
:0426EA00FBD5704765
:0400000508002621A8
:00000001FF
