:020000040800F2
:10000000000002208D2300083F170008D90B0008CC
:100010004F1700086F170008C31700080000000002
:10002000000000000000000000000000D7170008DA
:10003000EB170008000000002F180008550A000800
:100040003F1800084F1800086B18000897180008A0
:10005000B31800081B1900082B190008311E0008EE
:100060007D1E0008C91E00083F190008890B000802
:100070005F1900087B19000897190008671A000823
:100080009B1B0008F31B0008390B0008531C0008D9
:10009000EF1C00081B1D00083F1D0008671D00081D
:1000A000771D00089F1D0008C71D00082F1E0008AF
:1000B000650A00087B1E0008FD0A0008C71E00082C
:1000C000131F000803200008F32000086F21000818
:1000D000DB21000817220008432200087B220008C9
:1000E0007D2200087F220008812200088322000868
:1000F0008522000887220008892200088B22000838
:100100008D2200088F220008912200089322000807
:100110009522000897220008992200089B220008D7
:100120009D2200089F220008A1220008A3220008A7
:10013000A5220008A7220008A9220008AB22000877
:10014000AD220008AF220008B1220008B322000847
:10015000B5220008B7220008B9220008BB22000817
:10016000BD220008BF220008C1220008C3220008E7
:10017000C5220008C7220008C922000800000000AC
:08018000CB220008CD2200088B
:1001880080B58CB00B900B990791C8880A891044E8
:100198004A8910448A891044A0F50050C21700EB20
:1001A800927080100A90C8890A8A10444A8A1044BA
:1001B8008A8A1044A0F50050C21700EB9270801094
:1001C8000990C88A0A8B10444A8B1044898B0844CA
:1001D800A0F50050C11700EB9170801008909DEDBC
:1001E8000A0AB8EEC00A10EE100A01F055FA41ECFE
:1001F800100B51EC100B9FED3E0B53EC102B0293A0
:10020800019201F055F941EC100B51EC100B9FEDE8
:100218003A0B53EC102B0493039201F0B1F841EC24
:10022800100B51EC100B9FED360B53EC102B069373
:10023800059201F03DF941EC100B51EC100B01F067
:1002480045FA079908629DED090AB8EEC00A10EE52
:10025800100A01F021FA019A029B41EC100B51ECB3
:10026800100B01F025F9039A049B41EC100B51EC9B
:10027800100B01F085F8059A069B41EC100B51EC28
:10028800100B01F015F941EC100B51EC100B01F0BB
:100298001DFA079948629DED080AB8EEC00A10EEEB
:1002A800100A01F0F9F9019A029B41EC100B51EC8C
:1002B800100B01F0FDF8039A049B41EC100B51EC74
:1002C800100B01F05DF8059A069B41EC100B51EC00
:1002D800100B01F0EDF841EC100B51EC100B01F094
:1002E800F5F9079988620CB080BD00BF00BF00BF58
:1002F800000000000000A040666666666666FA3F79
:080308009A9999999999B93F5E
:1003100080B586B005900598049090F9040001F02E
:10032000ADF941EC100B9FED1C1B53EC112B51EC64
:10033000100B01F029F80246049801920A4601992F
:1003400042EC101B8DED020B90ED041A90ED050AA6
:1003500030EE410A10EE100A01F0A2F941EC100B48
:100360009FED0F1B53EC112B51EC100B01F0A4F877
:100370009DED021B41EC100B51EC110B53EC102BBB
:1003800001F09AF841EC100B51EC100B01F0A2F9BE
:100390000499C86106B080BD00000000000018404C
:0803A0000000000080842E41E2
:1003A80080B59CB01B901A911B9809901A99C9683E
:1003B80041611A99096881601A99896801611A99D5
:1003C8004968C1601A9909698161D0ED020A90ED06
:1003D800041A90ED050A90ED062A15A80790DFED9E
:1003E8003E1ACDED061A00F05BFA099890ED020A64
:1003F8008DED010A90ED040A8DED020A90ED050AD3
:100408008DED000A806901F047F941EC100B9FED72
:100418002E1B53EC112B51EC100B00F091FE41EC0C
:10042800100B51EC100B01F051F99DED000ADDEDB8
:10043800010A9DED021ADDED061A02EE100A10A857
:10044800089000F02DFA099890ED020A8DED040A43
:1004580090ED040A8DED050A90ED050A8DED030A6D
:10046800806901F019F941EC100B9FED191B53EC51
:10047800112B51EC100B00F063FE41EC100B51EC0A
:10048800100B01F023F99DED030ADDED040A9DED43
:10049800051ADDED061A02EE100A0BA80A9000F004
:1004A800FFF909980799283000F02CFA089909985B
:1004B800783000F027FA09980A99C83000F022FA33
:1004C8001CB080BD00BF00BF65732D3852C100C08D
:0C04D80065732D3852C110C000000000F8
:1004E40081B00090009846F21C01C4F20201086039
:1004F40046F21001C4F20201086840F001000860ED
:0405040001B070478B
:1005080081B0009042F20801C4F20101086840F08D
:1005180001000860086840F08040086001B070473A
:1005280081B0009042F20801C4F20101086820F08D
:080538000100086001B07047EA
:1005400082B001900198009040F21820C1F20000A2
:100550000068042805D140F21821C1F200010020F2
:100560000860009A108840F21821C1F200010B685F
:1005700002EB4303D88050880B6802EB4303D88119
:1005800090880B6802EB4302D08208680130086053
:0405900002B07047FE
:1005940086B00021059104910220039002910190FC
:1005A40043F60800C4F20200006800F00C00059055
:1005B4000598009030B1009804280DD000980828C0
:1005C40014D057E040F22821C1F2000142F2004069
:1005D400C0F2F400086056E040F22821C1F20001A4
:1005E40047F64000C0F27D1008604CE043F604007A
:1005F400C4F202000168C1F380510291006800F066
:100604003F000190029880B1019947F64000C0F282
:100614007D10B0FBF1F043F60401C4F20201096855
:10062400C1F38811484304900FE0019942F200405D
:10063400C0F2F400B0FBF1F043F60401C4F202018D
:100644000968C1F388114843049043F60400C4F2D6
:100654000200006800F44031022000EBD130039026
:1006640004980399B0FBF1F040F22821C1F2000193
:10067400086008E040F22821C1F2000142F2004083
:10068400C0F2F400086043F60800C4F202000068F7
:10069400C0B2010942F21840C0F60000405C059067
:1006A400059A40F22821C1F200010868D040086090
:0406B40006B07047D5
:1006B80082B00190009101990098486002B070479B
:1006C80080B582B001900198009001F0BDF80098C3
:1006D80040F23071C0F600010831016002B080BDFF
:1006E80080B582B001900198009001F0ADF80098B3
:1006F80040F23C71C0F600010831016002B080BDD3
:1007080080B582B001900198009001F09DF80098A2
:1007180040F24871C0F600010831016002B080BDA6
:0807280081B0009001B07047A0
:0C0730000000000000000000C5170008D9
:0C073C000000000000000000D9170008B9
:0C0748000000000000000000290700086D
:0C07540000000000000000002117000859
:1007600082B001900091019900984068486000981B
:10077000006808600098806888600098C068C86059
:0407800002B070470C
:1007840081B00090009900204861086101B0704771
:1007940080B586B005908DED040ACDED030A8DED8C
:1007A400021ACDED011A059800909DED040ADDEDC5
:1007B400030A9DED021ADDED011A01F097FA009883
:0407C40006B080BD3E
:1007C80080B582B001900198009001F0A3FA0098DA
:1007D80040F69801C0F60001083140F8181B01F0F6
:0807E80057F8009802B080BD33
:1007F00080B584B003900398019090ED040A90EDC9
:10080000051A20EE011AB7EE000A80EE010ABDEECD
:10081000C00A8DED020A0298132806DC40F2FC1192
:10082000C1F20001002008600FE00198183000902C
:10083000B7EE000A01F03EF8009801F06FF840F2C0
:10084000FC10C1F2000080ED000A019840F2FC119A
:10085000C1F2000191ED000A90ED021AB4EE410AD6
:10086000F1EE10FA09DB01981830FFF78BFF40F228
:10087000FC11C1F2000100200860019840F2FC1157
:10088000C1F2000191ED000A90ED031A30EE010A69
:0808900080ED010A04B080BDF7
:100898000000000000000000010A0008F10700083D
:1008A80080B588B007908DED060ACDED050A8DED6F
:1008B800041ACDED031A8DED022A079801909DEDDB
:1008C800060ADDED050A9DED041ADDED031A01F0B7
:0C08D8000BFA01980299016108B080BD84
:1008E40080B582B001900198009001F015FA00984B
:1008F40040F66411C0F60001083140F81C1BFFF7F4
:0809040061FF009802B080BD04
:10090C0080B588B007900691079800900699C96841
:10091C0041610699096881600699896801610699A7
:10092C004968C16006990969816190ED041A90EDDE
:10093C00050A02A80190DFED060ADFED061AFFF7A3
:10094C0023FF009801991C3001F022F908B080BDFA
:08095C00DB0FC94000000000A0
:100964000000000000000000010A0008F51B000858
:1009740080B588B007908DED060ACDED050A8DEDA2
:10098400041ACDED031A8DED022A079801909DED0E
:10099400060ADDED050A9DED041ADDED031A01F0EA
:0C09A400A5F901980299016108B080BD1E
:1009B00080B582B001900198009001F0AFF90098E5
:1009C00040F6F011C0F60001083101602830FFF751
:1009D00089FF00987830FFF785FF0098C830FFF74F
:1009E00081FF00980021C1610162416202B080BDB7
:1009F0000000000000000000010A0008551C00086B
:100A000082B0019000910199009800688860009878
:100A10004068C8600098806808610098C0684861B4
:040A200002B0704769
:100A24000000000000000000010A0008411D000849
:100A340081B00090009800210170417001B07047AE
:100A440081B000900098007800F0010001B0704778
:100A540040F2F011C1F200010868013008607047EB
:100A640080B51020C4F2000000684007002842D579
:100A740040F2F410C1F20000016801310160006825
:100A840041F2883188421BD11420C4F2020000686C
:100A94004006002807D51821C4F20201086840F472
:100AA4008000086006E01821C4F20201086840F0E2
:100AB4004000086040F2F411C1F200010020086017
:100AC40040F26810C1F20000FFF75CFB40F2F8103E
:100AD400C1F20000006838B140F2F810C1F2000021
:100AE40000680168096888471021C4F20001086899
:080AF40020F00400086080BD41
:100AFC0080B540F61000C4F200000068C00760B179
:100B0C0040F26810C1F20000FFF7F8FC40F2EC1163
:100B1C00C1F2000108683230086040F61001C4F2DE
:0C0B2C000001086820F00100086080BD96
:100B380080B542F24C00C4F20100006846F66051EC
:100B48004843000B3421C4F201010860122000F070
:040B580001F880BD63
:100B5C0081B08DF803009DF9030000280CD49DF999
:100B6C00031001F01F02012090404A094EF280212F
:0C0B7C00CEF2000141F8220001B07047E9
:100B880080B582B046F20000C4F202000068800618
:100B9800002811D546F20801C4F20201086840F0A5
:100BA8002000086040F26810C1F200000190FFF7D1
:0C0BB800B7FC0198FFF7C0FC02B080BD44
:100BC400034C206804348047FBE700F099F9FEE702
:040BD4004C240008A5
:100BD80008490A68002AFED41EF0040F0CBFEFF380
:100BE8000880EFF3098042F000420A60816902310F
:080BF800816170472CED00E063
:100C000081B08DF803009DF9030000280CD49DF9F4
:100C1000031001F01F02012090404A094EF200111A
:0C0C2000CEF2000141F8220001B0704744
:100C2C0043F63001C4F20201086840F0010008608C
:100C3C00086840F01000086041F20001C4F20201A3
:100C4C00086820F400700860086820F080000860D4
:100C5C000021C4F20201086820F00200086041F291
:100C6C000C02C4F20202106840F48070106010682C
:100C7C0040F0400010600C22C4F20202106840F0F8
:100C8C0002001060086840F4805008601822C4F21A
:100C9C000202106840F040001060086820F0080064
:100CAC000860086820F020000860086820F08000C8
:040CBC000860704715
:100CC00043F64401C4F20201086840F001000860E4
:100CD00043F63001C4F20201086840F010000860D9
:100CE00041F20001C4F20201086840F400300860DB
:100CF000086840F40020086041F20801C4F20201D3
:100D0000086840F400300860086840F4002008607B
:100D100041F22401C4F20201086840F001000860B9
:100D2000086840F0100008602821C4F2010100208A
:100D300008600022C4F20102116841F060011160F4
:100D40002C22C4F2010244F29F1111603422C4F239
:100D5000010242F2D00111603821C4F201010860A1
:100D60003C21C4F2010108600821C4F201010868B5
:100D700040F010000860086840F004000860182285
:100D8000C4F20102106840F060001060106820F0AA
:100D900003001060106840F0080010602021C4F2C9
:100DA0000101086840F001000860086840F0040094
:100DB0000860106840F4C0401060106820F4407073
:100DC0001060106840F400601060086840F0100087
:100DD0000860086840F0400008601C22C4F201026C
:100DE000106840F060001060106820F00300106090
:100DF000106840F008001060086840F480700860D7
:100E0000086840F4806008604421C4F20101086869
:080E100040F400400860704747
:100E180080B543F64001C4F20201086840F00400BE
:100E2800086040F62801C4F200010020086040F67E
:100E38000001C4F20001086820F06000086008683A
:100E480040F01000086040F62C01C4F2000141F2A5
:100E58006700086040F60801C4F20001086840F025
:100E680010000860086840F00400086040F60C01B3
:100E7800C4F20001086840F00100086040F6100163
:100E8800C4F20001086820F0010008601E20FFF786
:040E9800B3FE80BD68
:100E9C000021C4F20101086820F0010008607047CD
:100EAC0080B540F21810C1F20000FFF715FD80BDAF
:100EBC0080B540F20000C1F20000FFF773FD80BD69
:100ECC0080B540F2B410C1F2000000F033FD80BDDB
:100EDC0080B540F21C20C1F2000001F0ADF980BDDC
:100EEC0080B540F29410C1F2000040F22521C1F20D
:080EFC00000100F037FC80BD8D
:100F040080B592B00020119000F00EFC72B601F092
:100F140077F8FFF789FEFFF7D1FE01F0E9F8FFF754
:100F240079FF01F023F900F0F3FF40F26810C1F2F9
:100F34000000FFF7D5FA0CA800909FED360A8DED5E
:100F4400010A9FED351A8DED021AF1EE041ACDED6A
:100F5400031A9FED322A8DED042AF0EE610AFFF7A1
:100F6400A1FC009940F21810C1F20000FFF7CCFC7C
:100F74009DED010A9DED021ADDED031A9DED042A93
:100F840007A80590F0EE610AFFF7F2FC059940F21C
:100F94000000C1F20000FFF705FA06A89FED200A41
:100FA40000F0C2FC62B601F017F940F21C20C1F255
:100FB400000000F007FF40F22620C1F20000007894
:100FC400C00730B140F29410C1F2000000F02EFCD2
:100FD40013E040F22720C1F200000078C00730B1CE
:100FE40040F29410C1F2000000F028FC05E040F249
:100FF4009410C1F2000000F019FC40F29410C1F208
:10100400000000F0F1FB40F2F811C1F200010860A9
:10101400CBE700BF6F12833A000048420000000093
:0410240017B7513970
:1010280080B5FFF73FFFFFF745FFFFF74BFFFFF7DF
:0810380051FFFFF757FF80BDD7
:0410400000000000AC
:1010440010EE100AC10D4FF0FF3252FA81F1FE2961
:101054000FD2B5EE400AF1EE10FA52BF9FED0A1A14
:10106400B1EE400A9FED071AF0EE400A002000F0AE
:101074000DB8C0F3C750FE2888BF9FED010A704722
:0C1084000000C07F0000008000000000A1
:1010900010B52DED048BB0EE418AB0EE409A0028D9
:1010A0009FED1F0A9FED1F1A30EE800A80EE010AA5
:1010B000BDEEC00AB8EEC01ABEEE002A18BF31EE6F
:1010C000021A9FED192A01EE029A9FED182A10EEDE
:1010D000104A01EE029A9FED160AB0EEC91AB4EE5C
:1010E000401AF1EE10FA0ADB29EE090A41F2341037
:1010F000C0F60000052101F05FF909EE009AE00753
:1011000018BFB1EE488A18EE100A19EE101A00F056
:101110000040484000EE100ABDEC048B10BD00BF3B
:10112000DB0FC93FDB0F4940001049C07A77153704
:04113000FFE6DB2ECD
:10113400ABAA2ABE9788083C281050B9932939369F
:04114400D4AAD5B2A2
:1011480030B591EA030F00F18280841A71EB030C29
:1011580005D2121953EB0C03001B71EB0C0140F282
:10116800000CCFF6E07C1CEA430F52D0BCEB410FD9
:101178005FD90C0DA4EB135E5FF0010C6CF31F51EB
:101188006CF31F53DEF1200C2AD303FA0CF5401937
:1011980041F1000122FA0EF5401923FA0EF56941D2
:1011A80012FA0CF2CD0208D349085FEA30005FEA70
:1011B800320228BF42F001020134013C5FEA500CC0
:1011C80072F1004250F1000051EB04514FF400134A
:1011D80013EB410F38BF30BD6FF31301002030BD52
:1011E800BEF1200EBEF1200F1ED223FA0EF54019D3
:1011F80041F10001CEF1200C124218BF012203FA7E
:101208000CF52A43CEE711EA5C0F04BF0020002149
:1012180030BD1CEA410F04BF01F00041002030BD81
:1012280001F00041002030BD21F4801101EB045190
:1012380030BD004218BF41F00101BCEB410F08BFAF
:1012480030BD4FF0FE4141F47801002030BD83F0FD
:101258000043841A71EB030E07D28EF0004E001B78
:1012680071EB0E01121953EB0E0340F2000CCFF68E
:10127800E07C1CEA430FC6D0BCEB410F72D90C0DC1
:10128800A4EB135EC90241EA5051C00241F000418B
:10129800DB0243EA5253D20243F00043DEF1200C52
:1012A80041D312FA0CF522FA0EF203FA0CF542EACF
:1012B800050218BF42F0010223FA0EF3801A994181
:1012C800E30AC4F30A0411F0404F03D418D0013CD8
:1012D80040004941013C23D44205C00A40EA41503C
:1012E800C90A51EAC3715FEA500C72F1004250F129
:1012F800000051EB045130BD01002FD00020203CEC
:101308000029F9D0B1FA81FCDCF1200E11FA0CF1B8
:1013180030FA0EF510FA0CF02943A4EB0C04D9E7C7
:101328000020D90730BDAEF1200EBEF1200F0DD23E
:10133800CEF1200C03FA0CF533FA0EF32A4318BF4A
:1013480043F00103C01A61F10001B9E721F000413F
:10135800C00A40EA4150C90A01EB045130BD0020DF
:10136800002130BD004218BF41F00101BCEB410F24
:101378007FF467AFBCEB430F3FF463AF30BD00BFF2
:10138800F0B540F2FF7681EA030C16EA115E1EBF43
:10139800B64516EA1355B54252D021EA465141F4F2
:1013A8008011A1FB024723EA465343F48013AE445D
:1013B800A0FB03650CF0004C36197D41A1FB0347E7
:1013C80047F10003A0FB0217F619654153F100032A
:1013D800094218BF46F0010640F2FE74B3F5007FDB
:1013E80013D2AEF5806EA64523D24CEA033128030A
:1013F80041EA155140EA16503203450872F100429D
:1014080050F1000051EB0E51F0BDAEF2FF3EA64583
:101418000FD24CEAC321E80241EA555140EA56503E
:10142800F202450872F1004250F1000051EB0E51F2
:10143800F0BD1EEA0E0F2DD50CF000410020F0BDC6
:1014480016EA115F04BF01F000410020004218BFF6
:1014580041F0010116EA135F04BF03F000430022C4
:10146800124218BF43F0010306EA1354B44218BFEE
:10147800B64503D00CF000410020F0BD21F000413A
:1014880023F00043B1EB065F0CD8B3EB065F09D835
:1014980041B13BB10CF0004141F0FE4141F4700113
:1014A8000020F0BD40F20001C7F6F8710020F0BD41
:1014B8002DE9F04391EA030E0EF0004E40F20007CA
:1014C800CFF6E07717EA41051EBFBD4217EA43058C
:1014D800BD4200F09F807F0D17EA135623EA475359
:1014E80043F4801317EA115521EA475141F480115A
:1014F800AD1B05F2FD354FEAD31C1CF1010C4FF072
:101508000047B7FBFCF77F01A2FB079C0024E3FB25
:1015180007C4D9F100096CEB4C0CA0FB0762002052
:10152800E1FB072000275FEAC628E0FB0987760D64
:1015380046EAC226520DF61900277A41E0FB0C62F2
:101548005FEAC823E2FB09375FEA585848EAC62829
:10155800760D18EB070800214E41E2FB0C8602EBE2
:10156800C020DA02E6FB09215B0D43EAC8235FEAE3
:1015780058585B18002758EB0708E6FB0C38D102CF
:10158800E8FB0917520D42EAC3225B0DD219002766
:101598007B41E8FB0C2308EBC6265FEAC128E3FB86
:1015A8000987490D41EAC221520DC91942F10002C9
:1015B800E3FB0C12470019EB08095CEB010C72EB1A
:1015C800040453EBC62047EB56530026B3F5000F2F
:1015D8007641AD190236D6F1200910FA09F4F04027
:1015E80013FA09F21043F340E40F001943F1000322
:1015F800B3F5001F24BF5B08013540F2FE77BD42FA
:1016080004D24EEA05511944BDE8F0832D4224D591
:10161800714626E0004218BF41F00101124218BF8E
:1016280043F00103B7EB410F2CBFB7EB430F1BE0AF
:10163800B7EB410F04BFB7EB430F15E017EA410FB3
:1016480004BF17EA430F0FE017EA410FE0D017EA8B
:10165800430F02D0B7EB430FDAD04EF0FE4141F40E
:1016680070010020BDE8F08340F20001C7F6F87170
:04167800F7E700BFD1
:10167C0010F0004160B148BF40420A0D02F21D4219
:10168C00B0FA80F3D21A9840C30A400503EB02511A
:04169C00704700BFD4
:1016A000C0F3C75191B142004FEA40704FEAD201F6
:1016B0004FEA310101F16051B2F17F4F38BF7047FD
:1016C00001F1605118BF41F40021704710F0004152
:0416D000002070473F
:1016D40001F000428B1AA3F16051B1F5801F0ADBBF
:1016E400B1F17F6F09D242EAC102C10071F1004138
:1016F40042EB507070471046704701285B4113F568
:10170400001F02D842F0FF407047C90041EA507000
:0C171400104340F4800040F0804070471B
:0C17200008B5014800F02DFEF023000881
:10172C004EF68851CEF20001086840F47000086053
:02173C007047F4
:02173E00FEE7C4
:0E17400080B582B0019000F067FD02B080BD60
:02174E00FEE7B4
:1017500080B582B00190FFF7A1FB41F21801C4F2FD
:0E1760000201086820F07C50086002B080BDD5
:02176E00FEE794
:1017700080B586B005900491059803900021017012
:10178000416008300090FEF79FFF039810300190F1
:10179000FEF7AAFF039818300290FEF7B5FF0098F5
:1017A000039A049951600499FEF786FF0198049901
:1017B000FEF782FF02980499FEF77EFF039806B0B9
:0217C00080BDEA
:0217C200FEE740
:1017C40080B582B0019001984068FFF7BFFF02B076
:0217D40080BDD6
:0217D600FEE72C
:1017D80080B582B0019001984068FFF7ADFF02B074
:0217E80080BDC2
:0217EA00FEE718
:1017EC0084B002900298009000780146019130B1CB
:1017FC000198012807D00198022808D00BE0009826
:10180C00083003900AE000981030039006E000982E
:10181C001830039002E0009808300390039804B04D
:02182C00704703
:02182E00FEE7D3
:0E18300081B0009000990020087001B0704750
:02183E00FEE7C3
:0E18400081B0009000990120087001B070473F
:02184E00FEE7B3
:1018500081B00090009840F25471C0F60001083148
:0A18600001600021416001B07047F3
:02186A00FEE797
:10186C0085B004908DED030ACDED020A8DED011AC1
:10187C00CDED001A04980299416003990160019919
:0A188C0081600099C16005B070474B
:02189600FEE76B
:1018980081B0009000980021016041608160C160C2
:0A18A80001614161816101B07047E8
:0218B200FEE74F
:1018B40080B584B003908DED020A039801900299DB
:1018C400816190ED003A90ED010A90ED051A90EDDA
:1018D400062A80EE030A20EE020A30EE010A40F2E4
:1018E4001421C1F2000181ED000A0A68026191ED40
:1018F400000AD0ED020A00F02BFD019880ED050AE4
:10190400D0ED030A90ED050A00F00BFD019880ED7F
:06191400050A04B080BDCD
:02191A00FEE7E6
:0E191C0081B00090009890ED050A01B0704770
:02192A00FEE7D6
:10192C0082B001908DED000A01980099016002B01F
:02193C007047F2
:02193E00FEE7C2
:1019400081B00090009800210171417181600173A4
:0E1950004173016141618161C16101B0704765
:02195E00FEE7A2
:1019600082B0019000910198009991ED000AB8EEC3
:0A197000C00A80ED040A02B07047BF
:02197A00FEE786
:10197C0082B0019000910198009991ED000AB8EEA7
:0A198C00C00A80ED050A02B07047A2
:02199600FEE76A
:1019980082B001900198009090F9040001281CD1B0
:1019A800009841790131417190F9050048F68802A3
:1019B800C0F688024EF6EF61CEF6EE6100FB01201C
:1019C8004FEAB00044F24441C0F24441884203D88F
:1019D800009988680130886021E0009890F9040037
:1019E8000130E0B9009841790139417190F9050059
:1019F80048F68802C0F688024EF6EF61CEF6EE6130
:101A080000FB01204FEAB00044F24441C0F24441D7
:101A1800884203D80099886801388860FFE70098F1
:101A280090F905003C2804D0009890F905003C3056
:101A380010B9009900204871009881684FF4B47279
:101A4800514390F9052002EB420201EB420100EEFE
:0E1A5800101AB8EEC00A80ED060A02B0704700
:021A6600FEE799
:101A680082B00190019800901021C4F20201096827
:101A780001F00E014173007B002800F0838000987C
:101A880090F90C00082804D1009890F90D000A2854
:101A980031D0009890F90C000A2804D1009890F9E8
:101AA8000D00022827D0009890F90C00022804D1D4
:101AB800009890F90D0006281DD0009890F90C00A8
:101AC800062804D1009890F90D00042813D0009836
:101AD80090F90C00042804D1009890F90D000C2806
:101AE80009D0009890F90C000C2808D1009890F9BA
:101AF8000D00082803D10099012008713EE00098E4
:101B080090F90C00022804D1009890F90D000A28D9
:101B180031D0009890F90C000A2804D1009890F967
:101B28000D00082827D0009890F90C00082804D147
:101B3800009890F90D000C281DD0009890F90C0021
:101B48000C2804D1009890F90D00042813D00098AF
:101B580090F90C00042804D1009890F90D0006288B
:101B680009D0009890F90C00062807D1009890F940
:101B78000D00022802D10099FF2008710099487BC6
:101B8800087304E00099487B08730020087102B0CC
:021B9800704794
:021B9A00FEE764
:101B9C0080B588B007900691079800900699C9689F
:101BAC004161069909688160069989680161069905
:101BBC004968C16090ED021A90ED040AD0ED050A57
:101BCC0020EE012AB7EE000A80EE020AF1EE411A6D
:101BDC0002A80190FFF744FE009801991830FEF717
:061BEC00B9FD08B080BD48
:021BF200FEE70C
:101BF40080B584B00390039801901C300090FEF7E8
:101C0400F5FD0098019991ED020A8DED020A00F0AC
:101C1400A9F8019890ED061A30EE010AFFF710FAC0
:101C24000198B0EE401A9DED020A20EE010A40F23E
:101C34000021C1F2000181ED000A91ED000A90ED4E
:0E1C4400031A30EE010A80ED010A04B080BDE3
:021C5200FEE7AB
:101C540080B588B007900798069028300190FFF768
:101C6400C7FF069878300290FFF7C2FF0698C83085
:101C74000390FFF7BDFF019800F074F8029840F25A
:101C84001021C1F20001049181ED000A00F06AF80C
:101C9400039840F20C21C1F20001059181ED000A84
:101CA40000F060F8049B059A069840F20821C1F2FE
:101CB400000181ED000A93ED000A90ED031A30EE65
:101CC400010A80ED070A92ED000A90ED031A30EE46
:101CD400010A80ED080A91ED000A90ED031A30EE36
:0A1CE400010A80ED090A08B080BD76
:021CEE00FEE70F
:101CF00085B004908DED030ACDED020A8DED011A39
:101D0000CDED001A04980399C16002990160019910
:0A1D100081600099416005B0704742
:021D1A00FEE7E2
:101D1C0081B00090009840F62421C0F600010831F3
:101D2C000160002141608160C1600161416101B0CD
:021D3C007047EE
:021D3E00FEE7BE
:101D400081B00090009940F20420C1F2000090EDB3
:101D5000000AB7EE001A30EE010A80ED000A0068B2
:061D6000486001B070476D
:021D6600FEE796
:0E1D680081B00090009890ED010A01B0704724
:021D7600FEE786
:101D780083B002908DF80710029800909DF8070034
:101D8800C00730B10099087800F0010048700120C0
:061D9800087003B0704763
:021D9E00FEE75E
:101DA00083B002908DF80710029800909DF807000C
:101DB000C00730B10099087800F001004870002099
:061DC000087003B070473B
:021DC600FEE736
:101DC80080B582B00190019800900330FEF736FE8E
:101DD80030B10098012100F8011BFFF7DDFF20E07A
:101DE80000980530FEF72AFE38B10098022100F865
:101DF800011B0121FFF7D0FF13E000980730FEF721
:101E08001DFE38B10098032100F8011B0121FFF7DE
:101E1800C3FF06E00098002100F8011B0121FFF72D
:061E2800A7FF02B080BD1F
:021E2E00FEE7CD
:101E300080B582B043F61441C4F20101086840F055
:101E40000200086040F2B410C1F20000009040F2BD
:101E5000EC11C1F200010191FFF790FD0098FFF72E
:101E600003FE0098FFF798FD0098FEF751FA0098DE
:0A1E70000199FFF775FD02B080BD77
:021E7A00FEE781
:101E7C0080B582B043F61441C4F20101086840F009
:101E8C000400086040F2B410C1F20000009040F26F
:101E9C00EC11C1F200010191FFF76AFD0098FFF708
:101EAC00DDFD0098FFF772FD0098FEF72BFA009805
:0A1EBC000199FFF74FFD02B080BD51
:021EC600FEE735
:101EC80080B582B043F61441C4F20101086840F0BD
:101ED8000800086040F2B410C1F20000009040F21F
:101EE800EC11C1F200010191FFF744FD0098FFF7E2
:101EF800B7FD0098FFF74CFD0098FEF705FA00982B
:0A1F08000199FFF729FD02B080BD2A
:021F1200FEE7E8
:101F140043F63001C4F20201086840F0040008608E
:101F240043F64402C4F20202106840F48070106068
:101F3400086840F40010086040F60001C4F2020191
:101F4400086820F03F000860086840F03F0008601F
:101F540046F21002C4F202020020106046F2180396
:101F6400C4F2020342F24C01C4F20101196046F2C8
:101F74001403C4F2020303211960116841F480615F
:101F84001160116841F420511160116811601168E9
:101F940041F040011160116841F01001116042F2FA
:101FA4000402C4F20102106042F20801C4F2010109
:101FB4000860106840F480701060086820F0020027
:101FC4000860086840F48070086042F22C02C4F291
:101FD4000102106820F470001060106840F40010D2
:101FE400106042F20C02C4F20102106840F2FF13C6
:0E1FF40098431060086840F0010008607047D4
:02200200FEE7F7
:1020040080B582B043F60001C4F20201086840F4CE
:102014008030086043F60000C4F2020000688003C8
:10202400002800D4F6E743F60001C4F20201086870
:1020340020F08070086043F60402C4F202020192A8
:10204400106840F480001060106820F03F001060B9
:10205400106840F004001060106847F6C07398439D
:102064001060106840F428501060106820F440306C
:10207400106043F60802C4F202021068106010688F
:1020840040F4A0501060106840F4004010600868EC
:1020940040F08070086043F60000C4F2020000685B
:1020A4008001002800D4F6E743F60041C4F202019F
:1020B400086840F203721043086043F60801C4F252
:1020C4000201086820F003000860086840F002007C
:1020D400086043F60800C4F20200006800F00C0037
:0E20E400082800D0F5E7FEF753FA02B080BDE1
:0220F200FEE707
:1020F40080B543F64001C4F20201086840F00100D3
:1021040008602821C4F20001002008604FF08041DB
:10211400086820F060000860086840F0100008605B
:102124002C21C4F2000144F29F1008603821C4F24B
:10213400000142F2107008600421C4F20001086832
:1021440040F0200008600C21C4F20001086840F04F
:10215400040008601021C4F20001086820F00400A3
:0A21640008601C20FEF74AFD80BD54
:02216E00FEE78A
:1021700080B543F60801C4F20101086808600868E8
:1021800008600868086043F61441C4F20101086859
:1021900040F00E00086043F60041C4F201010868F7
:1021A00040F00E00086043F60841C4F201010868DF
:1021B00040F00E00086043F60C41C4F201010868CB
:1021C00040F00E0008600720FEF71AFD0820FEF719
:0A21D00017FD0920FEF714FD80BD85
:0221DA00FEE71E
:1021DC000021C4F20101086840F0010008604FF0D2
:1021EC008041086840F0010008601421C4F200012D
:1021FC00086840F00100086040F60001C4F20001DC
:0A220C00086840F001000860704708
:02221600FEE7E1
:102218000020C4F201000068C00768B90021C4F2B8
:102228000101086840F0010008601421C4F20001AF
:0A223800086840F0010008607047DC
:02224200FEE7B5
:1022440080B584B00390039802900022014601F8FF
:10225400072B01910130FEF7EBFB02980330FEF7E8
:10226400E7FB02980530FEF7E3FB0198FEF7E0FB7D
:06227400029804B080BDD9
:02227A00FEE77D
:02227C00FEE77B
:02227E00FEE779
:02228000FEE777
:02228200FEE775
:02228400FEE773
:02228600FEE771
:02228800FEE76F
:02228A00FEE76D
:02228C00FEE76B
:02228E00FEE769
:02229000FEE767
:02229200FEE765
:02229400FEE763
:02229600FEE761
:02229800FEE75F
:02229A00FEE75D
:02229C00FEE75B
:02229E00FEE759
:0222A000FEE757
:0222A200FEE755
:0222A400FEE753
:0222A600FEE751
:0222A800FEE74F
:0222AA00FEE74D
:0222AC00FEE74B
:0222AE00FEE749
:0222B000FEE747
:0222B200FEE745
:0222B400FEE743
:0222B600FEE741
:0222B800FEE73F
:0222BA00FEE73D
:0222BC00FEE73B
:0222BE00FEE739
:0222C000FEE737
:0222C200FEE735
:0222C400FEE733
:0222C600FEE731
:0222C800FEE72F
:0222CA00FEE72D
:0222CC00FEE72B
:1022CE0080B505281FD840F2D412C1F2000242F2A6
:1022DE00253C52F82010C0F6000C42F820C0A9B1DF
:1022EE0042F22333C0F6000399420CD0614508D068
:1022FE0042F22133C0F60003994207D042F8203053
:10230E008847002008BD4FF0FF3008BD0120FEF7C2
:02231E0059FC68
:02232000704704
:02232200704702
:02232400704700
:10232600B4EE400AF1EE10FA0BD6F4EE600AF1EEC6
:1023360010FA09D6B4EE600AF1EE10FAC8BFF0EE54
:0E234600400AB0EE600A7047F0EE400AF9E778
:10235400B4EE400AF1EE10FA0BD6F4EE600AF1EE98
:1023640010FA09D6B4EE600AF1EE10FA48BFF0EEA6
:0E237400400AB0EE600A7047F0EE400AF9E74A
:0A2382000FB408B500F00DF8FEE7F7
:10238C00FFF7CEF94EF68850CEF20000016851F4FA
:08239C0070010160FEF710FC66
:1023A40010B541F24000C0F6000004682046FFF773
:0423B4008CFFFBE7B8
:1023B80000EB8100032910ED021A10ED012A02EE4C
:1023C800001A0CDB0C380139013990ED002A01EEB6
:1023D800002A04380139B0EE421AF6D801E0B0EE0E
:0823E800412A22EE000A7047B1
:1023F00050757265207669727475616C2066756EB1
:0E2400006374696F6E2063616C6C656421000B
:042410009505000826
:042414002910000883
:10241800000000000000000001020304060708098C
:1024280000B506480649884205D00268043003B45E
:10243800904703BCF7E708BC1847000010240008C1
:04244800182400084C
:10244C0075240008000000102802000087240008F2
:10245C002802001070240008040000002924000841
:04246C00CF0B00088A
:042470000024F40050
:10247400206861680834002200E042540139FCD528
:0224840070479F
:1024860020686168A2680C3401E08B5C8354013AD1
:04249600FBD57047BB
:040000050800238D3F
:00000001FF
