:020000040800F2
:1000000000000220FB070008DB050008A10500082E
:100010001B0600083B0600086706000800000000F9
:10002000000000000000000000000000570700086A
:1000300059070008000000005B0700085D07000882
:100040005F070008610700086307000865070008EC
:1000500067070008690700086B0700086D070008BC
:100060006F070008710700081D06000873070008E5
:100070007507000877070008790700087B07000864
:100080007D0700087F070008810700088307000834
:100090008507000887070008890700088B07000804
:1000A0008D0700088F0700089107000893070008D4
:1000B0003D06000895070008970700089907000803
:1000C0009B0700089D0700089F070008A10700087C
:1000D000A3070008F1040008A5070008A707000807
:1000E000A9070008AB070008AD070008AF07000824
:1000F000B1070008B3070008B5070008B7070008F4
:10010000B9070008BB070008BD070008BF070008C3
:10011000C1070008C3070008C5070008C707000893
:10012000C9070008CB070008CD070008CF07000863
:10013000D1070008D3070008D5070008D707000833
:10014000D9070008DB070008DD070008DF07000803
:10015000E1070008E3070008E5070008E7070008D3
:10016000E9070008EB070008ED070008EF070008A3
:10017000F1070008F3070008F50700080000000079
:08018000F7070008F907000869
:1001880086B000210591049102200390029101900C
:1001980043F60800C4F20200006800F00C00059065
:1001A8000598009030B1009804280DD000980828D0
:1001B80014D057E040F20801C1F2000142F20040B9
:1001C800C0F2F400086056E040F20801C1F20001F4
:1001D80047F64000C0F27D1008604CE043F604008A
:1001E800C4F202000168C1F380510291006800F076
:1001F8003F000190029880B1019947F64000C0F293
:100208007D10B0FBF1F043F60401C4F20201096865
:10021800C1F38811484304900FE0019942F200406D
:10022800C0F2F400B0FBF1F043F60401C4F202019D
:100238000968C1F388114843049043F60400C4F2E6
:100248000200006800F44031022000EBD130039036
:1002580004980399B0FBF1F040F20801C1F20001E3
:10026800086008E040F20801C1F2000142F20040D3
:10027800C0F2F400086043F60800C4F20200006807
:10028800C0B2010940F61800C0F60000405C0590B5
:10029800059A40F20801C1F200010868D0400860E0
:0402A80006B07047E5
:1002AC0080B588B000200490079000F087F900F02A
:1002BC00D5F943F64401C4F202010191086840F4F7
:1002CC008040086043F60C01C4F20101086840F05C
:1002DC000400086062B643F61441C4F201010868D8
:1002EC0040F01000086043F60041C4F201010868B8
:1002FC0040F01000086043F60C41C4F2010108689C
:10030C0040F0100008600A2000F0D6F8019943F67E
:10031C003002C4F20202106840F001001060106854
:10032C0040F0100010600022C4F202020392106828
:10033C0040F480501060106840F48040106041F22E
:10034C000002C4F20202106820F40070106041F246
:10035C000C02C4F20202106840F480701060182283
:10036C00C4F20202106840F080001060086840F08F
:10037C001000086041F20801C4F2010140F62C2083
:10038C00086041F20C01C4F201010291086840F0CE
:10039C0020000860086840F004000860086840F01D
:1003AC0008000860086820F480500860086820F491
:1003BC008060086041F21001C4F20101086820F469
:1003CC0040500860252000F077F8029B039A0499AE
:1003DC00186840F400501860106840F40020106059
:1003EC00106840F4001010602422C4F2020210685D
:1003FC0040F070001060106840F4E060106043F64C
:10040C004002C4F20202106840F001001060282281
:10041C00C4F2000242F20F7010602C22C4F20002EF
:10042C0041F2873010601422C4F20002106840F0D0
:10043C00010010601020C4F2000001600C22C4F214
:10044C000002106840F0010010604FF0804210680C
:10045C0040F0010010601C20059000F0B9F80598E0
:10046C0000F02AF8002006901822C4F2020211684B
:10047C0041F4800111600690069849F27F61C0F248
:10048C009801884203D8069801300690F4E71821A9
:10049C00C4F20201086840F0400008600020069099
:1004AC00069849F27F61C0F29801884203D80698F9
:0804BC0001300690F4E7D5E7DA
:1004C40081B08DF803009DF9030000280CD49DF938
:1004D400031001F01F02012090404A094EF200115E
:0C04E400CEF2000141F8220001B0704788
:1004F00080B582B041F20000C4F2010000688006BD
:10050000002828D541F20400C4F20100016840F23D
:100510000402C1F20002116000686FF35F20ADF8C1
:100520000600BDF8060001460091302803D000986F
:10053000312808D00FE01821C4F20201086840F405
:100540000000086007E01821C4F20201086840F0CA
:1005500080000860FFE7252000F002F802B080BDAF
:1005600081B08DF803009DF9030000280CD49DF99B
:10057000031001F01F02012090404A094EF2802131
:0C058000CEF2000141F8220001B07047EB
:10058C00034C206804348047FBE7FFF789FEFEE745
:04059C004C080008FF
:1005A00008490A68002AFED41EF0040F0CBFEFF3BE
:1005B0000880EFF3098042F000420A60816902314D
:0805C000816170472CED00E0A1
:1005C8004EF68851CEF20001086840F470000860C9
:0205D80070476A
:0205DA00FEE73A
:1005DC0082B08DF8070000919DF90700002809D41E
:1005EC00009800019DF907104EF20042CEF2000275
:1005FC0088540AE0009800019DF8071001F00F01E3
:0E060C004EF61452CEF20002885402B070472F
:02061A00FEE7F9
:10061C0041F20401C4F201010120086043F61441C7
:0E062C00C4F20101086840F010000860704739
:02063A00FEE7D9
:10063C001020C4F200000068C00768B11021C4F299
:10064C000001086820F00100086040F20001C1F2CE
:0A065C0000010868013008607047D3
:02066600FEE7AD
:1006680080B582B043F60001C4F20201086840F484
:100678008030086043F60000C4F20200006880037E
:10068800002800D4F6E743F60001C4F20201086826
:1006980020F08070086043F60402C4F2020201925E
:1006A800106840F480001060106820F03F0010606F
:1006B800106840F004001060106847F6C073984353
:1006C8001060106840F4C8501060106820F4403082
:1006D800106043F60802C4F2020210681060106845
:1006E80040F4A0501060106840F4004010600868A2
:1006F80040F08070086043F60000C4F20200006811
:100708008001002800D4F6E743F60041C4F2020154
:10071800086840F203721043086043F60801C4F207
:100728000201086820F003000860086840F0020031
:10073800086043F60800C4F20200006800F00C00EC
:0E074800082800D0F5E7FFF71BFD02B080BDCA
:02075600FEE7BC
:02075800FEE7BA
:02075A00FEE7B8
:02075C00FEE7B6
:02075E00FEE7B4
:02076000FEE7B2
:02076200FEE7B0
:02076400FEE7AE
:02076600FEE7AC
:02076800FEE7AA
:02076A00FEE7A8
:02076C00FEE7A6
:02076E00FEE7A4
:02077000FEE7A2
:02077200FEE7A0
:02077400FEE79E
:02077600FEE79C
:02077800FEE79A
:02077A00FEE798
:02077C00FEE796
:02077E00FEE794
:02078000FEE792
:02078200FEE790
:02078400FEE78E
:02078600FEE78C
:02078800FEE78A
:02078A00FEE788
:02078C00FEE786
:02078E00FEE784
:02079000FEE782
:02079200FEE780
:02079400FEE77E
:02079600FEE77C
:02079800FEE77A
:02079A00FEE778
:02079C00FEE776
:02079E00FEE774
:0207A000FEE772
:0207A200FEE770
:0207A400FEE76E
:0207A600FEE76C
:0207A800FEE76A
:0207AA00FEE768
:0207AC00FEE766
:0207AE00FEE764
:0207B000FEE762
:0207B200FEE760
:0207B400FEE75E
:0207B600FEE75C
:0207B800FEE75A
:0207BA00FEE758
:0207BC00FEE756
:0207BE00FEE754
:0207C000FEE752
:0207C200FEE750
:0207C400FEE74E
:0207C600FEE74C
:0207C800FEE74A
:0207CA00FEE748
:0207CC00FEE746
:0207CE00FEE744
:0207D000FEE742
:0207D200FEE740
:0207D400FEE73E
:0207D600FEE73C
:0207D800FEE73A
:0207DA00FEE738
:0207DC00FEE736
:0207DE00FEE734
:0207E000FEE732
:0207E200FEE730
:0207E400FEE72E
:0207E600FEE72C
:0207E800FEE72A
:0207EA00FEE728
:0207EC00FEE726
:0207EE00FEE724
:0207F000FEE722
:0207F200FEE720
:0207F400FEE71E
:0207F600FEE71C
:0207F800FEE71A
:1007FA00FFF7E5FE4EF68850CEF20000016851F48C
:08080A0070010160FFF7BDFE63
:04081400890100084E
:1008180000000000000000000102030406070809A8
:1008280000B506480649884205D00268043003B47A
:10083800904703BCF7E708BC1847000014080008F5
:040848001808000884
:10084C007508000800000010080000008708000868
:10085C0008000010700800080400000029080008B7
:04086C0097050008E4
:040870000024F4006C
:10087400206861680834002200E042540139FCD544
:020884007047BB
:1008860020686168A2680C3401E08B5C8354013AED
:04089600FBD57047D7
:04000005080007FBED
:00000001FF
