:020000040800F2
:1000000000000220470800085303000819030008F5
:1000100097050008D7050008F70500080000000054
:100020000000000000000000000000008B06000837
:10003000B706000800000000A7070008A90700088D
:10004000AB070008AD070008AF070008B1070008BC
:10005000B3070008B5070008B7070008B90700088C
:10006000BB070008BD070008D9050008BF07000846
:10007000C1070008C3070008C5070008C707000834
:10008000C9070008CB070008CD070008CF07000804
:10009000D1070008D3070008D5070008D7070008D4
:1000A000D9070008DB070008DD070008DF070008A4
:1000B0008D060008E1070008E3070008E5070008CF
:1000C000E7070008E9070008EB070008ED0700084C
:1000D000EF070008F9050008F1070008F30700081A
:1000E000F5070008F7070008F9070008FB070008F4
:1000F000FD070008FF0700080108000803080008C2
:100100000508000807080008090800080B0800088F
:100110000D0800080F08000811080008130800085F
:100120001508000817080008190800081B0800082F
:100130001D0800081F0800082108000823080008FF
:100140002508000827080008290800082B080008CF
:100150002D0800082F08000831080008330800089F
:100160003508000837080008390800083B0800086F
:100170003D0800083F080008410800080000000092
:080180004308000845080008CF
:1001880086B000210591049102200390029101900C
:1001980043F60800C4F20200006800F00C00059065
:1001A8000598009030B1009804280DD000980828D0
:1001B80014D057E040F20C01C1F2000142F20040B5
:1001C800C0F2F400086056E040F20C01C1F20001F0
:1001D80047F64000C0F27D1008604CE043F604008A
:1001E800C4F202000168C1F380510291006800F076
:1001F8003F000190029880B1019947F64000C0F293
:100208007D10B0FBF1F043F60401C4F20201096865
:10021800C1F38811484304900FE0019942F200406D
:10022800C0F2F400B0FBF1F043F60401C4F202019D
:100238000968C1F388114843049043F60400C4F2E6
:100248000200006800F44031022000EBD130039036
:1002580004980399B0FBF1F040F20C01C1F20001DF
:10026800086008E040F20C01C1F2000142F20040CF
:10027800C0F2F400086043F60800C4F20200006807
:10028800C0B2010940F66400C0F60000405C059069
:10029800059A40F20C01C1F200010868D0400860DC
:0402A80006B07047E5
:1002AC0081B08DF803009DF9030000280CD49DF952
:1002BC00031001F01F02012090404A094EF2001178
:0C02CC00CEF2000141F8220001B07047A2
:1002D80081B08DF803009DF9030000280CD49DF926
:1002E800031001F01F02012090404A094EF28021BC
:0C02F800CEF2000141F8220001B0704776
:10030400034C206804348047FBE700F021F8FEE743
:04031400980800083D
:1003180008490A68002AFED41EF0040F0CBFEFF348
:100328000880EFF3098042F000420A6081690231D7
:08033800816170472CED00E02B
:100340004EF68851CEF20001086840F47000086053
:020350007047F4
:02035200FEE7C4
:1003540080B58CB0002004900B90FFF7EFFF00F005
:10036400A9F943F64401C4F202010191086840F47A
:100374008040086043F60C01C4F20101086840F0B3
:100384000400086062B643F61441C4F2010108682F
:1003940040F01000086043F60041C4F2010108680F
:1003A40040F01000086043F60C41C4F201010868F3
:1003B40040F0100008600A20FFF776FF019943F629
:1003C4003002C4F20202106840F0010010601068AC
:1003D40040F0100010600022C4F202020392106880
:1003E40040F480501060106840F48040106041F286
:1003F4000002C4F20202106820F40070106041F29E
:100404000C02C4F20202106840F4807010601822DA
:10041400C4F20202106840F080001060086840F0E6
:100424001000086041F20801C4F2010140F62C20DA
:10043400086041F20C01C4F201010291086840F025
:1004440020000860086840F040000860086840F038
:1004540004000860086840F008000860086820F498
:1004640080500860086820F48060086041F2100140
:10047400C4F20101086820F4405008602520FFF709
:1004840013FF029B039A0499186840F40050186003
:10049400106840F400201060106840F400101060F0
:1004A4002422C4F20202106840F070001060106848
:1004B40040F4E060106043F64002C4F202021068A7
:1004C40040F0010010602822C4F2000242F20F70D2
:1004D40010602C22C4F2000241F287301060142212
:1004E400C4F20002106840F0010010601020C4F251
:1004F400000001600C22C4F20002106840F0010008
:1005040010604FF08042106840F0010010601C2021
:10051400059000F03FF80598FFF7C6FE00200A900A
:1005240040F20800C1F200000078C00750B346F65C
:100534007240C2F26410099042F26F00C6F657701E
:10054400089046F24850C6F66C400790002006908A
:1005540006980B2816D8069907A8405C41F20401B6
:10056400C4F20101086000200A900A9844F61F6151
:10057400884203D80A9801300A90F6E706980130B9
:100584000690E5E740F20801C1F20001002008707E
:02059400C4E7BA
:02059600FEE77E
:1005980082B08DF8070000919DF90700002809D462
:1005A800009800019DF907104EF20042CEF20002B9
:1005B80088540AE0009800019DF8071001F00F0127
:0E05C8004EF61452CEF20002885402B0704774
:0205D600FEE73E
:1005D80040F20801C1F200010120087043F61441FD
:0E05E800C4F20101086840F01000086070477E
:0205F600FEE71E
:1005F80080B582B041F20000C4F2010000688006B4
:10060800002829D541F20400C4F20100016840F233
:100618000402C1F20002116000686FF35F20ADF8B8
:100628000600BDF8060001460091302803D0009866
:10063800312808D00FE01821C4F20201086840F000
:100648008000086007E01821C4F20201086840F43D
:1006580000000860FFE70FE041F20000C4F201006B
:1006680000684006002807D541F20001C4F20101E4
:10067800086820F0400008602520FFF729FE02B036
:0206880080BD33
:02068A00FEE789
:10068C001020C4F200000068C00768B11021C4F249
:10069C000001086820F00100086040F20001C1F27E
:0A06AC000001086801300860704783
:0206B600FEE75D
:1006B80080B582B043F60001C4F20201086840F434
:1006C8008030086043F60000C4F20200006880032E
:1006D800002800D4F6E743F60001C4F202010868D6
:1006E80020F08070086043F60402C4F2020201920E
:1006F800106840F480001060106820F03F0010601F
:10070800106840F004001060106847F6C073984302
:100718001060106840F4C8501060106820F4403031
:10072800106043F60802C4F20202106810601068F4
:1007380040F4A0501060106840F400401060086851
:1007480040F08070086043F60000C4F202000068C0
:100758008001002800D4F6E743F60041C4F2020104
:10076800086840F203721043086043F60801C4F2B7
:100778000201086820F003000860086840F00200E1
:10078800086043F60800C4F20200006800F00C009C
:0E079800082800D0F5E7FFF7F3FC02B080BDA3
:0207A600FEE76C
:0207A800FEE76A
:0207AA00FEE768
:0207AC00FEE766
:0207AE00FEE764
:0207B000FEE762
:0207B200FEE760
:0207B400FEE75E
:0207B600FEE75C
:0207B800FEE75A
:0207BA00FEE758
:0207BC00FEE756
:0207BE00FEE754
:0207C000FEE752
:0207C200FEE750
:0207C400FEE74E
:0207C600FEE74C
:0207C800FEE74A
:0207CA00FEE748
:0207CC00FEE746
:0207CE00FEE744
:0207D000FEE742
:0207D200FEE740
:0207D400FEE73E
:0207D600FEE73C
:0207D800FEE73A
:0207DA00FEE738
:0207DC00FEE736
:0207DE00FEE734
:0207E000FEE732
:0207E200FEE730
:0207E400FEE72E
:0207E600FEE72C
:0207E800FEE72A
:0207EA00FEE728
:0207EC00FEE726
:0207EE00FEE724
:0207F000FEE722
:0207F200FEE720
:0207F400FEE71E
:0207F600FEE71C
:0207F800FEE71A
:0207FA00FEE718
:0207FC00FEE716
:0207FE00FEE714
:02080000FEE711
:02080200FEE70F
:02080400FEE70D
:02080600FEE70B
:02080800FEE709
:02080A00FEE707
:02080C00FEE705
:02080E00FEE703
:02081000FEE701
:02081200FEE7FF
:02081400FEE7FD
:02081600FEE7FB
:02081800FEE7F9
:02081A00FEE7F7
:02081C00FEE7F5
:02081E00FEE7F3
:02082000FEE7F1
:02082200FEE7EF
:02082400FEE7ED
:02082600FEE7EB
:02082800FEE7E9
:02082A00FEE7E7
:02082C00FEE7E5
:02082E00FEE7E3
:02083000FEE7E1
:02083200FEE7DF
:02083400FEE7DD
:02083600FEE7DB
:02083800FEE7D9
:02083A00FEE7D7
:02083C00FEE7D5
:02083E00FEE7D3
:02084000FEE7D1
:02084200FEE7CF
:02084400FEE7CD
:10084600FFF77BFD4EF68850CEF20000016851F4AA
:0808560070010160FFF753FD82
:040860008901000802
:10086400000000000000000001020304060708095C
:1008740000B506480649884205D00268043003B42E
:10088400904703BCF7E708BC18470000600800085D
:0408940064080008EC
:10089800C10800080000001009000000D308000883
:1008A8000C000010BC0800080400000075080008CF
:0408B8000F03000822
:0408BC000024F40020
:1008C000206861680834002200E042540139FCD5F8
:0208D00070476F
:1008D20020686168A2680C3401E08B5C8354013AA1
:0408E200FBD570478B
:0400000508000847A0
:00000001FF
