:020000040800F2
:10000000000002208D0B0008AB05000871050008F8
:100010007F060008B7060008070700080000000078
:10002000000000000000000000000000470700087A
:1000300037080008000000009309000811040008B8
:10004000870A0008C70A0008F30A0008F50A000832
:10005000F70A0008F90A0008FB0A0008FD0A000870
:10006000FF0A0008010B0008030B0008050B00083D
:10007000070B0008090B00080B0B00080D0B00080C
:100080000F0B0008110B0008130B0008150B0008DC
:10009000170B0008190B00081B0B00081D0B0008AC
:1000A0001F0B0008210B0008230B0008250B00087C
:1000B00021040008270B0008290B00082B0B00085F
:1000C0002D0B00082F0B0008310B0008330B000824
:1000D000350B0008370B0008390B00083B0B0008F4
:1000E0003D0B00083F0B0008410B0008430B0008C4
:1000F000450B0008470B0008490B00084B0B000894
:100100004D0B00084F0B0008510B0008530B000863
:10011000550B0008570B0008590B00085B0B000833
:100120008D0400085D0B00085F0B0008610B0008E0
:10013000630B0008650B0008670B0008690B0008DB
:100140006B0B00086D0B00086F0B0008710B0008AB
:10015000730B0008750B0008770B0008790B00087B
:100160007B0B00087D0B00087F0B0008810B00084B
:10017000830B0008850B0008870B000800000000B7
:08018000890B00088B0B00083D
:1001880086B000210591049102200390029101900C
:1001980043F60800C4F20200006800F00C00059065
:1001A8000598009030B1009804280DD000980828D0
:1001B80014D057E040F20801C1F2000142F20040B9
:1001C800C0F2F400086056E040F20801C1F20001F4
:1001D80047F64000C0F27D1008604CE043F604008A
:1001E800C4F202000168C1F380510291006800F076
:1001F8003F000190029880B1019947F64000C0F293
:100208007D10B0FBF1F043F60401C4F20201096865
:10021800C1F38811484304900FE0019942F200406D
:10022800C0F2F400B0FBF1F043F60401C4F202019D
:100238000968C1F388114843049043F60400C4F2E6
:100248000200006800F44031022000EBD130039036
:1002580004980399B0FBF1F040F20801C1F20001E3
:10026800086008E040F20801C1F2000142F20040D3
:10027800C0F2F400086043F60800C4F20200006807
:10028800C0B2010940F6A830C0F60000405C0590F5
:10029800059A40F20801C1F200010868D0400860E0
:0402A80006B07047E5
:1002AC0043F64401C4F20201086840F4807008600F
:1002BC0043F63001C4F20201086840F00100086006
:1002CC000021C4F20201086840F03000086042F2DC
:1002DC001001C4F20101086840F04000086042F2CD
:1002EC002C01C4F20101086820F47000086042F28D
:1002FC003401C4F20101086840F00200086042F2C7
:10030C000801C4F20101086840F0020008600868A6
:10031C0040F480600860086840F4807008600868E9
:10032C0040F400700860086840F00100086008683C
:08033C0040F0804008607047AA
:1003440081B08DF803009DF9030000280CD49DF9B9
:10035400031001F01F02012090404A094EF20011DF
:0C036400CEF2000141F8220001B0704709
:1003700043F63001C4F20201086840F00100086051
:10038000086840F01000086041F20001C4F2020168
:10039000086820F400700860086820F08000086099
:1003A0000021C4F20201086820F00200086041F256
:1003B0000C02C4F20202106840F4807010601068F1
:1003C00040F0400010600C22C4F20202106840F0BD
:1003D00002001060086840F4805008601822C4F2DF
:1003E0000202106840F040001060086840F40040CD
:1003F00008600821C4F20201086840F40040086067
:100400002021C4F20201086840F080500860704763
:1004100040F20001C1F200010888013008807047F5
:100420001020C4F200000068800700282DD540F29B
:100430000200C1F200000188013101800088B0F59E
:100440007A7F1BD11420C4F2020000684006002805
:1004500007D51821C4F20201086840F48000086042
:1004600006E01821C4F20201086840F0400008606C
:1004700040F20201C1F20001002008801021C4F204
:0C0480000001086820F0020008607047CE
:10048C0080B582B00020ADF804008DF807009DF80F
:10049C000700072812DC9DF8071040F20000C2F29A
:1004AC00000030F81110BDF804000844ADF8040049
:1004BC009DF8070001308DF80700E8E7BDF804004F
:1004CC00C00846F660514843010B3420C4F20100C9
:1004DC000160006840F20401C1F20001088046F29C
:1004EC000841C4F20201086840F02000086038207E
:0804FC0000F002F802B080BD1F
:1005040081B08DF803009DF9030000280CD49DF9F7
:10051400031001F01F02012090404A094EF280218D
:0C052400CEF2000141F8220001B0704747
:1005300081B08DF803009DF9030000280CD49DF9CB
:10054000031001F01F02012090404A094EF20011F1
:0C055000CEF2000141F8220001B070471B
:10055C00034C206804348047FBE700F08BF8FEE77F
:04056C00DC0B00089C
:1005700008490A68002AFED41EF0040F0CBFEFF3EE
:100580000880EFF3098042F000420A60816902317D
:08059000816170472CED00E0D1
:100598004EF68851CEF20001086840F470000860F9
:0205A80070479A
:0205AA00FEE76A
:1005AC0080B582B043F63001C4F20201086840F411
:1005BC008000086046F21841C4F2020142F24C007D
:1005CC00C4F20100086040F20000C2F2000046F2E2
:1005DC001C41C4F20201086046F21441C4F202014B
:1005EC000820086046F22441C4F20201086820F099
:1005FC000400086046F21041C4F20201019108683F
:10060C0020F060600860086820F0C070086008681E
:10061C0020F4C0000860086820F480200860086896
:10062C0040F440300860086840F4005008600868E6
:10063C0040F400600860086840F480600860086856
:10064C0020F400700860086840F480700860086846
:10065C0020F0C0000860086840F0100008603820E6
:10066C00FFF76AFE0199086840F00100086002B0CB
:02067C0080BD3F
:02067E00FEE795
:1006800080B582B000200190FFF786FF00F05CF893
:10069000FFF76EFE00F0D0F800F07CF9FFF706FEE1
:1006A000FFF784FF49F24000C0F2020000F004F8B6
:0606B00000F00AFAFEE76B
:0206B600FEE75D
:1006B80080B582B0009000980138B0F1807F02D3F5
:1006C8000120019018E0009801384EF21401CEF292
:1006D800000108604FF0FF300F2100F011F84EF2D2
:1006E8001801CEF20001002008604EF21002CEF28E
:0E06F8000002072111600190019802B080BD40
:02070600FEE70C
:1007080082B08DF8070000919DF90700002809D4F0
:10071800009800019DF907104EF20042CEF2000247
:1007280088540AE0009800019DF8071001F00F01B5
:0E0738004EF61452CEF20002885402B0704702
:02074600FEE7CC
:1007480080B582B043F60001C4F20201086840F4A3
:100758008030086043F60000C4F20200006880039D
:10076800002800D4F6E743F60001C4F20201086845
:1007780020F08070086043F60402C4F2020201927D
:10078800106840F480001060106820F03F0010608E
:10079800106840F004001060106847F6C073984372
:1007A8001060106840F428501060106820F4403041
:1007B800106043F60802C4F2020210681060106864
:1007C80040F4A0501060106840F4004010600868C1
:1007D80040F08070086043F60000C4F20200006830
:1007E8008001002800D4F6E743F60041C4F2020174
:1007F800086840F203721043086043F60801C4F227
:100808000201086820F003000860086840F0020050
:10081800086043F60800C4F20200006800F00C000B
:0E082800082800D0F5E7FFF7ABFC02B080BD5A
:02083600FEE7DB
:1008380043F64401C4F20201086840F00100086070
:1008480043F63001C4F20201086840F01000086065
:1008580041F20001C4F20201086840F40030086067
:10086800086840F40020086041F20801C4F202015F
:10087800086840F400300860086840F40020086008
:1008880041F22401C4F20201086840F00100086046
:10089800086840F0100008602821C4F20101022015
:1008A80008600021C4F20101086840F06000086097
:1008B8002C21C4F2010146F65F5008603421C4F2CD
:1008C800010143F2B06008603821C4F20101002040
:1008D80008603C21C4F2010108600821C4F201014A
:1008E800086840F010000860086840F004000860DC
:1008F8001822C4F20102106840F06000106010680D
:1009080020F003001060106840F0080010602021FB
:10091800C4F20101086840F001000860086840F06E
:1009280004000860106840F4C0401060106820F4AB
:1009380040701060106840F400601060086840F073
:1009480010000860086840F0400008601C22C4F2EB
:100958000102106840F060001060106820F0030089
:100968001060106840F008001060086840F480705B
:100978000860086840F4806008604421C4F20101FE
:0A098800086840F400400860704762
:02099200FEE77E
:1009940080B582B043F64001C4F20201086840F019
:1009A4000100086043F63001C4F20201086840F017
:1009B400010008600021C4F20201086840F0080048
:1009C40008600821C4F20201086840F008000860C9
:1009D4002021C4F20201086840F0100008602821B8
:1009E400C4F20001002008604FF08041086820F044
:1009F40060000860086840F0100008602C21C4F210
:100A0400000144F61F00C0F2010008603821C4F25E
:100A140000014AF2104008600421C4F20001086891
:100A240040F0200008601821C4F20001086840F476
:100A3400C0400860086820F440700860086840F40A
:100A4400006008602021C4F20001086840F0100032
:100A540008600C21C4F20001086840F0040008603A
:100A64001021C4F20001086820F0040008601C2072
:100A74000190012100F006F80198FFF757FD02B03C
:020A840080BD33
:020A8600FEE789
:100A880082B08DF8070000919DF90700002809D46D
:100A9800009800019DF907104EF20042CEF20002C4
:100AA80088540AE0009800019DF8071001F00F0132
:0E0AB8004EF61452CEF20002885402B070477F
:020AC600FEE749
:100AC8000021C4F20101086840F0010008604FF0FD
:100AD8008041086840F0010008601421C4F2000158
:0A0AE800086840F001000860704744
:020AF200FEE71D
:020AF400FEE71B
:020AF600FEE719
:020AF800FEE717
:020AFA00FEE715
:020AFC00FEE713
:020AFE00FEE711
:020B0000FEE70E
:020B0200FEE70C
:020B0400FEE70A
:020B0600FEE708
:020B0800FEE706
:020B0A00FEE704
:020B0C00FEE702
:020B0E00FEE700
:020B1000FEE7FE
:020B1200FEE7FC
:020B1400FEE7FA
:020B1600FEE7F8
:020B1800FEE7F6
:020B1A00FEE7F4
:020B1C00FEE7F2
:020B1E00FEE7F0
:020B2000FEE7EE
:020B2200FEE7EC
:020B2400FEE7EA
:020B2600FEE7E8
:020B2800FEE7E6
:020B2A00FEE7E4
:020B2C00FEE7E2
:020B2E00FEE7E0
:020B3000FEE7DE
:020B3200FEE7DC
:020B3400FEE7DA
:020B3600FEE7D8
:020B3800FEE7D6
:020B3A00FEE7D4
:020B3C00FEE7D2
:020B3E00FEE7D0
:020B4000FEE7CE
:020B4200FEE7CC
:020B4400FEE7CA
:020B4600FEE7C8
:020B4800FEE7C6
:020B4A00FEE7C4
:020B4C00FEE7C2
:020B4E00FEE7C0
:020B5000FEE7BE
:020B5200FEE7BC
:020B5400FEE7BA
:020B5600FEE7B8
:020B5800FEE7B6
:020B5A00FEE7B4
:020B5C00FEE7B2
:020B5E00FEE7B0
:020B6000FEE7AE
:020B6200FEE7AC
:020B6400FEE7AA
:020B6600FEE7A8
:020B6800FEE7A6
:020B6A00FEE7A4
:020B6C00FEE7A2
:020B6E00FEE7A0
:020B7000FEE79E
:020B7200FEE79C
:020B7400FEE79A
:020B7600FEE798
:020B7800FEE796
:020B7A00FEE794
:020B7C00FEE792
:020B7E00FEE790
:020B8000FEE78E
:020B8200FEE78C
:020B8400FEE78A
:020B8600FEE788
:020B8800FEE786
:020B8A00FEE784
:100B8C00FFF704FD4EF68850CEF20000016851F4D8
:080B9C0070010160FFF7DCFCB1
:040BA40089010008BB
:100BA8000000000000000000010203040607080915
:100BB80000B506480649884205D00268043003B4E7
:100BC800904703BCF7E708BC18470000A40B0008CF
:040BD800A80B00085E
:100BDC00250C00080000001006000000370C00086F
:100BEC0008000010100C000804000000370C00086E
:100BFC0000000020140C000810000000B90B0008C5
:040C0C006705000870
:100C10000024F400000000000000000000000000BC
:040C200000000000D0
:100C2400206861680834002200E042540139FCD590
:020C3400704707
:100C360020686168A2680C3401E08B5C8354013A39
:040C4600FBD5704723
:0400000508000B8D57
:00000001FF
